{
  "contractName": "IDMS",
  "abi": [
    {
      "constant": true,
      "inputs": [
        {
          "name": "",
          "type": "uint256"
        }
      ],
      "name": "students",
      "outputs": [
        {
          "name": "Type",
          "type": "uint256"
        },
        {
          "name": "name",
          "type": "string"
        },
        {
          "name": "password",
          "type": "string"
        },
        {
          "name": "dob",
          "type": "string"
        },
        {
          "name": "email",
          "type": "string"
        },
        {
          "name": "phone",
          "type": "string"
        },
        {
          "name": "institute",
          "type": "address"
        },
        {
          "name": "marks",
          "type": "uint256"
        },
        {
          "name": "isVerified",
          "type": "bool"
        }
      ],
      "payable": false,
      "stateMutability": "view",
      "type": "function"
    },
    {
      "constant": true,
      "inputs": [
        {
          "name": "",
          "type": "uint256"
        }
      ],
      "name": "Users",
      "outputs": [
        {
          "name": "",
          "type": "uint256"
        }
      ],
      "payable": false,
      "stateMutability": "view",
      "type": "function"
    },
    {
      "constant": true,
      "inputs": [],
      "name": "recruitersStudentsCount",
      "outputs": [
        {
          "name": "",
          "type": "uint256"
        }
      ],
      "payable": false,
      "stateMutability": "view",
      "type": "function"
    },
    {
      "constant": true,
      "inputs": [
        {
          "name": "",
          "type": "uint256"
        }
      ],
      "name": "RecruiterToAccount",
      "outputs": [
        {
          "name": "",
          "type": "address"
        }
      ],
      "payable": false,
      "stateMutability": "view",
      "type": "function"
    },
    {
      "constant": true,
      "inputs": [
        {
          "name": "",
          "type": "uint256"
        }
      ],
      "name": "RecruiterId",
      "outputs": [
        {
          "name": "Type",
          "type": "uint256"
        },
        {
          "name": "username",
          "type": "string"
        },
        {
          "name": "password",
          "type": "string"
        },
        {
          "name": "OrganisationName",
          "type": "string"
        },
        {
          "name": "Contact",
          "type": "uint256"
        },
        {
          "name": "OrganisationMail",
          "type": "string"
        }
      ],
      "payable": false,
      "stateMutability": "view",
      "type": "function"
    },
    {
      "constant": true,
      "inputs": [],
      "name": "studentsCount",
      "outputs": [
        {
          "name": "",
          "type": "uint256"
        }
      ],
      "payable": false,
      "stateMutability": "view",
      "type": "function"
    },
    {
      "constant": true,
      "inputs": [
        {
          "name": "",
          "type": "uint256"
        }
      ],
      "name": "institutes",
      "outputs": [
        {
          "name": "Type",
          "type": "uint256"
        },
        {
          "name": "instituteName",
          "type": "string"
        },
        {
          "name": "password",
          "type": "string"
        },
        {
          "name": "phone",
          "type": "string"
        },
        {
          "name": "addressInstitute",
          "type": "string"
        }
      ],
      "payable": false,
      "stateMutability": "view",
      "type": "function"
    },
    {
      "constant": true,
      "inputs": [],
      "name": "RecruiterCount",
      "outputs": [
        {
          "name": "",
          "type": "uint256"
        }
      ],
      "payable": false,
      "stateMutability": "view",
      "type": "function"
    },
    {
      "constant": true,
      "inputs": [
        {
          "name": "",
          "type": "uint256"
        },
        {
          "name": "",
          "type": "uint256"
        }
      ],
      "name": "recruitersStudents",
      "outputs": [
        {
          "name": "",
          "type": "uint256"
        }
      ],
      "payable": false,
      "stateMutability": "view",
      "type": "function"
    },
    {
      "constant": true,
      "inputs": [],
      "name": "instituteCount",
      "outputs": [
        {
          "name": "",
          "type": "uint256"
        }
      ],
      "payable": false,
      "stateMutability": "view",
      "type": "function"
    },
    {
      "inputs": [],
      "payable": false,
      "stateMutability": "nonpayable",
      "type": "constructor"
    },
    {
      "constant": false,
      "inputs": [
        {
          "name": "_t",
          "type": "uint256"
        }
      ],
      "name": "SetUsers",
      "outputs": [],
      "payable": false,
      "stateMutability": "nonpayable",
      "type": "function"
    },
    {
      "constant": false,
      "inputs": [
        {
          "name": "addr",
          "type": "uint256"
        }
      ],
      "name": "GetUsers",
      "outputs": [
        {
          "name": "",
          "type": "uint256"
        }
      ],
      "payable": false,
      "stateMutability": "nonpayable",
      "type": "function"
    },
    {
      "constant": false,
      "inputs": [
        {
          "name": "Type",
          "type": "uint256"
        },
        {
          "name": "_name",
          "type": "string"
        },
        {
          "name": "_password",
          "type": "string"
        },
        {
          "name": "_dob",
          "type": "string"
        },
        {
          "name": "_email",
          "type": "string"
        },
        {
          "name": "_phone",
          "type": "string"
        },
        {
          "name": "_institute",
          "type": "address"
        },
        {
          "name": "_marks",
          "type": "uint256"
        },
        {
          "name": "_isVerified",
          "type": "bool"
        }
      ],
      "name": "addStudent",
      "outputs": [],
      "payable": false,
      "stateMutability": "nonpayable",
      "type": "function"
    },
    {
      "constant": false,
      "inputs": [
        {
          "name": "_id",
          "type": "uint256"
        }
      ],
      "name": "setVerified",
      "outputs": [],
      "payable": false,
      "stateMutability": "nonpayable",
      "type": "function"
    },
    {
      "constant": false,
      "inputs": [
        {
          "name": "Type",
          "type": "uint256"
        },
        {
          "name": "username",
          "type": "string"
        },
        {
          "name": "password",
          "type": "string"
        },
        {
          "name": "_name",
          "type": "string"
        },
        {
          "name": "_contact",
          "type": "uint256"
        },
        {
          "name": "_organisationname",
          "type": "string"
        }
      ],
      "name": "addRecruiter",
      "outputs": [],
      "payable": false,
      "stateMutability": "nonpayable",
      "type": "function"
    },
    {
      "constant": true,
      "inputs": [
        {
          "name": "i",
          "type": "uint256"
        }
      ],
      "name": "getDetails",
      "outputs": [
        {
          "name": "",
          "type": "uint256"
        },
        {
          "name": "",
          "type": "string"
        },
        {
          "name": "",
          "type": "string"
        },
        {
          "name": "",
          "type": "string"
        },
        {
          "name": "",
          "type": "uint256"
        },
        {
          "name": "",
          "type": "string"
        }
      ],
      "payable": false,
      "stateMutability": "view",
      "type": "function"
    },
    {
      "constant": true,
      "inputs": [
        {
          "name": "_rid",
          "type": "uint256"
        },
        {
          "name": "_itr",
          "type": "uint256"
        }
      ],
      "name": "getRecruitersStudents",
      "outputs": [
        {
          "name": "",
          "type": "uint256"
        }
      ],
      "payable": false,
      "stateMutability": "view",
      "type": "function"
    },
    {
      "constant": false,
      "inputs": [
        {
          "name": "_rid",
          "type": "uint256"
        },
        {
          "name": "_sid",
          "type": "uint256"
        }
      ],
      "name": "setRecruiterStudents",
      "outputs": [],
      "payable": false,
      "stateMutability": "nonpayable",
      "type": "function"
    },
    {
      "constant": true,
      "inputs": [
        {
          "name": "_rid",
          "type": "uint256"
        }
      ],
      "name": "getRecruitersStudentsCount",
      "outputs": [
        {
          "name": "",
          "type": "uint256"
        }
      ],
      "payable": false,
      "stateMutability": "view",
      "type": "function"
    },
    {
      "constant": false,
      "inputs": [
        {
          "name": "Type",
          "type": "uint256"
        },
        {
          "name": "_instituteName",
          "type": "string"
        },
        {
          "name": "_password",
          "type": "string"
        },
        {
          "name": "phone",
          "type": "string"
        },
        {
          "name": "_addressInstitute",
          "type": "string"
        }
      ],
      "name": "addInstitute",
      "outputs": [],
      "payable": false,
      "stateMutability": "nonpayable",
      "type": "function"
    },
    {
      "constant": false,
      "inputs": [
        {
          "name": "sid",
          "type": "uint256"
        }
      ],
      "name": "SetStudentVerification",
      "outputs": [],
      "payable": false,
      "stateMutability": "nonpayable",
      "type": "function"
    }
  ],
  "bytecode": "0x60806040523480156200001157600080fd5b506200014160006040805190810160405280600781526020017f76696e6179616b000000000000000000000000000000000000000000000000008152506040805190810160405280600881526020017f61626364656667680000000000000000000000000000000000000000000000008152506040805190810160405280600881526020017f312d312d323030300000000000000000000000000000000000000000000000008152506040805190810160405280600b81526020017f6162634078797a2e636f6d0000000000000000000000000000000000000000008152506040805190810160405280600a81526020017f313233343536373839300000000000000000000000000000000000000000000081525060006064600062000333640100000000026401000000009004565b6200023a60016040805190810160405280600281526020017f6d790000000000000000000000000000000000000000000000000000000000008152506040805190810160405280600481526020017f636f6465000000000000000000000000000000000000000000000000000000008152506040805190810160405280600581526020017f48656b6b6f000000000000000000000000000000000000000000000000000000815250640223f0f8136040805190810160405280600b81526020017f78797a406162632e636f6d000000000000000000000000000000000000000000815250620004d8640100000000026401000000009004565b6200032d60026040805190810160405280600481526020017f766a7469000000000000000000000000000000000000000000000000000000008152506040805190810160405280600881526020017f61626364656667680000000000000000000000000000000000000000000000008152506040805190810160405280600a81526020017f31323334353637383930000000000000000000000000000000000000000000008152506040805190810160405280600681526020017f6d756d62616900000000000000000000000000000000000000000000000000008152506200061c640100000000026401000000009004565b620007aa565b600360008154809291906001019190505550610120604051908101604052808a81526020018981526020018881526020018781526020018681526020018581526020018473ffffffffffffffffffffffffffffffffffffffff168152602001838152602001821515815250600260006003548152602001908152602001600020600082015181600001556020820151816001019080519060200190620003db929190620006fb565b506040820151816002019080519060200190620003fa929190620006fb565b50606082015181600301908051906020019062000419929190620006fb565b50608082015181600401908051906020019062000438929190620006fb565b5060a082015181600501908051906020019062000457929190620006fb565b5060c08201518160060160006101000a81548173ffffffffffffffffffffffffffffffffffffffff021916908373ffffffffffffffffffffffffffffffffffffffff16021790555060e082015181600701556101008201518160080160006101000a81548160ff021916908315150217905550905050505050505050505050565b60046000815480929190600101919050555060c0604051908101604052808781526020018681526020018581526020018481526020018381526020018281525060056000600454815260200190815260200160002060008201518160000155602082015181600101908051906020019062000555929190620006fb565b50604082015181600201908051906020019062000574929190620006fb565b50606082015181600301908051906020019062000593929190620006fb565b506080820151816004015560a0820151816005019080519060200190620005bc929190620006fb565b509050503360066000600454815260200190815260200160002060006101000a81548173ffffffffffffffffffffffffffffffffffffffff021916908373ffffffffffffffffffffffffffffffffffffffff160217905550505050505050565b60096000815480929190600101919050555060a06040519081016040528086815260200185815260200184815260200183815260200182815250600a6000600954815260200190815260200160002060008201518160000155602082015181600101908051906020019062000693929190620006fb565b506040820151816002019080519060200190620006b2929190620006fb565b506060820151816003019080519060200190620006d1929190620006fb565b506080820151816004019080519060200190620006f0929190620006fb565b509050505050505050565b828054600181600116156101000203166002900490600052602060002090601f016020900481019282601f106200073e57805160ff19168380011785556200076f565b828001600101855582156200076f579182015b828111156200076e57825182559160200191906001019062000751565b5b5090506200077e919062000782565b5090565b620007a791905b80821115620007a357600081600090555060010162000789565b5090565b90565b61233b80620007ba6000396000f30060806040526004361061011d576000357c0100000000000000000000000000000000000000000000000000000000900463ffffffff16806306ead22e146101225780631e98fd1c146103c457806325a837711461040557806329050928146104305780632d9de4721461047b5780633b430f24146104a85780633d025bfc1461051557806355cbc38f1461054257806357870f35146105795780635eb4ba7a1461077157806368433a3a146107b25780637865a1b6146107dd57806390ee20b014610922578063980323a314610b13578063b05aebd414610c62578063b93a89f714610e23578063dcf0de731461101b578063e7ae5d551461105c578063ebbb886f14611087578063f6eebb04146110b4578063fefb21a4146110ff575b600080fd5b34801561012e57600080fd5b5061014d6004803603810190808035906020019092919050505061112a565b604051808a815260200180602001806020018060200180602001806020018973ffffffffffffffffffffffffffffffffffffffff1673ffffffffffffffffffffffffffffffffffffffff1681526020018881526020018715151515815260200186810386528e818151815260200191508051906020019080838360005b838110156101e55780820151818401526020810190506101ca565b50505050905090810190601f1680156102125780820380516001836020036101000a031916815260200191505b5086810385528d818151815260200191508051906020019080838360005b8381101561024b578082015181840152602081019050610230565b50505050905090810190601f1680156102785780820380516001836020036101000a031916815260200191505b5086810384528c818151815260200191508051906020019080838360005b838110156102b1578082015181840152602081019050610296565b50505050905090810190601f1680156102de5780820380516001836020036101000a031916815260200191505b5086810383528b818151815260200191508051906020019080838360005b838110156103175780820151818401526020810190506102fc565b50505050905090810190601f1680156103445780820380516001836020036101000a031916815260200191505b5086810382528a818151815260200191508051906020019080838360005b8381101561037d578082015181840152602081019050610362565b50505050905090810190601f1680156103aa5780820380516001836020036101000a031916815260200191505b509e50505050505050505050505050505060405180910390f35b3480156103d057600080fd5b506103ef6004803603810190808035906020019092919050505061149d565b6040518082815260200191505060405180910390f35b34801561041157600080fd5b5061041a6114b5565b6040518082815260200191505060405180910390f35b34801561043c57600080fd5b5061046560048036038101908080359060200190929190803590602001909291905050506114bb565b6040518082815260200191505060405180910390f35b34801561048757600080fd5b506104a6600480360381019080803590602001909291905050506114f0565b005b3480156104b457600080fd5b506104d360048036038101908080359060200190929190505050611522565b604051808273ffffffffffffffffffffffffffffffffffffffff1673ffffffffffffffffffffffffffffffffffffffff16815260200191505060405180910390f35b34801561052157600080fd5b5061054060048036038101908080359060200190929190505050611555565b005b34801561054e57600080fd5b506105776004803603810190808035906020019092919080359060200190929190505050611587565b005b34801561058557600080fd5b506105a4600480360381019080803590602001909291905050506115c8565b604051808781526020018060200180602001806020018681526020018060200185810385528a818151815260200191508051906020019080838360005b838110156105fc5780820151818401526020810190506105e1565b50505050905090810190601f1680156106295780820380516001836020036101000a031916815260200191505b50858103845289818151815260200191508051906020019080838360005b83811015610662578082015181840152602081019050610647565b50505050905090810190601f16801561068f5780820380516001836020036101000a031916815260200191505b50858103835288818151815260200191508051906020019080838360005b838110156106c85780820151818401526020810190506106ad565b50505050905090810190601f1680156106f55780820380516001836020036101000a031916815260200191505b50858103825286818151815260200191508051906020019080838360005b8381101561072e578082015181840152602081019050610713565b50505050905090810190601f16801561075b5780820380516001836020036101000a031916815260200191505b509a505050505050505050505060405180910390f35b34801561077d57600080fd5b5061079c60048036038101908080359060200190929190505050611864565b6040518082815260200191505060405180910390f35b3480156107be57600080fd5b506107c7611884565b6040518082815260200191505060405180910390f35b3480156107e957600080fd5b5061092060048036038101908080359060200190929190803590602001908201803590602001908080601f0160208091040260200160405190810160405280939291908181526020018383808284378201915050505050509192919290803590602001908201803590602001908080601f0160208091040260200160405190810160405280939291908181526020018383808284378201915050505050509192919290803590602001908201803590602001908080601f0160208091040260200160405190810160405280939291908181526020018383808284378201915050505050509192919290803590602001908201803590602001908080601f016020809104026020016040519081016040528093929190818152602001838380828437820191505050505050919291929050505061188a565b005b34801561092e57600080fd5b5061094d60048036038101908080359060200190929190505050611961565b6040518086815260200180602001806020018060200180602001858103855289818151815260200191508051906020019080838360005b8381101561099f578082015181840152602081019050610984565b50505050905090810190601f1680156109cc5780820380516001836020036101000a031916815260200191505b50858103845288818151815260200191508051906020019080838360005b83811015610a055780820151818401526020810190506109ea565b50505050905090810190601f168015610a325780820380516001836020036101000a031916815260200191505b50858103835287818151815260200191508051906020019080838360005b83811015610a6b578082015181840152602081019050610a50565b50505050905090810190601f168015610a985780820380516001836020036101000a031916815260200191505b50858103825286818151815260200191508051906020019080838360005b83811015610ad1578082015181840152602081019050610ab6565b50505050905090810190601f168015610afe5780820380516001836020036101000a031916815260200191505b50995050505050505050505060405180910390f35b348015610b1f57600080fd5b50610c6060048036038101908080359060200190929190803590602001908201803590602001908080601f0160208091040260200160405190810160405280939291908181526020018383808284378201915050505050509192919290803590602001908201803590602001908080601f0160208091040260200160405190810160405280939291908181526020018383808284378201915050505050509192919290803590602001908201803590602001908080601f016020809104026020016040519081016040528093929190818152602001838380828437820191505050505050919291929080359060200190929190803590602001908201803590602001908080601f0160208091040260200160405190810160405280939291908181526020018383808284378201915050505050509192919290505050611bf7565b005b348015610c6e57600080fd5b50610e2160048036038101908080359060200190929190803590602001908201803590602001908080601f0160208091040260200160405190810160405280939291908181526020018383808284378201915050505050509192919290803590602001908201803590602001908080601f0160208091040260200160405190810160405280939291908181526020018383808284378201915050505050509192919290803590602001908201803590602001908080601f0160208091040260200160405190810160405280939291908181526020018383808284378201915050505050509192919290803590602001908201803590602001908080601f0160208091040260200160405190810160405280939291908181526020018383808284378201915050505050509192919290803590602001908201803590602001908080601f0160208091040260200160405190810160405280939291908181526020018383808284378201915050505050509192919290803573ffffffffffffffffffffffffffffffffffffffff16906020019092919080359060200190929190803515159060200190929190505050611d33565b005b348015610e2f57600080fd5b50610e4e60048036038101908080359060200190929190505050611ece565b604051808781526020018060200180602001806020018681526020018060200185810385528a818151815260200191508051906020019080838360005b83811015610ea6578082015181840152602081019050610e8b565b50505050905090810190601f168015610ed35780820380516001836020036101000a031916815260200191505b50858103845289818151815260200191508051906020019080838360005b83811015610f0c578082015181840152602081019050610ef1565b50505050905090810190601f168015610f395780820380516001836020036101000a031916815260200191505b50858103835288818151815260200191508051906020019080838360005b83811015610f72578082015181840152602081019050610f57565b50505050905090810190601f168015610f9f5780820380516001836020036101000a031916815260200191505b50858103825286818151815260200191508051906020019080838360005b83811015610fd8578082015181840152602081019050610fbd565b50505050905090810190601f1680156110055780820380516001836020036101000a031916815260200191505b509a505050505050505050505060405180910390f35b34801561102757600080fd5b50611046600480360381019080803590602001909291905050506121e4565b6040518082815260200191505060405180910390f35b34801561106857600080fd5b50611071612200565b6040518082815260200191505060405180910390f35b34801561109357600080fd5b506110b260048036038101908080359060200190929190505050612206565b005b3480156110c057600080fd5b506110e96004803603810190808035906020019092919080359060200190929190505050612234565b6040518082815260200191505060405180910390f35b34801561110b57600080fd5b50611114612264565b6040518082815260200191505060405180910390f35b6002602052806000526040600020600091509050806000015490806001018054600181600116156101000203166002900480601f0160208091040260200160405190810160405280929190818152602001828054600181600116156101000203166002900480156111dc5780601f106111b1576101008083540402835291602001916111dc565b820191906000526020600020905b8154815290600101906020018083116111bf57829003601f168201915b505050505090806002018054600181600116156101000203166002900480601f01602080910402602001604051908101604052809291908181526020018280546001816001161561010002031660029004801561127a5780601f1061124f5761010080835404028352916020019161127a565b820191906000526020600020905b81548152906001019060200180831161125d57829003601f168201915b505050505090806003018054600181600116156101000203166002900480601f0160208091040260200160405190810160405280929190818152602001828054600181600116156101000203166002900480156113185780601f106112ed57610100808354040283529160200191611318565b820191906000526020600020905b8154815290600101906020018083116112fb57829003601f168201915b505050505090806004018054600181600116156101000203166002900480601f0160208091040260200160405190810160405280929190818152602001828054600181600116156101000203166002900480156113b65780601f1061138b576101008083540402835291602001916113b6565b820191906000526020600020905b81548152906001019060200180831161139957829003601f168201915b505050505090806005018054600181600116156101000203166002900480601f0160208091040260200160405190810160405280929190818152602001828054600181600116156101000203166002900480156114545780601f1061142957610100808354040283529160200191611454565b820191906000526020600020905b81548152906001019060200180831161143757829003601f168201915b5050505050908060060160009054906101000a900473ffffffffffffffffffffffffffffffffffffffff16908060070154908060080160009054906101000a900460ff16905089565b60006020528060005260406000206000915090505481565b60075481565b600060086000848152602001908152602001600020828154811015156114dd57fe5b9060005260206000200154905092915050565b60016002600083815260200190815260200160002060080160006101000a81548160ff02191690831515021790555050565b60066020528060005260406000206000915054906101000a900473ffffffffffffffffffffffffffffffffffffffff1681565b60016002600083815260200190815260200160002060080160006101000a81548160ff02191690831515021790555050565b600860008381526020019081526020016000208190806001815401808255809150509060018203906000526020600020016000909192909190915055505050565b6005602052806000526040600020600091509050806000015490806001018054600181600116156101000203166002900480601f01602080910402602001604051908101604052809291908181526020018280546001816001161561010002031660029004801561167a5780601f1061164f5761010080835404028352916020019161167a565b820191906000526020600020905b81548152906001019060200180831161165d57829003601f168201915b505050505090806002018054600181600116156101000203166002900480601f0160208091040260200160405190810160405280929190818152602001828054600181600116156101000203166002900480156117185780601f106116ed57610100808354040283529160200191611718565b820191906000526020600020905b8154815290600101906020018083116116fb57829003601f168201915b505050505090806003018054600181600116156101000203166002900480601f0160208091040260200160405190810160405280929190818152602001828054600181600116156101000203166002900480156117b65780601f1061178b576101008083540402835291602001916117b6565b820191906000526020600020905b81548152906001019060200180831161179957829003601f168201915b505050505090806004015490806005018054600181600116156101000203166002900480601f01602080910402602001604051908101604052809291908181526020018280546001816001161561010002031660029004801561185a5780601f1061182f5761010080835404028352916020019161185a565b820191906000526020600020905b81548152906001019060200180831161183d57829003601f168201915b5050505050905086565b600060086000838152602001908152602001600020805490509050919050565b60035481565b60096000815480929190600101919050555060a06040519081016040528086815260200185815260200184815260200183815260200182815250600a600060095481526020019081526020016000206000820151816000015560208201518160010190805190602001906118ff92919061226a565b50604082015181600201908051906020019061191c92919061226a565b50606082015181600301908051906020019061193992919061226a565b50608082015181600401908051906020019061195692919061226a565b509050505050505050565b600a602052806000526040600020600091509050806000015490806001018054600181600116156101000203166002900480601f016020809104026020016040519081016040528092919081815260200182805460018160011615610100020316600290048015611a135780601f106119e857610100808354040283529160200191611a13565b820191906000526020600020905b8154815290600101906020018083116119f657829003601f168201915b505050505090806002018054600181600116156101000203166002900480601f016020809104026020016040519081016040528092919081815260200182805460018160011615610100020316600290048015611ab15780601f10611a8657610100808354040283529160200191611ab1565b820191906000526020600020905b815481529060010190602001808311611a9457829003601f168201915b505050505090806003018054600181600116156101000203166002900480601f016020809104026020016040519081016040528092919081815260200182805460018160011615610100020316600290048015611b4f5780601f10611b2457610100808354040283529160200191611b4f565b820191906000526020600020905b815481529060010190602001808311611b3257829003601f168201915b505050505090806004018054600181600116156101000203166002900480601f016020809104026020016040519081016040528092919081815260200182805460018160011615610100020316600290048015611bed5780601f10611bc257610100808354040283529160200191611bed565b820191906000526020600020905b815481529060010190602001808311611bd057829003601f168201915b5050505050905085565b60046000815480929190600101919050555060c06040519081016040528087815260200186815260200185815260200184815260200183815260200182815250600560006004548152602001908152602001600020600082015181600001556020820151816001019080519060200190611c7292919061226a565b506040820151816002019080519060200190611c8f92919061226a565b506060820151816003019080519060200190611cac92919061226a565b506080820151816004015560a0820151816005019080519060200190611cd392919061226a565b509050503360066000600454815260200190815260200160002060006101000a81548173ffffffffffffffffffffffffffffffffffffffff021916908373ffffffffffffffffffffffffffffffffffffffff160217905550505050505050565b600360008154809291906001019190505550610120604051908101604052808a81526020018981526020018881526020018781526020018681526020018581526020018473ffffffffffffffffffffffffffffffffffffffff168152602001838152602001821515815250600260006003548152602001908152602001600020600082015181600001556020820151816001019080519060200190611dd992919061226a565b506040820151816002019080519060200190611df692919061226a565b506060820151816003019080519060200190611e1392919061226a565b506080820151816004019080519060200190611e3092919061226a565b5060a0820151816005019080519060200190611e4d92919061226a565b5060c08201518160060160006101000a81548173ffffffffffffffffffffffffffffffffffffffff021916908373ffffffffffffffffffffffffffffffffffffffff16021790555060e082015181600701556101008201518160080160006101000a81548160ff021916908315150217905550905050505050505050505050565b6000606080606060006060600560008881526020019081526020016000206000015460056000898152602001908152602001600020600101600560008a8152602001908152602001600020600201600560008b8152602001908152602001600020600301600560008c815260200190815260200160002060040154600560008d8152602001908152602001600020600501848054600181600116156101000203166002900480601f016020809104026020016040519081016040528092919081815260200182805460018160011615610100020316600290048015611ff45780601f10611fc957610100808354040283529160200191611ff4565b820191906000526020600020905b815481529060010190602001808311611fd757829003601f168201915b50505050509450838054600181600116156101000203166002900480601f0160208091040260200160405190810160405280929190818152602001828054600181600116156101000203166002900480156120905780601f1061206557610100808354040283529160200191612090565b820191906000526020600020905b81548152906001019060200180831161207357829003601f168201915b50505050509350828054600181600116156101000203166002900480601f01602080910402602001604051908101604052809291908181526020018280546001816001161561010002031660029004801561212c5780601f106121015761010080835404028352916020019161212c565b820191906000526020600020905b81548152906001019060200180831161210f57829003601f168201915b50505050509250808054600181600116156101000203166002900480601f0160208091040260200160405190810160405280929190818152602001828054600181600116156101000203166002900480156121c85780601f1061219d576101008083540402835291602001916121c8565b820191906000526020600020905b8154815290600101906020018083116121ab57829003601f168201915b5050505050905095509550955095509550955091939550919395565b6000806000838152602001908152602001600020549050919050565b60045481565b6001600081548092919060010191905055508060008060015481526020019081526020016000208190555050565b60086020528160005260406000208181548110151561224f57fe5b90600052602060002001600091509150505481565b60095481565b828054600181600116156101000203166002900490600052602060002090601f016020900481019282601f106122ab57805160ff19168380011785556122d9565b828001600101855582156122d9579182015b828111156122d85782518255916020019190600101906122bd565b5b5090506122e691906122ea565b5090565b61230c91905b808211156123085760008160009055506001016122f0565b5090565b905600a165627a7a7230582082d791a8655ec3ea13db9fe0e67fa8c2599db530417c32415727ef3f82319c670029",
  "source": "pragma solidity ^0.4.19;\n\n/// TYPE 1- STUDENT , 2 - Recruiter 3 - institute\n\n\ncontract IDMS{\n\tstruct studentProfile{\n\t\t//string username;\n\t\tuint Type;\n\t\tstring name;\n\t\tstring password;\n\t\tstring dob;\n\t\tstring email;\n\t\tstring phone;\n\t\taddress institute;\n\t\tuint marks;\n\n\t\t/* verification info */\n\t\tbool isVerified;\n\t}\n\n\t/*student address to their account*/\n\n\t/*mapping(address => studentProfile) public students;*/\n\n\n\tmapping( /*address*/uint =>uint) public Users;\n\tuint UsersCount;\n\n\n\tmapping(uint => studentProfile) public students;\n\tuint public studentsCount;\n\n\n\tfunction SetUsers(uint _t) public {\n\t\tUsersCount++;\n\t\tUsers[/*msg.sender*/UsersCount] = _t;\n\t}\n\n\n\tfunction GetUsers(uint/*address*/ addr) returns (/*address*/uint){\n\t\treturn(Users[addr]);\n\t}\n\n\n\n\n\tconstructor() public {\n\t\t\n\t\taddStudent(0,\"vinayak\",\"abcdefgh\",\"1-1-2000\",\"abc@xyz.com\",\"1234567890\",0x0,100,false);\n\t\taddRecruiter(1,\"my\",\"code\",\"Hekko\",9192929299,\"xyz@abc.com\");\n\t\taddInstitute(2,\"vjti\",\"abcdefgh\",\"1234567890\",\"mumbai\");\n\t}\n\n\tfunction addStudent(uint Type,string _name, string _password, string _dob, string _email, string _phone,\n\t\t\t address _institute, uint _marks, bool _isVerified) public {\n\t\tstudentsCount++;\n\t\tstudents[studentsCount/*msg.sender*/]=\n\t\t\tstudentProfile(Type,_name,  _password, _dob, _email, _phone, _institute, _marks, _isVerified);\n\t}\n\n\tfunction setVerified(uint _id) public{\n\t\t/*some checking or manually calling this function to set the value below as true */\n\t\tstudents[_id/*msg.sender*/].isVerified=true;\n\t}\n\n\t//----------------------------------------------------------------------------------------------------------------------------\n\tstruct Recruit {\n\t\tuint Type;\n\t\tstring username;\n\t\tstring password;\n\t\tstring OrganisationName;\n\t\tuint256 Contact;\n\t\tstring OrganisationMail;\n\t}\n\n\n\t//address RecruiterAddress;\n\t\n\n\tuint public RecruiterCount;\n\tmapping(/*RecruiterAddress*/uint=>Recruit) public RecruiterId;\n\tmapping(uint => address) public RecruiterToAccount;\n\t//uint public recruitersStudentsCount;\n\t//mapping(uint /*recruiters (adddress)*/ => studentProfile\t) recruitersStudents;\n\n\tfunction addRecruiter(uint Type,string username,string password,string _name,uint256 _contact,string _organisationname) public{\n\t\tRecruiterCount++;\n\t\tRecruiterId[/*msg.sender*/RecruiterCount] = Recruit(Type,username,password,_name,_contact,_organisationname);\n\t\tRecruiterToAccount[RecruiterCount] = msg.sender;\n\t}\n\n\tfunction getDetails(uint i) public view returns(uint,string,string,string,uint256,string){\n\t\treturn(RecruiterId[i].Type,RecruiterId[i].username,RecruiterId[i].password,RecruiterId[i].OrganisationName,RecruiterId[i].Contact,RecruiterId[i].OrganisationMail);\n\t}\n\n\tuint public recruitersStudentsCount;\n\tmapping(uint/*recruiter address*/ => uint[] /*student address*/) public recruitersStudents;\n\n\tfunction getRecruitersStudents(uint _rid, uint _itr) public view returns(uint/*student address*/){\n\t\treturn recruitersStudents[_rid][_itr];\n\t}\n\n\tfunction setRecruiterStudents(uint _rid, uint _sid) public {\n\t\trecruitersStudents[_rid].push(_sid);\n\t}\n\n\tfunction getRecruitersStudentsCount (uint _rid) public view returns(uint) {\n\t\treturn recruitersStudents[_rid].length;\n\t}\n\t\n\n\t// function getRecruitersStudentsCount(uint _rId)public view returns(uint){\n\t// \treturn recruitersStudents[_rId].length;\n\t// }\n\n\t// function getRecruitersStudents(uint _rId, uint _i) public view \n\t// returns(uint , string , string , string , string , string ,address , uint ,bool ) {\n\t// \tstudentProfile s=recruitersStudents[_rId ][_i];\n\t\t\n\t// \t//return (s[0],s[1],s[2],s[3],s[4],s[5],s[6],s[7],s[8]);\n\t// \t\t\t.Type,\n\t// \t\t\trecruitersStudents[_rId ][_i].name,\n\t// \t\t\trecruitersStudents[_rId ][_i].password,\n\t// \t\t\trecruitersStudents[_rId ][_i].dob,\n\t// \t\t\trecruitersStudents[_rId ][_i].email,\n\t// \t\t\trecruitersStudents[_rId ][_i].phone,\n\t// \t\t\trecruitersStudents[_rId ][_i].institute,\n\t// \t\t\trecruitersStudents[_rId ][_i].marks,\n\t// \t\t\trecruitersStudents[_rId ][_i].isVerified\n\t\t\t\t\n\t// \t\t);\n\t// }\n\n\t// function setRecruiterStudents(uint _rId, uint _sId){\n\t// \trecruitersStudents[_rId].push(students[_sId/*msg.sender*/]);\n\n\t// }\n\n\t//----------------------------------------------------------------------------------------------------------------------------\n\t\t\n\n\n\tstruct InstituteStr{\n\t\tuint Type;\n\t\tstring instituteName;\n\t\tstring password;\n\t\tstring phone; \n\t\tstring addressInstitute;\n\t}\n\n\tuint public instituteCount;\n\tmapping(/*institute Address (address)*/uint=>InstituteStr) public institutes;\n\n\t\n\tfunction addInstitute(uint Type,string _instituteName, string _password, string phone, string _addressInstitute) public {\n\t\tinstituteCount++;\n\t\tinstitutes[/*msg.sender*/instituteCount] \n\t\t\t= InstituteStr(Type,_instituteName, _password, phone, _addressInstitute );\t\n\t}\n\n\tfunction SetStudentVerification(/*address*/uint sid) public {\n\t\tstudents[sid].isVerified=true;\t\n\t\t\t/*IDMS.deployed().then(function(i){app = i;}\n\n\n\n\t\t\t);*/\n\t}\n\n}",
  "sourcePath": "/home/sanidhya/Desktop/GBH2k18/contracts/IDMS.sol",
  "compiler": {
    "name": "solc",
    "version": "0.4.24+commit.e67f0147.Emscripten.clang"
  },
  "schemaVersion": "2.0.1",
  "updatedAt": "2018-12-21T17:40:10.443Z"
}