{
  "contractName": "IDMS",
  "abi": [
    {
      "constant": true,
      "inputs": [
        {
          "name": "",
          "type": "uint256"
        }
      ],
      "name": "students",
      "outputs": [
        {
          "name": "Type",
          "type": "uint256"
        },
        {
          "name": "name",
          "type": "string"
        },
        {
          "name": "password",
          "type": "string"
        },
        {
          "name": "dob",
          "type": "string"
        },
        {
          "name": "email",
          "type": "string"
        },
        {
          "name": "phone",
          "type": "string"
        },
        {
          "name": "institute",
          "type": "address"
        },
        {
          "name": "marks",
          "type": "uint256"
        },
        {
          "name": "isVerified",
          "type": "bool"
        }
      ],
      "payable": false,
      "stateMutability": "view",
      "type": "function"
    },
    {
      "constant": true,
      "inputs": [
        {
          "name": "",
          "type": "uint256"
        }
      ],
      "name": "Users",
      "outputs": [
        {
          "name": "",
          "type": "uint256"
        }
      ],
      "payable": false,
      "stateMutability": "view",
      "type": "function"
    },
    {
      "constant": true,
      "inputs": [],
      "name": "recruitersStudentsCount",
      "outputs": [
        {
          "name": "",
          "type": "uint256"
        }
      ],
      "payable": false,
      "stateMutability": "view",
      "type": "function"
    },
    {
      "constant": true,
      "inputs": [
        {
          "name": "",
          "type": "uint256"
        }
      ],
      "name": "RecruiterId",
      "outputs": [
        {
          "name": "Type",
          "type": "uint256"
        },
        {
          "name": "username",
          "type": "string"
        },
        {
          "name": "password",
          "type": "string"
        },
        {
          "name": "OrganisationName",
          "type": "string"
        },
        {
          "name": "Contact",
          "type": "uint256"
        },
        {
          "name": "OrganisationMail",
          "type": "string"
        }
      ],
      "payable": false,
      "stateMutability": "view",
      "type": "function"
    },
    {
      "constant": true,
      "inputs": [],
      "name": "studentsCount",
      "outputs": [
        {
          "name": "",
          "type": "uint256"
        }
      ],
      "payable": false,
      "stateMutability": "view",
      "type": "function"
    },
    {
      "constant": true,
      "inputs": [
        {
          "name": "",
          "type": "uint256"
        }
      ],
      "name": "institutes",
      "outputs": [
        {
          "name": "Type",
          "type": "uint256"
        },
        {
          "name": "instituteName",
          "type": "string"
        },
        {
          "name": "password",
          "type": "string"
        },
        {
          "name": "phone",
          "type": "string"
        },
        {
          "name": "addressInstitute",
          "type": "string"
        }
      ],
      "payable": false,
      "stateMutability": "view",
      "type": "function"
    },
    {
      "constant": true,
      "inputs": [],
      "name": "RecruiterCount",
      "outputs": [
        {
          "name": "",
          "type": "uint256"
        }
      ],
      "payable": false,
      "stateMutability": "view",
      "type": "function"
    },
    {
      "constant": true,
      "inputs": [
        {
          "name": "",
          "type": "uint256"
        },
        {
          "name": "",
          "type": "uint256"
        }
      ],
      "name": "recruitersStudents",
      "outputs": [
        {
          "name": "",
          "type": "uint256"
        }
      ],
      "payable": false,
      "stateMutability": "view",
      "type": "function"
    },
    {
      "constant": true,
      "inputs": [],
      "name": "instituteCount",
      "outputs": [
        {
          "name": "",
          "type": "uint256"
        }
      ],
      "payable": false,
      "stateMutability": "view",
      "type": "function"
    },
    {
      "inputs": [],
      "payable": false,
      "stateMutability": "nonpayable",
      "type": "constructor"
    },
    {
      "constant": false,
      "inputs": [
        {
          "name": "_t",
          "type": "uint256"
        }
      ],
      "name": "SetUsers",
      "outputs": [],
      "payable": false,
      "stateMutability": "nonpayable",
      "type": "function"
    },
    {
      "constant": false,
      "inputs": [
        {
          "name": "addr",
          "type": "uint256"
        }
      ],
      "name": "GetUsers",
      "outputs": [
        {
          "name": "",
          "type": "uint256"
        }
      ],
      "payable": false,
      "stateMutability": "nonpayable",
      "type": "function"
    },
    {
      "constant": false,
      "inputs": [
        {
          "name": "Type",
          "type": "uint256"
        },
        {
          "name": "_name",
          "type": "string"
        },
        {
          "name": "_password",
          "type": "string"
        },
        {
          "name": "_dob",
          "type": "string"
        },
        {
          "name": "_email",
          "type": "string"
        },
        {
          "name": "_phone",
          "type": "string"
        },
        {
          "name": "_institute",
          "type": "address"
        },
        {
          "name": "_marks",
          "type": "uint256"
        },
        {
          "name": "_isVerified",
          "type": "bool"
        }
      ],
      "name": "addStudent",
      "outputs": [],
      "payable": false,
      "stateMutability": "nonpayable",
      "type": "function"
    },
    {
      "constant": false,
      "inputs": [
        {
          "name": "_id",
          "type": "uint256"
        }
      ],
      "name": "setVerified",
      "outputs": [],
      "payable": false,
      "stateMutability": "nonpayable",
      "type": "function"
    },
    {
      "constant": false,
      "inputs": [
        {
          "name": "Type",
          "type": "uint256"
        },
        {
          "name": "username",
          "type": "string"
        },
        {
          "name": "password",
          "type": "string"
        },
        {
          "name": "_name",
          "type": "string"
        },
        {
          "name": "_contact",
          "type": "uint256"
        },
        {
          "name": "_organisationname",
          "type": "string"
        }
      ],
      "name": "addRecruiter",
      "outputs": [],
      "payable": false,
      "stateMutability": "nonpayable",
      "type": "function"
    },
    {
      "constant": true,
      "inputs": [],
      "name": "getDetails",
      "outputs": [
        {
          "name": "",
          "type": "uint256"
        },
        {
          "name": "",
          "type": "string"
        },
        {
          "name": "",
          "type": "string"
        },
        {
          "name": "",
          "type": "string"
        },
        {
          "name": "",
          "type": "uint256"
        },
        {
          "name": "",
          "type": "string"
        }
      ],
      "payable": false,
      "stateMutability": "view",
      "type": "function"
    },
    {
      "constant": true,
      "inputs": [
        {
          "name": "_rid",
          "type": "uint256"
        },
        {
          "name": "_itr",
          "type": "uint256"
        }
      ],
      "name": "getRecruitersStudents",
      "outputs": [
        {
          "name": "",
          "type": "uint256"
        }
      ],
      "payable": false,
      "stateMutability": "view",
      "type": "function"
    },
    {
      "constant": false,
      "inputs": [
        {
          "name": "_rid",
          "type": "uint256"
        },
        {
          "name": "_sid",
          "type": "uint256"
        }
      ],
      "name": "setRecruiterStudents",
      "outputs": [],
      "payable": false,
      "stateMutability": "nonpayable",
      "type": "function"
    },
    {
      "constant": true,
      "inputs": [
        {
          "name": "_rid",
          "type": "uint256"
        }
      ],
      "name": "getRecruitersStudentsCount",
      "outputs": [
        {
          "name": "",
          "type": "uint256"
        }
      ],
      "payable": false,
      "stateMutability": "view",
      "type": "function"
    },
    {
      "constant": false,
      "inputs": [
        {
          "name": "Type",
          "type": "uint256"
        },
        {
          "name": "_instituteName",
          "type": "string"
        },
        {
          "name": "_password",
          "type": "string"
        },
        {
          "name": "phone",
          "type": "string"
        },
        {
          "name": "_addressInstitute",
          "type": "string"
        }
      ],
      "name": "addInstitute",
      "outputs": [],
      "payable": false,
      "stateMutability": "nonpayable",
      "type": "function"
    },
    {
      "constant": false,
      "inputs": [
        {
          "name": "sid",
          "type": "uint256"
        }
      ],
      "name": "SetStudentVerification",
      "outputs": [],
      "payable": false,
      "stateMutability": "nonpayable",
      "type": "function"
    }
  ],
  "bytecode": "0x60806040523480156200001157600080fd5b506200014160006040805190810160405280600781526020017f76696e6179616b000000000000000000000000000000000000000000000000008152506040805190810160405280600881526020017f61626364656667680000000000000000000000000000000000000000000000008152506040805190810160405280600881526020017f312d312d323030300000000000000000000000000000000000000000000000008152506040805190810160405280600b81526020017f6162634078797a2e636f6d0000000000000000000000000000000000000000008152506040805190810160405280600a81526020017f313233343536373839300000000000000000000000000000000000000000000081525060006064600062000333640100000000026401000000009004565b6200023a60016040805190810160405280600281526020017f6d790000000000000000000000000000000000000000000000000000000000008152506040805190810160405280600481526020017f636f6465000000000000000000000000000000000000000000000000000000008152506040805190810160405280600581526020017f48656b6b6f000000000000000000000000000000000000000000000000000000815250640223f0f8136040805190810160405280600b81526020017f78797a406162632e636f6d000000000000000000000000000000000000000000815250620004d8640100000000026401000000009004565b6200032d60026040805190810160405280600481526020017f766a7469000000000000000000000000000000000000000000000000000000008152506040805190810160405280600881526020017f61626364656667680000000000000000000000000000000000000000000000008152506040805190810160405280600a81526020017f31323334353637383930000000000000000000000000000000000000000000008152506040805190810160405280600681526020017f6d756d6261690000000000000000000000000000000000000000000000000000815250620005c8640100000000026401000000009004565b62000756565b600360008154809291906001019190505550610120604051908101604052808a81526020018981526020018881526020018781526020018681526020018581526020018473ffffffffffffffffffffffffffffffffffffffff168152602001838152602001821515815250600260006003548152602001908152602001600020600082015181600001556020820151816001019080519060200190620003db929190620006a7565b506040820151816002019080519060200190620003fa929190620006a7565b50606082015181600301908051906020019062000419929190620006a7565b50608082015181600401908051906020019062000438929190620006a7565b5060a082015181600501908051906020019062000457929190620006a7565b5060c08201518160060160006101000a81548173ffffffffffffffffffffffffffffffffffffffff021916908373ffffffffffffffffffffffffffffffffffffffff16021790555060e082015181600701556101008201518160080160006101000a81548160ff021916908315150217905550905050505050505050505050565b60046000815480929190600101919050555060c0604051908101604052808781526020018681526020018581526020018481526020018381526020018281525060056000600454815260200190815260200160002060008201518160000155602082015181600101908051906020019062000555929190620006a7565b50604082015181600201908051906020019062000574929190620006a7565b50606082015181600301908051906020019062000593929190620006a7565b506080820151816004015560a0820151816005019080519060200190620005bc929190620006a7565b50905050505050505050565b60086000815480929190600101919050555060a060405190810160405280868152602001858152602001848152602001838152602001828152506009600060085481526020019081526020016000206000820151816000015560208201518160010190805190602001906200063f929190620006a7565b5060408201518160020190805190602001906200065e929190620006a7565b5060608201518160030190805190602001906200067d929190620006a7565b5060808201518160040190805190602001906200069c929190620006a7565b509050505050505050565b828054600181600116156101000203166002900490600052602060002090601f016020900481019282601f10620006ea57805160ff19168380011785556200071b565b828001600101855582156200071b579182015b828111156200071a578251825591602001919060010190620006fd565b5b5090506200072a91906200072e565b5090565b6200075391905b808211156200074f57600081600090555060010162000735565b5090565b90565b61222b80620007666000396000f300608060405260043610610112576000357c0100000000000000000000000000000000000000000000000000000000900463ffffffff16806306ead22e146101175780631e98fd1c146103b957806325a83771146103fa57806329050928146104255780632d9de472146104705780633d025bfc1461049d57806355cbc38f146104ca57806357870f35146105015780635eb4ba7a146106f957806368433a3a1461073a5780637865a1b61461076557806390ee20b0146108aa578063980323a314610a9b578063b05aebd414610bea578063dcf0de7314610dab578063e7ae5d5514610dec578063ebbb886f14610e17578063f6eebb0414610e44578063fbbf93a014610e8f578063fefb21a414611071575b600080fd5b34801561012357600080fd5b506101426004803603810190808035906020019092919050505061109c565b604051808a815260200180602001806020018060200180602001806020018973ffffffffffffffffffffffffffffffffffffffff1673ffffffffffffffffffffffffffffffffffffffff1681526020018881526020018715151515815260200186810386528e818151815260200191508051906020019080838360005b838110156101da5780820151818401526020810190506101bf565b50505050905090810190601f1680156102075780820380516001836020036101000a031916815260200191505b5086810385528d818151815260200191508051906020019080838360005b83811015610240578082015181840152602081019050610225565b50505050905090810190601f16801561026d5780820380516001836020036101000a031916815260200191505b5086810384528c818151815260200191508051906020019080838360005b838110156102a657808201518184015260208101905061028b565b50505050905090810190601f1680156102d35780820380516001836020036101000a031916815260200191505b5086810383528b818151815260200191508051906020019080838360005b8381101561030c5780820151818401526020810190506102f1565b50505050905090810190601f1680156103395780820380516001836020036101000a031916815260200191505b5086810382528a818151815260200191508051906020019080838360005b83811015610372578082015181840152602081019050610357565b50505050905090810190601f16801561039f5780820380516001836020036101000a031916815260200191505b509e50505050505050505050505050505060405180910390f35b3480156103c557600080fd5b506103e46004803603810190808035906020019092919050505061140f565b6040518082815260200191505060405180910390f35b34801561040657600080fd5b5061040f611427565b6040518082815260200191505060405180910390f35b34801561043157600080fd5b5061045a600480360381019080803590602001909291908035906020019092919050505061142d565b6040518082815260200191505060405180910390f35b34801561047c57600080fd5b5061049b60048036038101908080359060200190929190505050611462565b005b3480156104a957600080fd5b506104c860048036038101908080359060200190929190505050611494565b005b3480156104d657600080fd5b506104ff60048036038101908080359060200190929190803590602001909291905050506114c6565b005b34801561050d57600080fd5b5061052c60048036038101908080359060200190929190505050611507565b604051808781526020018060200180602001806020018681526020018060200185810385528a818151815260200191508051906020019080838360005b83811015610584578082015181840152602081019050610569565b50505050905090810190601f1680156105b15780820380516001836020036101000a031916815260200191505b50858103845289818151815260200191508051906020019080838360005b838110156105ea5780820151818401526020810190506105cf565b50505050905090810190601f1680156106175780820380516001836020036101000a031916815260200191505b50858103835288818151815260200191508051906020019080838360005b83811015610650578082015181840152602081019050610635565b50505050905090810190601f16801561067d5780820380516001836020036101000a031916815260200191505b50858103825286818151815260200191508051906020019080838360005b838110156106b657808201518184015260208101905061069b565b50505050905090810190601f1680156106e35780820380516001836020036101000a031916815260200191505b509a505050505050505050505060405180910390f35b34801561070557600080fd5b50610724600480360381019080803590602001909291905050506117a3565b6040518082815260200191505060405180910390f35b34801561074657600080fd5b5061074f6117c3565b6040518082815260200191505060405180910390f35b34801561077157600080fd5b506108a860048036038101908080359060200190929190803590602001908201803590602001908080601f0160208091040260200160405190810160405280939291908181526020018383808284378201915050505050509192919290803590602001908201803590602001908080601f0160208091040260200160405190810160405280939291908181526020018383808284378201915050505050509192919290803590602001908201803590602001908080601f0160208091040260200160405190810160405280939291908181526020018383808284378201915050505050509192919290803590602001908201803590602001908080601f01602080910402602001604051908101604052809392919081815260200183838082843782019150505050505091929192905050506117c9565b005b3480156108b657600080fd5b506108d5600480360381019080803590602001909291905050506118a0565b6040518086815260200180602001806020018060200180602001858103855289818151815260200191508051906020019080838360005b8381101561092757808201518184015260208101905061090c565b50505050905090810190601f1680156109545780820380516001836020036101000a031916815260200191505b50858103845288818151815260200191508051906020019080838360005b8381101561098d578082015181840152602081019050610972565b50505050905090810190601f1680156109ba5780820380516001836020036101000a031916815260200191505b50858103835287818151815260200191508051906020019080838360005b838110156109f35780820151818401526020810190506109d8565b50505050905090810190601f168015610a205780820380516001836020036101000a031916815260200191505b50858103825286818151815260200191508051906020019080838360005b83811015610a59578082015181840152602081019050610a3e565b50505050905090810190601f168015610a865780820380516001836020036101000a031916815260200191505b50995050505050505050505060405180910390f35b348015610aa757600080fd5b50610be860048036038101908080359060200190929190803590602001908201803590602001908080601f0160208091040260200160405190810160405280939291908181526020018383808284378201915050505050509192919290803590602001908201803590602001908080601f0160208091040260200160405190810160405280939291908181526020018383808284378201915050505050509192919290803590602001908201803590602001908080601f016020809104026020016040519081016040528093929190818152602001838380828437820191505050505050919291929080359060200190929190803590602001908201803590602001908080601f0160208091040260200160405190810160405280939291908181526020018383808284378201915050505050509192919290505050611b36565b005b348015610bf657600080fd5b50610da960048036038101908080359060200190929190803590602001908201803590602001908080601f0160208091040260200160405190810160405280939291908181526020018383808284378201915050505050509192919290803590602001908201803590602001908080601f0160208091040260200160405190810160405280939291908181526020018383808284378201915050505050509192919290803590602001908201803590602001908080601f0160208091040260200160405190810160405280939291908181526020018383808284378201915050505050509192919290803590602001908201803590602001908080601f0160208091040260200160405190810160405280939291908181526020018383808284378201915050505050509192919290803590602001908201803590602001908080601f0160208091040260200160405190810160405280939291908181526020018383808284378201915050505050509192919290803573ffffffffffffffffffffffffffffffffffffffff16906020019092919080359060200190929190803515159060200190929190505050611c1e565b005b348015610db757600080fd5b50610dd660048036038101908080359060200190929190505050611db9565b6040518082815260200191505060405180910390f35b348015610df857600080fd5b50610e01611dd5565b6040518082815260200191505060405180910390f35b348015610e2357600080fd5b50610e4260048036038101908080359060200190929190505050611ddb565b005b348015610e5057600080fd5b50610e796004803603810190808035906020019092919080359060200190929190505050611e09565b6040518082815260200191505060405180910390f35b348015610e9b57600080fd5b50610ea4611e39565b604051808781526020018060200180602001806020018681526020018060200185810385528a818151815260200191508051906020019080838360005b83811015610efc578082015181840152602081019050610ee1565b50505050905090810190601f168015610f295780820380516001836020036101000a031916815260200191505b50858103845289818151815260200191508051906020019080838360005b83811015610f62578082015181840152602081019050610f47565b50505050905090810190601f168015610f8f5780820380516001836020036101000a031916815260200191505b50858103835288818151815260200191508051906020019080838360005b83811015610fc8578082015181840152602081019050610fad565b50505050905090810190601f168015610ff55780820380516001836020036101000a031916815260200191505b50858103825286818151815260200191508051906020019080838360005b8381101561102e578082015181840152602081019050611013565b50505050905090810190601f16801561105b5780820380516001836020036101000a031916815260200191505b509a505050505050505050505060405180910390f35b34801561107d57600080fd5b50611086612154565b6040518082815260200191505060405180910390f35b6002602052806000526040600020600091509050806000015490806001018054600181600116156101000203166002900480601f01602080910402602001604051908101604052809291908181526020018280546001816001161561010002031660029004801561114e5780601f106111235761010080835404028352916020019161114e565b820191906000526020600020905b81548152906001019060200180831161113157829003601f168201915b505050505090806002018054600181600116156101000203166002900480601f0160208091040260200160405190810160405280929190818152602001828054600181600116156101000203166002900480156111ec5780601f106111c1576101008083540402835291602001916111ec565b820191906000526020600020905b8154815290600101906020018083116111cf57829003601f168201915b505050505090806003018054600181600116156101000203166002900480601f01602080910402602001604051908101604052809291908181526020018280546001816001161561010002031660029004801561128a5780601f1061125f5761010080835404028352916020019161128a565b820191906000526020600020905b81548152906001019060200180831161126d57829003601f168201915b505050505090806004018054600181600116156101000203166002900480601f0160208091040260200160405190810160405280929190818152602001828054600181600116156101000203166002900480156113285780601f106112fd57610100808354040283529160200191611328565b820191906000526020600020905b81548152906001019060200180831161130b57829003601f168201915b505050505090806005018054600181600116156101000203166002900480601f0160208091040260200160405190810160405280929190818152602001828054600181600116156101000203166002900480156113c65780601f1061139b576101008083540402835291602001916113c6565b820191906000526020600020905b8154815290600101906020018083116113a957829003601f168201915b5050505050908060060160009054906101000a900473ffffffffffffffffffffffffffffffffffffffff16908060070154908060080160009054906101000a900460ff16905089565b60006020528060005260406000206000915090505481565b60065481565b6000600760008481526020019081526020016000208281548110151561144f57fe5b9060005260206000200154905092915050565b60016002600083815260200190815260200160002060080160006101000a81548160ff02191690831515021790555050565b60016002600083815260200190815260200160002060080160006101000a81548160ff02191690831515021790555050565b600760008381526020019081526020016000208190806001815401808255809150509060018203906000526020600020016000909192909190915055505050565b6005602052806000526040600020600091509050806000015490806001018054600181600116156101000203166002900480601f0160208091040260200160405190810160405280929190818152602001828054600181600116156101000203166002900480156115b95780601f1061158e576101008083540402835291602001916115b9565b820191906000526020600020905b81548152906001019060200180831161159c57829003601f168201915b505050505090806002018054600181600116156101000203166002900480601f0160208091040260200160405190810160405280929190818152602001828054600181600116156101000203166002900480156116575780601f1061162c57610100808354040283529160200191611657565b820191906000526020600020905b81548152906001019060200180831161163a57829003601f168201915b505050505090806003018054600181600116156101000203166002900480601f0160208091040260200160405190810160405280929190818152602001828054600181600116156101000203166002900480156116f55780601f106116ca576101008083540402835291602001916116f5565b820191906000526020600020905b8154815290600101906020018083116116d857829003601f168201915b505050505090806004015490806005018054600181600116156101000203166002900480601f0160208091040260200160405190810160405280929190818152602001828054600181600116156101000203166002900480156117995780601f1061176e57610100808354040283529160200191611799565b820191906000526020600020905b81548152906001019060200180831161177c57829003601f168201915b5050505050905086565b600060076000838152602001908152602001600020805490509050919050565b60035481565b60086000815480929190600101919050555060a0604051908101604052808681526020018581526020018481526020018381526020018281525060096000600854815260200190815260200160002060008201518160000155602082015181600101908051906020019061183e92919061215a565b50604082015181600201908051906020019061185b92919061215a565b50606082015181600301908051906020019061187892919061215a565b50608082015181600401908051906020019061189592919061215a565b509050505050505050565b6009602052806000526040600020600091509050806000015490806001018054600181600116156101000203166002900480601f0160208091040260200160405190810160405280929190818152602001828054600181600116156101000203166002900480156119525780601f1061192757610100808354040283529160200191611952565b820191906000526020600020905b81548152906001019060200180831161193557829003601f168201915b505050505090806002018054600181600116156101000203166002900480601f0160208091040260200160405190810160405280929190818152602001828054600181600116156101000203166002900480156119f05780601f106119c5576101008083540402835291602001916119f0565b820191906000526020600020905b8154815290600101906020018083116119d357829003601f168201915b505050505090806003018054600181600116156101000203166002900480601f016020809104026020016040519081016040528092919081815260200182805460018160011615610100020316600290048015611a8e5780601f10611a6357610100808354040283529160200191611a8e565b820191906000526020600020905b815481529060010190602001808311611a7157829003601f168201915b505050505090806004018054600181600116156101000203166002900480601f016020809104026020016040519081016040528092919081815260200182805460018160011615610100020316600290048015611b2c5780601f10611b0157610100808354040283529160200191611b2c565b820191906000526020600020905b815481529060010190602001808311611b0f57829003601f168201915b5050505050905085565b60046000815480929190600101919050555060c06040519081016040528087815260200186815260200185815260200184815260200183815260200182815250600560006004548152602001908152602001600020600082015181600001556020820151816001019080519060200190611bb192919061215a565b506040820151816002019080519060200190611bce92919061215a565b506060820151816003019080519060200190611beb92919061215a565b506080820151816004015560a0820151816005019080519060200190611c1292919061215a565b50905050505050505050565b600360008154809291906001019190505550610120604051908101604052808a81526020018981526020018881526020018781526020018681526020018581526020018473ffffffffffffffffffffffffffffffffffffffff168152602001838152602001821515815250600260006003548152602001908152602001600020600082015181600001556020820151816001019080519060200190611cc492919061215a565b506040820151816002019080519060200190611ce192919061215a565b506060820151816003019080519060200190611cfe92919061215a565b506080820151816004019080519060200190611d1b92919061215a565b5060a0820151816005019080519060200190611d3892919061215a565b5060c08201518160060160006101000a81548173ffffffffffffffffffffffffffffffffffffffff021916908373ffffffffffffffffffffffffffffffffffffffff16021790555060e082015181600701556101008201518160080160006101000a81548160ff021916908315150217905550905050505050505050505050565b6000806000838152602001908152602001600020549050919050565b60045481565b6001600081548092919060010191905055508060008060015481526020019081526020016000208190555050565b600760205281600052604060002081815481101515611e2457fe5b90600052602060002001600091509150505481565b60006060806060600060606005600060018152602001908152602001600020600001546005600060018152602001908152602001600020600101600560006001815260200190815260200160002060020160056000600181526020019081526020016000206003016005600060018152602001908152602001600020600401546005600060018152602001908152602001600020600501848054600181600116156101000203166002900480601f016020809104026020016040519081016040528092919081815260200182805460018160011615610100020316600290048015611f655780601f10611f3a57610100808354040283529160200191611f65565b820191906000526020600020905b815481529060010190602001808311611f4857829003601f168201915b50505050509450838054600181600116156101000203166002900480601f0160208091040260200160405190810160405280929190818152602001828054600181600116156101000203166002900480156120015780601f10611fd657610100808354040283529160200191612001565b820191906000526020600020905b815481529060010190602001808311611fe457829003601f168201915b50505050509350828054600181600116156101000203166002900480601f01602080910402602001604051908101604052809291908181526020018280546001816001161561010002031660029004801561209d5780601f106120725761010080835404028352916020019161209d565b820191906000526020600020905b81548152906001019060200180831161208057829003601f168201915b50505050509250808054600181600116156101000203166002900480601f0160208091040260200160405190810160405280929190818152602001828054600181600116156101000203166002900480156121395780601f1061210e57610100808354040283529160200191612139565b820191906000526020600020905b81548152906001019060200180831161211c57829003601f168201915b50505050509050955095509550955095509550909192939495565b60085481565b828054600181600116156101000203166002900490600052602060002090601f016020900481019282601f1061219b57805160ff19168380011785556121c9565b828001600101855582156121c9579182015b828111156121c85782518255916020019190600101906121ad565b5b5090506121d691906121da565b5090565b6121fc91905b808211156121f85760008160009055506001016121e0565b5090565b905600a165627a7a72305820210956fb099df3a00511494c50936b44b3a8d32fd7fe839f2eeca4d8a46055050029",
  "source": "pragma solidity ^0.4.19;\r\n\r\n/// TYPE 1- STUDENT , 2 - Recruiter 3 - institute\r\n\r\n\r\ncontract IDMS{\r\n\tstruct studentProfile{\r\n\t\t//string username;\r\n\t\tuint Type;\r\n\t\tstring name;\r\n\t\tstring password;\r\n\t\tstring dob;\r\n\t\tstring email;\r\n\t\tstring phone;\r\n\t\taddress institute;\r\n\t\tuint marks;\r\n\r\n\t\t/* verification info */\r\n\t\tbool isVerified;\r\n\t}\r\n\r\n\t/*student address to their account*/\r\n\r\n\t/*mapping(address => studentProfile) public students;*/\r\n\r\n\r\n\tmapping( /*address*/uint =>uint) public Users;\r\n\tuint UsersCount;\r\n\r\n\r\n\tmapping(uint => studentProfile) public students;\r\n\tuint public studentsCount;\r\n\r\n\t\r\n\tfunction SetUsers(uint _t) public {\r\n\t\tUsersCount++;\r\n\t\tUsers[/*msg.sender*/UsersCount] = _t;\r\n\t}\r\n\r\n\r\n\tfunction GetUsers(uint/*address*/ addr) returns (/*address*/uint){\r\n\t\treturn(Users[addr]);\r\n\t}\r\n\r\n\r\n\r\n\r\n\tconstructor() public {\r\n\t\t\r\n\t\taddStudent(0,\"vinayak\",\"abcdefgh\",\"1-1-2000\",\"abc@xyz.com\",\"1234567890\",0x0,100,false);\r\n\t\taddRecruiter(1,\"my\",\"code\",\"Hekko\",9192929299,\"xyz@abc.com\");\r\n\t\taddInstitute(2,\"vjti\",\"abcdefgh\",\"1234567890\",\"mumbai\");\r\n\t}\r\n\r\n\tfunction addStudent(uint Type,string _name, string _password, string _dob, string _email, string _phone,\r\n\t\t\t address _institute, uint _marks, bool _isVerified) public {\r\n\t\tstudentsCount++;\r\n\t\tstudents[studentsCount/*msg.sender*/]=\r\n\t\t\tstudentProfile(Type,_name,  _password, _dob, _email, _phone, _institute, _marks, _isVerified);\r\n\t}\r\n\r\n\tfunction setVerified(uint _id) public{\r\n\t\t/*some checking or manually calling this function to set the value below as true */\r\n\t\tstudents[_id/*msg.sender*/].isVerified=true;\r\n\t}\r\n\r\n\t//----------------------------------------------------------------------------------------------------------------------------\r\n\tstruct Recruit {\r\n\t\tuint Type;\r\n\t\tstring username;\r\n\t\tstring password;\r\n\t\tstring OrganisationName;\r\n\t\tuint256 Contact;\r\n\t\tstring OrganisationMail;\r\n\t}\r\n\r\n\r\n\t//address RecruiterAddress;\r\n\t\r\n\r\n\tuint public RecruiterCount;\r\n\tmapping(/*RecruiterAddress*/uint=>Recruit) public RecruiterId;\r\n\t\r\n\t//uint public recruitersStudentsCount;\r\n\t//mapping(uint /*recruiters (adddress)*/ => studentProfile\t) recruitersStudents;\r\n\r\n\tfunction addRecruiter(uint Type,string username,string password,string _name,uint256 _contact,string _organisationname) public{\r\n\t\tRecruiterCount++;\r\n\t\tRecruiterId[/*msg.sender*/RecruiterCount] = Recruit(Type,username,password,_name,_contact,_organisationname);\r\n\t}\r\n\r\n\tfunction getDetails() public view returns(uint,string,string,string,uint256,string){\r\n\t\treturn(RecruiterId[1].Type,RecruiterId[1].username,RecruiterId[1].password,RecruiterId[1].OrganisationName,RecruiterId[1].Contact,RecruiterId[1].OrganisationMail);\r\n\t}\r\n\r\n\tuint public recruitersStudentsCount;\r\n\tmapping(uint/*recruiter address*/ => uint[] /*student address*/) public recruitersStudents;\r\n\r\n\tfunction getRecruitersStudents(uint _rid, uint _itr) public view returns(uint/*student address*/){\r\n\t\treturn recruitersStudents[_rid][_itr];\r\n\t}\r\n\r\n\tfunction setRecruiterStudents(uint _rid, uint _sid) public {\r\n\t\trecruitersStudents[_rid].push(_sid);\r\n\t}\r\n\r\n\tfunction getRecruitersStudentsCount (uint _rid) public view returns(uint) {\r\n\t\treturn recruitersStudents[_rid].length;\r\n\t}\r\n\t\r\n\r\n\t// function getRecruitersStudentsCount(uint _rId)public view returns(uint){\r\n\t// \treturn recruitersStudents[_rId].length;\r\n\t// }\r\n\r\n\t// function getRecruitersStudents(uint _rId, uint _i) public view \r\n\t// returns(uint , string , string , string , string , string ,address , uint ,bool ) {\r\n\t// \tstudentProfile s=recruitersStudents[_rId ][_i];\r\n\t\t\r\n\t// \t//return (s[0],s[1],s[2],s[3],s[4],s[5],s[6],s[7],s[8]);\r\n\t// \t\t\t.Type,\r\n\t// \t\t\trecruitersStudents[_rId ][_i].name,\r\n\t// \t\t\trecruitersStudents[_rId ][_i].password,\r\n\t// \t\t\trecruitersStudents[_rId ][_i].dob,\r\n\t// \t\t\trecruitersStudents[_rId ][_i].email,\r\n\t// \t\t\trecruitersStudents[_rId ][_i].phone,\r\n\t// \t\t\trecruitersStudents[_rId ][_i].institute,\r\n\t// \t\t\trecruitersStudents[_rId ][_i].marks,\r\n\t// \t\t\trecruitersStudents[_rId ][_i].isVerified\r\n\t\t\t\t\r\n\t// \t\t);\r\n\t// }\r\n\r\n\t// function setRecruiterStudents(uint _rId, uint _sId){\r\n\t// \trecruitersStudents[_rId].push(students[_sId/*msg.sender*/]);\r\n\r\n\t// }\r\n\r\n\t//----------------------------------------------------------------------------------------------------------------------------\r\n\t\t\r\n\r\n\r\n\tstruct InstituteStr{\r\n\t\tuint Type;\r\n\t\tstring instituteName;\r\n\t\tstring password;\r\n\t\tstring phone; \r\n\t\tstring addressInstitute;\r\n\t}\r\n\r\n\tuint public instituteCount;\r\n\tmapping(/*institute Address (address)*/uint=>InstituteStr) public institutes;\r\n\r\n\t\r\n\tfunction addInstitute(uint Type,string _instituteName, string _password, string phone, string _addressInstitute) public {\r\n\t\tinstituteCount++;\r\n\t\tinstitutes[/*msg.sender*/instituteCount] \r\n\t\t\t= InstituteStr(Type,_instituteName, _password, phone, _addressInstitute );\t\r\n\t}\r\n\r\n\tfunction SetStudentVerification(/*address*/uint sid) public {\r\n\t\tstudents[sid].isVerified=true;\t\r\n\t\t\t/*IDMS.deployed().then(function(i){app = i;}\r\n\r\n\r\n\r\n\t\t\t);*/\r\n\t}\r\n\r\n}",
  "sourcePath": "C:\\Users\\Ameya\\Documents\\BlockChain\\BCbackup\\GBH2k18\\contracts\\IDMS.sol",
  "compiler": {
    "name": "solc",
    "version": "0.4.24+commit.e67f0147.Emscripten.clang"
  },
  "schemaVersion": "2.0.1",
  "updatedAt": "2018-12-21T16:05:10.537Z"
}