{
  "contractName": "IDMS",
  "abi": [
    {
      "constant": true,
      "inputs": [
        {
          "name": "",
          "type": "uint256"
        }
      ],
      "name": "students",
      "outputs": [
        {
          "name": "Type",
          "type": "uint256"
        },
        {
          "name": "name",
          "type": "string"
        },
        {
          "name": "password",
          "type": "string"
        },
        {
          "name": "dob",
          "type": "string"
        },
        {
          "name": "email",
          "type": "string"
        },
        {
          "name": "phone",
          "type": "string"
        },
        {
          "name": "institute",
          "type": "address"
        },
        {
          "name": "marks",
          "type": "uint256"
        },
        {
          "name": "isVerified",
          "type": "bool"
        }
      ],
      "payable": false,
      "stateMutability": "view",
      "type": "function"
    },
    {
      "constant": true,
      "inputs": [
        {
          "name": "",
          "type": "uint256"
        }
      ],
      "name": "Users",
      "outputs": [
        {
          "name": "",
          "type": "uint256"
        }
      ],
      "payable": false,
      "stateMutability": "view",
      "type": "function"
    },
    {
      "constant": true,
      "inputs": [],
      "name": "recruitersStudentsCount",
      "outputs": [
        {
          "name": "",
          "type": "uint256"
        }
      ],
      "payable": false,
      "stateMutability": "view",
      "type": "function"
    },
    {
      "constant": true,
      "inputs": [
        {
          "name": "",
          "type": "uint256"
        }
      ],
      "name": "RecruiterToAccount",
      "outputs": [
        {
          "name": "",
          "type": "address"
        }
      ],
      "payable": false,
      "stateMutability": "view",
      "type": "function"
    },
    {
      "constant": true,
      "inputs": [
        {
          "name": "",
          "type": "uint256"
        }
      ],
      "name": "RecruiterId",
      "outputs": [
        {
          "name": "Type",
          "type": "uint256"
        },
        {
          "name": "username",
          "type": "string"
        },
        {
          "name": "password",
          "type": "string"
        },
        {
          "name": "OrganisationName",
          "type": "string"
        },
        {
          "name": "Contact",
          "type": "uint256"
        },
        {
          "name": "OrganisationMail",
          "type": "string"
        }
      ],
      "payable": false,
      "stateMutability": "view",
      "type": "function"
    },
    {
      "constant": true,
      "inputs": [],
      "name": "studentsCount",
      "outputs": [
        {
          "name": "",
          "type": "uint256"
        }
      ],
      "payable": false,
      "stateMutability": "view",
      "type": "function"
    },
    {
      "constant": true,
      "inputs": [
        {
          "name": "",
          "type": "uint256"
        }
      ],
      "name": "institutes",
      "outputs": [
        {
          "name": "Type",
          "type": "uint256"
        },
        {
          "name": "instituteName",
          "type": "string"
        },
        {
          "name": "password",
          "type": "string"
        },
        {
          "name": "phone",
          "type": "string"
        },
        {
          "name": "addressInstitute",
          "type": "string"
        }
      ],
      "payable": false,
      "stateMutability": "view",
      "type": "function"
    },
    {
      "constant": true,
      "inputs": [],
      "name": "RecruiterCount",
      "outputs": [
        {
          "name": "",
          "type": "uint256"
        }
      ],
      "payable": false,
      "stateMutability": "view",
      "type": "function"
    },
    {
      "constant": true,
      "inputs": [
        {
          "name": "",
          "type": "uint256"
        },
        {
          "name": "",
          "type": "uint256"
        }
      ],
      "name": "recruitersStudents",
      "outputs": [
        {
          "name": "",
          "type": "uint256"
        }
      ],
      "payable": false,
      "stateMutability": "view",
      "type": "function"
    },
    {
      "constant": true,
      "inputs": [],
      "name": "instituteCount",
      "outputs": [
        {
          "name": "",
          "type": "uint256"
        }
      ],
      "payable": false,
      "stateMutability": "view",
      "type": "function"
    },
    {
      "inputs": [],
      "payable": false,
      "stateMutability": "nonpayable",
      "type": "constructor"
    },
    {
      "constant": false,
      "inputs": [
        {
          "name": "_t",
          "type": "uint256"
        }
      ],
      "name": "SetUsers",
      "outputs": [],
      "payable": false,
      "stateMutability": "nonpayable",
      "type": "function"
    },
    {
      "constant": false,
      "inputs": [
        {
          "name": "addr",
          "type": "uint256"
        }
      ],
      "name": "GetUsers",
      "outputs": [
        {
          "name": "",
          "type": "uint256"
        }
      ],
      "payable": false,
      "stateMutability": "nonpayable",
      "type": "function"
    },
    {
      "constant": false,
      "inputs": [
        {
          "name": "Type",
          "type": "uint256"
        },
        {
          "name": "_name",
          "type": "string"
        },
        {
          "name": "_password",
          "type": "string"
        },
        {
          "name": "_dob",
          "type": "string"
        },
        {
          "name": "_email",
          "type": "string"
        },
        {
          "name": "_phone",
          "type": "string"
        },
        {
          "name": "_institute",
          "type": "address"
        },
        {
          "name": "_marks",
          "type": "uint256"
        },
        {
          "name": "_isVerified",
          "type": "bool"
        }
      ],
      "name": "addStudent",
      "outputs": [],
      "payable": false,
      "stateMutability": "nonpayable",
      "type": "function"
    },
    {
      "constant": false,
      "inputs": [
        {
          "name": "i",
          "type": "uint256"
        }
      ],
      "name": "getStudent",
      "outputs": [
        {
          "name": "",
          "type": "uint256"
        },
        {
          "name": "",
          "type": "string"
        },
        {
          "name": "",
          "type": "string"
        },
        {
          "name": "",
          "type": "string"
        },
        {
          "name": "",
          "type": "string"
        },
        {
          "name": "",
          "type": "uint256"
        },
        {
          "name": "",
          "type": "bool"
        }
      ],
      "payable": false,
      "stateMutability": "nonpayable",
      "type": "function"
    },
    {
      "constant": false,
      "inputs": [
        {
          "name": "_id",
          "type": "uint256"
        }
      ],
      "name": "setVerified",
      "outputs": [],
      "payable": false,
      "stateMutability": "nonpayable",
      "type": "function"
    },
    {
      "constant": false,
      "inputs": [
        {
          "name": "Type",
          "type": "uint256"
        },
        {
          "name": "username",
          "type": "string"
        },
        {
          "name": "password",
          "type": "string"
        },
        {
          "name": "_name",
          "type": "string"
        },
        {
          "name": "_contact",
          "type": "uint256"
        },
        {
          "name": "_organisationname",
          "type": "string"
        }
      ],
      "name": "addRecruiter",
      "outputs": [],
      "payable": false,
      "stateMutability": "nonpayable",
      "type": "function"
    },
    {
      "constant": true,
      "inputs": [
        {
          "name": "i",
          "type": "uint256"
        }
      ],
      "name": "getDetails",
      "outputs": [
        {
          "name": "",
          "type": "uint256"
        },
        {
          "name": "",
          "type": "string"
        },
        {
          "name": "",
          "type": "string"
        },
        {
          "name": "",
          "type": "string"
        },
        {
          "name": "",
          "type": "uint256"
        },
        {
          "name": "",
          "type": "string"
        }
      ],
      "payable": false,
      "stateMutability": "view",
      "type": "function"
    },
    {
      "constant": true,
      "inputs": [
        {
          "name": "_rid",
          "type": "uint256"
        },
        {
          "name": "_itr",
          "type": "uint256"
        }
      ],
      "name": "getRecruitersStudents",
      "outputs": [
        {
          "name": "",
          "type": "uint256"
        }
      ],
      "payable": false,
      "stateMutability": "view",
      "type": "function"
    },
    {
      "constant": false,
      "inputs": [
        {
          "name": "_rid",
          "type": "uint256"
        },
        {
          "name": "_sid",
          "type": "uint256"
        }
      ],
      "name": "setRecruiterStudents",
      "outputs": [],
      "payable": false,
      "stateMutability": "nonpayable",
      "type": "function"
    },
    {
      "constant": true,
      "inputs": [
        {
          "name": "_rid",
          "type": "uint256"
        }
      ],
      "name": "getRecruitersStudentsCount",
      "outputs": [
        {
          "name": "",
          "type": "uint256"
        }
      ],
      "payable": false,
      "stateMutability": "view",
      "type": "function"
    },
    {
      "constant": false,
      "inputs": [
        {
          "name": "Type",
          "type": "uint256"
        },
        {
          "name": "_instituteName",
          "type": "string"
        },
        {
          "name": "_password",
          "type": "string"
        },
        {
          "name": "phone",
          "type": "string"
        },
        {
          "name": "_addressInstitute",
          "type": "string"
        }
      ],
      "name": "addInstitute",
      "outputs": [],
      "payable": false,
      "stateMutability": "nonpayable",
      "type": "function"
    },
    {
      "constant": false,
      "inputs": [
        {
          "name": "sid",
          "type": "uint256"
        }
      ],
      "name": "SetStudentVerification",
      "outputs": [],
      "payable": false,
      "stateMutability": "nonpayable",
      "type": "function"
    }
  ],
  "bytecode": "0x60806040523480156200001157600080fd5b506200014160006040805190810160405280600781526020017f76696e6179616b000000000000000000000000000000000000000000000000008152506040805190810160405280600881526020017f61626364656667680000000000000000000000000000000000000000000000008152506040805190810160405280600881526020017f312d312d323030300000000000000000000000000000000000000000000000008152506040805190810160405280600b81526020017f6162634078797a2e636f6d0000000000000000000000000000000000000000008152506040805190810160405280600a81526020017f313233343536373839300000000000000000000000000000000000000000000081525060006064600062000333640100000000026401000000009004565b6200023a60016040805190810160405280600281526020017f6d790000000000000000000000000000000000000000000000000000000000008152506040805190810160405280600481526020017f636f6465000000000000000000000000000000000000000000000000000000008152506040805190810160405280600581526020017f48656b6b6f000000000000000000000000000000000000000000000000000000815250640223f0f8136040805190810160405280600b81526020017f78797a406162632e636f6d0000000000000000000000000000000000000000008152506200052c640100000000026401000000009004565b6200032d60026040805190810160405280600481526020017f766a7469000000000000000000000000000000000000000000000000000000008152506040805190810160405280600881526020017f61626364656667680000000000000000000000000000000000000000000000008152506040805190810160405280600a81526020017f31323334353637383930000000000000000000000000000000000000000000008152506040805190810160405280600681526020017f6d756d626169000000000000000000000000000000000000000000000000000081525062000670640100000000026401000000009004565b620007fe565b600460008154809291906001019190505550610120604051908101604052808a81526020018981526020018881526020018781526020018681526020018581526020018473ffffffffffffffffffffffffffffffffffffffff168152602001838152602001821515815250600360006004548152602001908152602001600020600082015181600001556020820151816001019080519060200190620003db9291906200074f565b506040820151816002019080519060200190620003fa9291906200074f565b506060820151816003019080519060200190620004199291906200074f565b506080820151816004019080519060200190620004389291906200074f565b5060a0820151816005019080519060200190620004579291906200074f565b5060c08201518160060160006101000a81548173ffffffffffffffffffffffffffffffffffffffff021916908373ffffffffffffffffffffffffffffffffffffffff16021790555060e082015181600701556101008201518160080160006101000a81548160ff0219169083151502179055509050503360016000600454815260200190815260200160002060006101000a81548173ffffffffffffffffffffffffffffffffffffffff021916908373ffffffffffffffffffffffffffffffffffffffff160217905550505050505050505050565b60056000815480929190600101919050555060c06040519081016040528087815260200186815260200185815260200184815260200183815260200182815250600660006005548152602001908152602001600020600082015181600001556020820151816001019080519060200190620005a99291906200074f565b506040820151816002019080519060200190620005c89291906200074f565b506060820151816003019080519060200190620005e79291906200074f565b506080820151816004015560a0820151816005019080519060200190620006109291906200074f565b509050503360076000600554815260200190815260200160002060006101000a81548173ffffffffffffffffffffffffffffffffffffffff021916908373ffffffffffffffffffffffffffffffffffffffff160217905550505050505050565b600a6000815480929190600101919050555060a06040519081016040528086815260200185815260200184815260200183815260200182815250600b6000600a548152602001908152602001600020600082015181600001556020820151816001019080519060200190620006e79291906200074f565b506040820151816002019080519060200190620007069291906200074f565b506060820151816003019080519060200190620007259291906200074f565b506080820151816004019080519060200190620007449291906200074f565b509050505050505050565b828054600181600116156101000203166002900490600052602060002090601f016020900481019282601f106200079257805160ff1916838001178555620007c3565b82800160010185558215620007c3579182015b82811115620007c2578251825591602001919060010190620007a5565b5b509050620007d29190620007d6565b5090565b620007fb91905b80821115620007f7576000816000905550600101620007dd565b5090565b90565b6128db806200080e6000396000f300608060405260043610610128576000357c0100000000000000000000000000000000000000000000000000000000900463ffffffff16806306ead22e1461012d5780631e98fd1c146103cf57806325a8377114610410578063290509281461043b5780632d9de472146104865780633b430f24146104b35780633d025bfc1461052057806355cbc38f1461054d57806357870f35146105845780635eb4ba7a1461077c578063642f9163146107bd57806368433a3a146109c05780637865a1b6146109eb57806390ee20b014610b30578063980323a314610d21578063b05aebd414610e70578063b93a89f714611031578063dcf0de7314611229578063e7ae5d551461126a578063ebbb886f14611295578063f6eebb04146112c2578063fefb21a41461130d575b600080fd5b34801561013957600080fd5b5061015860048036038101908080359060200190929190505050611338565b604051808a815260200180602001806020018060200180602001806020018973ffffffffffffffffffffffffffffffffffffffff1673ffffffffffffffffffffffffffffffffffffffff1681526020018881526020018715151515815260200186810386528e818151815260200191508051906020019080838360005b838110156101f05780820151818401526020810190506101d5565b50505050905090810190601f16801561021d5780820380516001836020036101000a031916815260200191505b5086810385528d818151815260200191508051906020019080838360005b8381101561025657808201518184015260208101905061023b565b50505050905090810190601f1680156102835780820380516001836020036101000a031916815260200191505b5086810384528c818151815260200191508051906020019080838360005b838110156102bc5780820151818401526020810190506102a1565b50505050905090810190601f1680156102e95780820380516001836020036101000a031916815260200191505b5086810383528b818151815260200191508051906020019080838360005b83811015610322578082015181840152602081019050610307565b50505050905090810190601f16801561034f5780820380516001836020036101000a031916815260200191505b5086810382528a818151815260200191508051906020019080838360005b8381101561038857808201518184015260208101905061036d565b50505050905090810190601f1680156103b55780820380516001836020036101000a031916815260200191505b509e50505050505050505050505050505060405180910390f35b3480156103db57600080fd5b506103fa600480360381019080803590602001909291905050506116ab565b6040518082815260200191505060405180910390f35b34801561041c57600080fd5b506104256116c3565b6040518082815260200191505060405180910390f35b34801561044757600080fd5b5061047060048036038101908080359060200190929190803590602001909291905050506116c9565b6040518082815260200191505060405180910390f35b34801561049257600080fd5b506104b1600480360381019080803590602001909291905050506116fe565b005b3480156104bf57600080fd5b506104de60048036038101908080359060200190929190505050611730565b604051808273ffffffffffffffffffffffffffffffffffffffff1673ffffffffffffffffffffffffffffffffffffffff16815260200191505060405180910390f35b34801561052c57600080fd5b5061054b60048036038101908080359060200190929190505050611763565b005b34801561055957600080fd5b506105826004803603810190808035906020019092919080359060200190929190505050611795565b005b34801561059057600080fd5b506105af600480360381019080803590602001909291905050506117d6565b604051808781526020018060200180602001806020018681526020018060200185810385528a818151815260200191508051906020019080838360005b838110156106075780820151818401526020810190506105ec565b50505050905090810190601f1680156106345780820380516001836020036101000a031916815260200191505b50858103845289818151815260200191508051906020019080838360005b8381101561066d578082015181840152602081019050610652565b50505050905090810190601f16801561069a5780820380516001836020036101000a031916815260200191505b50858103835288818151815260200191508051906020019080838360005b838110156106d35780820151818401526020810190506106b8565b50505050905090810190601f1680156107005780820380516001836020036101000a031916815260200191505b50858103825286818151815260200191508051906020019080838360005b8381101561073957808201518184015260208101905061071e565b50505050905090810190601f1680156107665780820380516001836020036101000a031916815260200191505b509a505050505050505050505060405180910390f35b34801561078857600080fd5b506107a760048036038101908080359060200190929190505050611a72565b6040518082815260200191505060405180910390f35b3480156107c957600080fd5b506107e860048036038101908080359060200190929190505050611a92565b60405180888152602001806020018060200180602001806020018781526020018615151515815260200185810385528b818151815260200191508051906020019080838360005b8381101561084a57808201518184015260208101905061082f565b50505050905090810190601f1680156108775780820380516001836020036101000a031916815260200191505b5085810384528a818151815260200191508051906020019080838360005b838110156108b0578082015181840152602081019050610895565b50505050905090810190601f1680156108dd5780820380516001836020036101000a031916815260200191505b50858103835289818151815260200191508051906020019080838360005b838110156109165780820151818401526020810190506108fb565b50505050905090810190601f1680156109435780820380516001836020036101000a031916815260200191505b50858103825288818151815260200191508051906020019080838360005b8381101561097c578082015181840152602081019050610961565b50505050905090810190601f1680156109a95780820380516001836020036101000a031916815260200191505b509b50505050505050505050505060405180910390f35b3480156109cc57600080fd5b506109d5611dd0565b6040518082815260200191505060405180910390f35b3480156109f757600080fd5b50610b2e60048036038101908080359060200190929190803590602001908201803590602001908080601f0160208091040260200160405190810160405280939291908181526020018383808284378201915050505050509192919290803590602001908201803590602001908080601f0160208091040260200160405190810160405280939291908181526020018383808284378201915050505050509192919290803590602001908201803590602001908080601f0160208091040260200160405190810160405280939291908181526020018383808284378201915050505050509192919290803590602001908201803590602001908080601f0160208091040260200160405190810160405280939291908181526020018383808284378201915050505050509192919290505050611dd6565b005b348015610b3c57600080fd5b50610b5b60048036038101908080359060200190929190505050611ead565b6040518086815260200180602001806020018060200180602001858103855289818151815260200191508051906020019080838360005b83811015610bad578082015181840152602081019050610b92565b50505050905090810190601f168015610bda5780820380516001836020036101000a031916815260200191505b50858103845288818151815260200191508051906020019080838360005b83811015610c13578082015181840152602081019050610bf8565b50505050905090810190601f168015610c405780820380516001836020036101000a031916815260200191505b50858103835287818151815260200191508051906020019080838360005b83811015610c79578082015181840152602081019050610c5e565b50505050905090810190601f168015610ca65780820380516001836020036101000a031916815260200191505b50858103825286818151815260200191508051906020019080838360005b83811015610cdf578082015181840152602081019050610cc4565b50505050905090810190601f168015610d0c5780820380516001836020036101000a031916815260200191505b50995050505050505050505060405180910390f35b348015610d2d57600080fd5b50610e6e60048036038101908080359060200190929190803590602001908201803590602001908080601f0160208091040260200160405190810160405280939291908181526020018383808284378201915050505050509192919290803590602001908201803590602001908080601f0160208091040260200160405190810160405280939291908181526020018383808284378201915050505050509192919290803590602001908201803590602001908080601f016020809104026020016040519081016040528093929190818152602001838380828437820191505050505050919291929080359060200190929190803590602001908201803590602001908080601f0160208091040260200160405190810160405280939291908181526020018383808284378201915050505050509192919290505050612143565b005b348015610e7c57600080fd5b5061102f60048036038101908080359060200190929190803590602001908201803590602001908080601f0160208091040260200160405190810160405280939291908181526020018383808284378201915050505050509192919290803590602001908201803590602001908080601f0160208091040260200160405190810160405280939291908181526020018383808284378201915050505050509192919290803590602001908201803590602001908080601f0160208091040260200160405190810160405280939291908181526020018383808284378201915050505050509192919290803590602001908201803590602001908080601f0160208091040260200160405190810160405280939291908181526020018383808284378201915050505050509192919290803590602001908201803590602001908080601f0160208091040260200160405190810160405280939291908181526020018383808284378201915050505050509192919290803573ffffffffffffffffffffffffffffffffffffffff1690602001909291908035906020019092919080351515906020019092919050505061227f565b005b34801561103d57600080fd5b5061105c6004803603810190808035906020019092919050505061246e565b604051808781526020018060200180602001806020018681526020018060200185810385528a818151815260200191508051906020019080838360005b838110156110b4578082015181840152602081019050611099565b50505050905090810190601f1680156110e15780820380516001836020036101000a031916815260200191505b50858103845289818151815260200191508051906020019080838360005b8381101561111a5780820151818401526020810190506110ff565b50505050905090810190601f1680156111475780820380516001836020036101000a031916815260200191505b50858103835288818151815260200191508051906020019080838360005b83811015611180578082015181840152602081019050611165565b50505050905090810190601f1680156111ad5780820380516001836020036101000a031916815260200191505b50858103825286818151815260200191508051906020019080838360005b838110156111e65780820151818401526020810190506111cb565b50505050905090810190601f1680156112135780820380516001836020036101000a031916815260200191505b509a505050505050505050505060405180910390f35b34801561123557600080fd5b5061125460048036038101908080359060200190929190505050612784565b6040518082815260200191505060405180910390f35b34801561127657600080fd5b5061127f6127a0565b6040518082815260200191505060405180910390f35b3480156112a157600080fd5b506112c0600480360381019080803590602001909291905050506127a6565b005b3480156112ce57600080fd5b506112f760048036038101908080359060200190929190803590602001909291905050506127d4565b6040518082815260200191505060405180910390f35b34801561131957600080fd5b50611322612804565b6040518082815260200191505060405180910390f35b6003602052806000526040600020600091509050806000015490806001018054600181600116156101000203166002900480601f0160208091040260200160405190810160405280929190818152602001828054600181600116156101000203166002900480156113ea5780601f106113bf576101008083540402835291602001916113ea565b820191906000526020600020905b8154815290600101906020018083116113cd57829003601f168201915b505050505090806002018054600181600116156101000203166002900480601f0160208091040260200160405190810160405280929190818152602001828054600181600116156101000203166002900480156114885780601f1061145d57610100808354040283529160200191611488565b820191906000526020600020905b81548152906001019060200180831161146b57829003601f168201915b505050505090806003018054600181600116156101000203166002900480601f0160208091040260200160405190810160405280929190818152602001828054600181600116156101000203166002900480156115265780601f106114fb57610100808354040283529160200191611526565b820191906000526020600020905b81548152906001019060200180831161150957829003601f168201915b505050505090806004018054600181600116156101000203166002900480601f0160208091040260200160405190810160405280929190818152602001828054600181600116156101000203166002900480156115c45780601f10611599576101008083540402835291602001916115c4565b820191906000526020600020905b8154815290600101906020018083116115a757829003601f168201915b505050505090806005018054600181600116156101000203166002900480601f0160208091040260200160405190810160405280929190818152602001828054600181600116156101000203166002900480156116625780601f1061163757610100808354040283529160200191611662565b820191906000526020600020905b81548152906001019060200180831161164557829003601f168201915b5050505050908060060160009054906101000a900473ffffffffffffffffffffffffffffffffffffffff16908060070154908060080160009054906101000a900460ff16905089565b60006020528060005260406000206000915090505481565b60085481565b600060096000848152602001908152602001600020828154811015156116eb57fe5b9060005260206000200154905092915050565b60016003600083815260200190815260200160002060080160006101000a81548160ff02191690831515021790555050565b60076020528060005260406000206000915054906101000a900473ffffffffffffffffffffffffffffffffffffffff1681565b60016003600083815260200190815260200160002060080160006101000a81548160ff02191690831515021790555050565b600960008381526020019081526020016000208190806001815401808255809150509060018203906000526020600020016000909192909190915055505050565b6006602052806000526040600020600091509050806000015490806001018054600181600116156101000203166002900480601f0160208091040260200160405190810160405280929190818152602001828054600181600116156101000203166002900480156118885780601f1061185d57610100808354040283529160200191611888565b820191906000526020600020905b81548152906001019060200180831161186b57829003601f168201915b505050505090806002018054600181600116156101000203166002900480601f0160208091040260200160405190810160405280929190818152602001828054600181600116156101000203166002900480156119265780601f106118fb57610100808354040283529160200191611926565b820191906000526020600020905b81548152906001019060200180831161190957829003601f168201915b505050505090806003018054600181600116156101000203166002900480601f0160208091040260200160405190810160405280929190818152602001828054600181600116156101000203166002900480156119c45780601f10611999576101008083540402835291602001916119c4565b820191906000526020600020905b8154815290600101906020018083116119a757829003601f168201915b505050505090806004015490806005018054600181600116156101000203166002900480601f016020809104026020016040519081016040528092919081815260200182805460018160011615610100020316600290048015611a685780601f10611a3d57610100808354040283529160200191611a68565b820191906000526020600020905b815481529060010190602001808311611a4b57829003601f168201915b5050505050905086565b600060096000838152602001908152602001600020805490509050919050565b60006060806060806000806003600089815260200190815260200160002060000154600360008a8152602001908152602001600020600101600360008b8152602001908152602001600020600301600360008c8152602001908152602001600020600401600360008d8152602001908152602001600020600501600360008e815260200190815260200160002060070154600360008f815260200190815260200160002060080160009054906101000a900460ff16858054600181600116156101000203166002900480601f016020809104026020016040519081016040528092919081815260200182805460018160011615610100020316600290048015611bdc5780601f10611bb157610100808354040283529160200191611bdc565b820191906000526020600020905b815481529060010190602001808311611bbf57829003601f168201915b50505050509550848054600181600116156101000203166002900480601f016020809104026020016040519081016040528092919081815260200182805460018160011615610100020316600290048015611c785780601f10611c4d57610100808354040283529160200191611c78565b820191906000526020600020905b815481529060010190602001808311611c5b57829003601f168201915b50505050509450838054600181600116156101000203166002900480601f016020809104026020016040519081016040528092919081815260200182805460018160011615610100020316600290048015611d145780601f10611ce957610100808354040283529160200191611d14565b820191906000526020600020905b815481529060010190602001808311611cf757829003601f168201915b50505050509350828054600181600116156101000203166002900480601f016020809104026020016040519081016040528092919081815260200182805460018160011615610100020316600290048015611db05780601f10611d8557610100808354040283529160200191611db0565b820191906000526020600020905b815481529060010190602001808311611d9357829003601f168201915b505050505092509650965096509650965096509650919395979092949650565b60045481565b600a6000815480929190600101919050555060a06040519081016040528086815260200185815260200184815260200183815260200182815250600b6000600a548152602001908152602001600020600082015181600001556020820151816001019080519060200190611e4b92919061280a565b506040820151816002019080519060200190611e6892919061280a565b506060820151816003019080519060200190611e8592919061280a565b506080820151816004019080519060200190611ea292919061280a565b509050505050505050565b600b602052806000526040600020600091509050806000015490806001018054600181600116156101000203166002900480601f016020809104026020016040519081016040528092919081815260200182805460018160011615610100020316600290048015611f5f5780601f10611f3457610100808354040283529160200191611f5f565b820191906000526020600020905b815481529060010190602001808311611f4257829003601f168201915b505050505090806002018054600181600116156101000203166002900480601f016020809104026020016040519081016040528092919081815260200182805460018160011615610100020316600290048015611ffd5780601f10611fd257610100808354040283529160200191611ffd565b820191906000526020600020905b815481529060010190602001808311611fe057829003601f168201915b505050505090806003018054600181600116156101000203166002900480601f01602080910402602001604051908101604052809291908181526020018280546001816001161561010002031660029004801561209b5780601f106120705761010080835404028352916020019161209b565b820191906000526020600020905b81548152906001019060200180831161207e57829003601f168201915b505050505090806004018054600181600116156101000203166002900480601f0160208091040260200160405190810160405280929190818152602001828054600181600116156101000203166002900480156121395780601f1061210e57610100808354040283529160200191612139565b820191906000526020600020905b81548152906001019060200180831161211c57829003601f168201915b5050505050905085565b60056000815480929190600101919050555060c060405190810160405280878152602001868152602001858152602001848152602001838152602001828152506006600060055481526020019081526020016000206000820151816000015560208201518160010190805190602001906121be92919061280a565b5060408201518160020190805190602001906121db92919061280a565b5060608201518160030190805190602001906121f892919061280a565b506080820151816004015560a082015181600501908051906020019061221f92919061280a565b509050503360076000600554815260200190815260200160002060006101000a81548173ffffffffffffffffffffffffffffffffffffffff021916908373ffffffffffffffffffffffffffffffffffffffff160217905550505050505050565b600460008154809291906001019190505550610120604051908101604052808a81526020018981526020018881526020018781526020018681526020018581526020018473ffffffffffffffffffffffffffffffffffffffff16815260200183815260200182151581525060036000600454815260200190815260200160002060008201518160000155602082015181600101908051906020019061232592919061280a565b50604082015181600201908051906020019061234292919061280a565b50606082015181600301908051906020019061235f92919061280a565b50608082015181600401908051906020019061237c92919061280a565b5060a082015181600501908051906020019061239992919061280a565b5060c08201518160060160006101000a81548173ffffffffffffffffffffffffffffffffffffffff021916908373ffffffffffffffffffffffffffffffffffffffff16021790555060e082015181600701556101008201518160080160006101000a81548160ff0219169083151502179055509050503360016000600454815260200190815260200160002060006101000a81548173ffffffffffffffffffffffffffffffffffffffff021916908373ffffffffffffffffffffffffffffffffffffffff160217905550505050505050505050565b6000606080606060006060600660008881526020019081526020016000206000015460066000898152602001908152602001600020600101600660008a8152602001908152602001600020600201600660008b8152602001908152602001600020600301600660008c815260200190815260200160002060040154600660008d8152602001908152602001600020600501848054600181600116156101000203166002900480601f0160208091040260200160405190810160405280929190818152602001828054600181600116156101000203166002900480156125945780601f1061256957610100808354040283529160200191612594565b820191906000526020600020905b81548152906001019060200180831161257757829003601f168201915b50505050509450838054600181600116156101000203166002900480601f0160208091040260200160405190810160405280929190818152602001828054600181600116156101000203166002900480156126305780601f1061260557610100808354040283529160200191612630565b820191906000526020600020905b81548152906001019060200180831161261357829003601f168201915b50505050509350828054600181600116156101000203166002900480601f0160208091040260200160405190810160405280929190818152602001828054600181600116156101000203166002900480156126cc5780601f106126a1576101008083540402835291602001916126cc565b820191906000526020600020905b8154815290600101906020018083116126af57829003601f168201915b50505050509250808054600181600116156101000203166002900480601f0160208091040260200160405190810160405280929190818152602001828054600181600116156101000203166002900480156127685780601f1061273d57610100808354040283529160200191612768565b820191906000526020600020905b81548152906001019060200180831161274b57829003601f168201915b5050505050905095509550955095509550955091939550919395565b6000806000838152602001908152602001600020549050919050565b60055481565b6002600081548092919060010191905055508060008060025481526020019081526020016000208190555050565b6009602052816000526040600020818154811015156127ef57fe5b90600052602060002001600091509150505481565b600a5481565b828054600181600116156101000203166002900490600052602060002090601f016020900481019282601f1061284b57805160ff1916838001178555612879565b82800160010185558215612879579182015b8281111561287857825182559160200191906001019061285d565b5b509050612886919061288a565b5090565b6128ac91905b808211156128a8576000816000905550600101612890565b5090565b905600a165627a7a723058204a16629f278fdffde6e3fbcc927b8b71ffe4e245f7fbdb29dc62cfae3b324be80029",
  "source": "pragma solidity ^0.4.19;\n\n/// TYPE 1- STUDENT , 2 - Recruiter 3 - institute\n\n\ncontract IDMS{\n\tstruct studentProfile{\n\t\t//string username;\n\t\tuint Type;\n\t\tstring name;\n\t\tstring password;\n\t\tstring dob;\n\t\tstring email;\n\t\tstring phone;\n\t\taddress institute;\n\t\tuint marks;\n\n\t\t/* verification info */\n\t\tbool isVerified;\n\t}\n\n\t/*student address to their account*/\n\n\t/*mapping(address => studentProfile) public students;*/\n\n\n\tmapping( /*address*/uint =>uint) public Users;\n\tmapping (uint => address) StudenttoAccount;\n\t\n\tuint UsersCount;\n\n\n\tmapping(uint => studentProfile) public students;\n\tuint public studentsCount;\n\n\n\tfunction SetUsers(uint _t) public {\n\t\tUsersCount++;\n\t\tUsers[/*msg.sender*/UsersCount] = _t;\n\t}\n\n\n\tfunction GetUsers(uint/*address*/ addr) returns (/*address*/uint){\n\t\treturn(Users[addr]);\n\t}\n\n\n\n\n\tconstructor() public {\n\t\t\n\t\taddStudent(0,\"vinayak\",\"abcdefgh\",\"1-1-2000\",\"abc@xyz.com\",\"1234567890\",0x0,100,false);\n\t\taddRecruiter(1,\"my\",\"code\",\"Hekko\",9192929299,\"xyz@abc.com\");\n\t\taddInstitute(2,\"vjti\",\"abcdefgh\",\"1234567890\",\"mumbai\");\n\t}\n\n\tfunction addStudent(uint Type,string _name, string _password, string _dob, string _email, string _phone,address _institute, uint _marks, bool _isVerified) public {\n\t\t\tstudentsCount++;\n\t\t\tstudents[studentsCount/*msg.sender*/]=\n\t\t\tstudentProfile(Type,_name,  _password, _dob, _email, _phone, _institute, _marks, _isVerified);\n\t\t\tStudenttoAccount[studentsCount]=msg.sender;\n\t}\n\n\tfunction getStudent (uint i) returns(uint,string,string,string,string,uint,bool) {\n\t\treturn(students[i].Type,students[i].name,students[i].dob,students[i].email,students[i].phone,students[i].marks,students[i].isVerified);\t\n\t}\n\t\n\n\tfunction setVerified(uint _id) public{\n\t\t/*some checking or manually calling this function to set the value below as true */\n\t\tstudents[_id/*msg.sender*/].isVerified=true;\n\t}\n\n\t//----------------------------------------------------------------------------------------------------------------------------\n\tstruct Recruit {\n\t\tuint Type;\n\t\tstring username;\n\t\tstring password;\n\t\tstring OrganisationName;\n\t\tuint256 Contact;\n\t\tstring OrganisationMail;\n\t}\n\n\n\t//address RecruiterAddress;\n\t\n\n\tuint public RecruiterCount;\n\tmapping(/*RecruiterAddress*/uint=>Recruit) public RecruiterId;\n\tmapping(uint => address) public RecruiterToAccount;\n\t//uint public recruitersStudentsCount;\n\t//mapping(uint /*recruiters (adddress)*/ => studentProfile\t) recruitersStudents;\n\n\tfunction addRecruiter(uint Type,string username,string password,string _name,uint256 _contact,string _organisationname) public{\n\t\tRecruiterCount++;\n\t\tRecruiterId[/*msg.sender*/RecruiterCount] = Recruit(Type,username,password,_name,_contact,_organisationname);\n\t\tRecruiterToAccount[RecruiterCount] = msg.sender;\n\t}\n\n\tfunction getDetails(uint i) public view returns(uint,string,string,string,uint256,string){\n\t\treturn(RecruiterId[i].Type,RecruiterId[i].username,RecruiterId[i].password,RecruiterId[i].OrganisationName,RecruiterId[i].Contact,RecruiterId[i].OrganisationMail);\n\t}\n\n\tuint public recruitersStudentsCount;\n\tmapping(uint/*recruiter address*/ => uint[] /*student address*/) public recruitersStudents;\n\n\tfunction getRecruitersStudents(uint _rid, uint _itr) public view returns(uint/*student address*/){\n\t\treturn recruitersStudents[_rid][_itr];\n\t}\n\n\tfunction setRecruiterStudents(uint _rid, uint _sid) public {\n\t\trecruitersStudents[_rid].push(_sid);\n\t}\n\n\tfunction getRecruitersStudentsCount (uint _rid) public view returns(uint) {\n\t\treturn recruitersStudents[_rid].length;\n\t}\n\t\n\n\t// function getRecruitersStudentsCount(uint _rId)public view returns(uint){\n\t// \treturn recruitersStudents[_rId].length;\n\t// }\n\n\t// function getRecruitersStudents(uint _rId, uint _i) public view \n\t// returns(uint , string , string , string , string , string ,address , uint ,bool ) {\n\t// \tstudentProfile s=recruitersStudents[_rId ][_i];\n\t\t\n\t// \t//return (s[0],s[1],s[2],s[3],s[4],s[5],s[6],s[7],s[8]);\n\t// \t\t\t.Type,\n\t// \t\t\trecruitersStudents[_rId ][_i].name,\n\t// \t\t\trecruitersStudents[_rId ][_i].password,\n\t// \t\t\trecruitersStudents[_rId ][_i].dob,\n\t// \t\t\trecruitersStudents[_rId ][_i].email,\n\t// \t\t\trecruitersStudents[_rId ][_i].phone,\n\t// \t\t\trecruitersStudents[_rId ][_i].institute,\n\t// \t\t\trecruitersStudents[_rId ][_i].marks,\n\t// \t\t\trecruitersStudents[_rId ][_i].isVerified\n\t\t\t\t\n\t// \t\t);\n\t// }\n\n\t// function setRecruiterStudents(uint _rId, uint _sId){\n\t// \trecruitersStudents[_rId].push(students[_sId/*msg.sender*/]);\n\n\t// }\n\n\t//----------------------------------------------------------------------------------------------------------------------------\n\t\t\n\n\n\tstruct InstituteStr{\n\t\tuint Type;\n\t\tstring instituteName;\n\t\tstring password;\n\t\tstring phone; \n\t\tstring addressInstitute;\n\t}\n\n\tuint public instituteCount;\n\tmapping(/*institute Address (address)*/uint=>InstituteStr) public institutes;\n\n\t\n\tfunction addInstitute(uint Type,string _instituteName, string _password, string phone, string _addressInstitute) public {\n\t\tinstituteCount++;\n\t\tinstitutes[/*msg.sender*/instituteCount] \n\t\t\t= InstituteStr(Type,_instituteName, _password, phone, _addressInstitute );\t\n\t}\n\n\tfunction SetStudentVerification(/*address*/uint sid) public {\n\t\tstudents[sid].isVerified=true;\t\n\t\t\t/*IDMS.deployed().then(function(i){app = i;}\n\n\n\n\t\t\t);*/\n\t}\n\n}",
  "sourcePath": "/home/pratik/Desktop/GBH2k18/contracts/IDMS.sol",
  "compiler": {
    "name": "solc",
    "version": "0.4.24+commit.e67f0147.Emscripten.clang"
  },
  "schemaVersion": "2.0.1",
  "updatedAt": "2018-12-21T18:53:09.216Z"
}