{
  "contractName": "IDMS",
  "abi": [
    {
      "constant": true,
      "inputs": [
        {
          "name": "",
          "type": "uint256"
        }
      ],
      "name": "students",
      "outputs": [
        {
          "name": "Type",
          "type": "uint256"
        },
        {
          "name": "name",
          "type": "string"
        },
        {
          "name": "password",
          "type": "string"
        },
        {
          "name": "dob",
          "type": "string"
        },
        {
          "name": "email",
          "type": "string"
        },
        {
          "name": "phone",
          "type": "string"
        },
        {
          "name": "institute",
          "type": "address"
        },
        {
          "name": "marks",
          "type": "uint256"
        },
        {
          "name": "isVerified",
          "type": "bool"
        }
      ],
      "payable": false,
      "stateMutability": "view",
      "type": "function"
    },
    {
      "constant": true,
      "inputs": [],
      "name": "recruitersStudentsCount",
      "outputs": [
        {
          "name": "",
          "type": "uint256"
        }
      ],
      "payable": false,
      "stateMutability": "view",
      "type": "function"
    },
    {
      "constant": true,
      "inputs": [
        {
          "name": "",
          "type": "uint256"
        }
      ],
      "name": "RecruiterId",
      "outputs": [
        {
          "name": "Type",
          "type": "uint256"
        },
        {
          "name": "username",
          "type": "string"
        },
        {
          "name": "password",
          "type": "string"
        },
        {
          "name": "OrganisationName",
          "type": "string"
        },
        {
          "name": "Contact",
          "type": "uint256"
        },
        {
          "name": "OrganisationMail",
          "type": "string"
        }
      ],
      "payable": false,
      "stateMutability": "view",
      "type": "function"
    },
    {
      "constant": true,
      "inputs": [],
      "name": "studentsCount",
      "outputs": [
        {
          "name": "",
          "type": "uint256"
        }
      ],
      "payable": false,
      "stateMutability": "view",
      "type": "function"
    },
    {
      "constant": true,
      "inputs": [
        {
          "name": "",
          "type": "uint256"
        }
      ],
      "name": "institutes",
      "outputs": [
        {
          "name": "Type",
          "type": "uint256"
        },
        {
          "name": "instituteName",
          "type": "string"
        },
        {
          "name": "password",
          "type": "string"
        },
        {
          "name": "phone",
          "type": "string"
        },
        {
          "name": "addressInstitute",
          "type": "string"
        }
      ],
      "payable": false,
      "stateMutability": "view",
      "type": "function"
    },
    {
      "constant": true,
      "inputs": [],
      "name": "RecruiterCount",
      "outputs": [
        {
          "name": "",
          "type": "uint256"
        }
      ],
      "payable": false,
      "stateMutability": "view",
      "type": "function"
    },
    {
      "constant": true,
      "inputs": [
        {
          "name": "",
          "type": "uint256"
        },
        {
          "name": "",
          "type": "uint256"
        }
      ],
      "name": "recruitersStudents",
      "outputs": [
        {
          "name": "",
          "type": "uint256"
        }
      ],
      "payable": false,
      "stateMutability": "view",
      "type": "function"
    },
    {
      "constant": true,
      "inputs": [],
      "name": "instituteCount",
      "outputs": [
        {
          "name": "",
          "type": "uint256"
        }
      ],
      "payable": false,
      "stateMutability": "view",
      "type": "function"
    },
    {
      "inputs": [],
      "payable": false,
      "stateMutability": "nonpayable",
      "type": "constructor"
    },
    {
      "constant": false,
      "inputs": [
        {
          "name": "Type",
          "type": "uint256"
        },
        {
          "name": "_name",
          "type": "string"
        },
        {
          "name": "_password",
          "type": "string"
        },
        {
          "name": "_dob",
          "type": "string"
        },
        {
          "name": "_email",
          "type": "string"
        },
        {
          "name": "_phone",
          "type": "string"
        },
        {
          "name": "_institute",
          "type": "address"
        },
        {
          "name": "_marks",
          "type": "uint256"
        },
        {
          "name": "_isVerified",
          "type": "bool"
        }
      ],
      "name": "addStudent",
      "outputs": [],
      "payable": false,
      "stateMutability": "nonpayable",
      "type": "function"
    },
    {
      "constant": false,
      "inputs": [
        {
          "name": "_id",
          "type": "uint256"
        }
      ],
      "name": "setVerified",
      "outputs": [],
      "payable": false,
      "stateMutability": "nonpayable",
      "type": "function"
    },
    {
      "constant": false,
      "inputs": [
        {
          "name": "Type",
          "type": "uint256"
        },
        {
          "name": "username",
          "type": "string"
        },
        {
          "name": "password",
          "type": "string"
        },
        {
          "name": "_name",
          "type": "string"
        },
        {
          "name": "_contact",
          "type": "uint256"
        },
        {
          "name": "_organisationname",
          "type": "string"
        }
      ],
      "name": "addRecruiter",
      "outputs": [],
      "payable": false,
      "stateMutability": "nonpayable",
      "type": "function"
    },
    {
      "constant": true,
      "inputs": [],
      "name": "getDetails",
      "outputs": [
        {
          "name": "",
          "type": "uint256"
        },
        {
          "name": "",
          "type": "string"
        },
        {
          "name": "",
          "type": "string"
        },
        {
          "name": "",
          "type": "string"
        },
        {
          "name": "",
          "type": "uint256"
        },
        {
          "name": "",
          "type": "string"
        }
      ],
      "payable": false,
      "stateMutability": "view",
      "type": "function"
    },
    {
      "constant": true,
      "inputs": [
        {
          "name": "_rid",
          "type": "uint256"
        },
        {
          "name": "_itr",
          "type": "uint256"
        }
      ],
      "name": "getRecruitersStudents",
      "outputs": [
        {
          "name": "",
          "type": "uint256"
        }
      ],
      "payable": false,
      "stateMutability": "view",
      "type": "function"
    },
    {
      "constant": false,
      "inputs": [
        {
          "name": "_rid",
          "type": "uint256"
        },
        {
          "name": "_sid",
          "type": "uint256"
        }
      ],
      "name": "setRecruiterStudents",
      "outputs": [],
      "payable": false,
      "stateMutability": "nonpayable",
      "type": "function"
    },
    {
      "constant": true,
      "inputs": [
        {
          "name": "_rid",
          "type": "uint256"
        }
      ],
      "name": "getRecruitersStudentsCount",
      "outputs": [
        {
          "name": "",
          "type": "uint256"
        }
      ],
      "payable": false,
      "stateMutability": "view",
      "type": "function"
    },
    {
      "constant": false,
      "inputs": [
        {
          "name": "Type",
          "type": "uint256"
        },
        {
          "name": "_instituteName",
          "type": "string"
        },
        {
          "name": "_password",
          "type": "string"
        },
        {
          "name": "phone",
          "type": "string"
        },
        {
          "name": "_addressInstitute",
          "type": "string"
        }
      ],
      "name": "addInstitute",
      "outputs": [],
      "payable": false,
      "stateMutability": "nonpayable",
      "type": "function"
    }
  ],
  "bytecode": "0x60806040523480156200001157600080fd5b506200014160006040805190810160405280600781526020017f76696e6179616b000000000000000000000000000000000000000000000000008152506040805190810160405280600881526020017f61626364656667680000000000000000000000000000000000000000000000008152506040805190810160405280600881526020017f312d312d323030300000000000000000000000000000000000000000000000008152506040805190810160405280600b81526020017f6162634078797a2e636f6d0000000000000000000000000000000000000000008152506040805190810160405280600a81526020017f313233343536373839300000000000000000000000000000000000000000000081525060006064600062000333640100000000026401000000009004565b6200023a60016040805190810160405280600281526020017f6d790000000000000000000000000000000000000000000000000000000000008152506040805190810160405280600481526020017f636f6465000000000000000000000000000000000000000000000000000000008152506040805190810160405280600581526020017f48656b6b6f000000000000000000000000000000000000000000000000000000815250640223f0f8136040805190810160405280600b81526020017f78797a406162632e636f6d000000000000000000000000000000000000000000815250620004d7640100000000026401000000009004565b6200032d60026040805190810160405280600481526020017f766a7469000000000000000000000000000000000000000000000000000000008152506040805190810160405280600881526020017f61626364656667680000000000000000000000000000000000000000000000008152506040805190810160405280600a81526020017f31323334353637383930000000000000000000000000000000000000000000008152506040805190810160405280600681526020017f6d756d6261690000000000000000000000000000000000000000000000000000815250620005c7640100000000026401000000009004565b62000755565b600160008154809291906001019190505550610120604051908101604052808a81526020018981526020018881526020018781526020018681526020018581526020018473ffffffffffffffffffffffffffffffffffffffff1681526020018381526020018215158152506000806001548152602001908152602001600020600082015181600001556020820151816001019080519060200190620003da929190620006a6565b506040820151816002019080519060200190620003f9929190620006a6565b50606082015181600301908051906020019062000418929190620006a6565b50608082015181600401908051906020019062000437929190620006a6565b5060a082015181600501908051906020019062000456929190620006a6565b5060c08201518160060160006101000a81548173ffffffffffffffffffffffffffffffffffffffff021916908373ffffffffffffffffffffffffffffffffffffffff16021790555060e082015181600701556101008201518160080160006101000a81548160ff021916908315150217905550905050505050505050505050565b60026000815480929190600101919050555060c0604051908101604052808781526020018681526020018581526020018481526020018381526020018281525060036000600254815260200190815260200160002060008201518160000155602082015181600101908051906020019062000554929190620006a6565b50604082015181600201908051906020019062000573929190620006a6565b50606082015181600301908051906020019062000592929190620006a6565b506080820151816004015560a0820151816005019080519060200190620005bb929190620006a6565b50905050505050505050565b60066000815480929190600101919050555060a060405190810160405280868152602001858152602001848152602001838152602001828152506007600060065481526020019081526020016000206000820151816000015560208201518160010190805190602001906200063e929190620006a6565b5060408201518160020190805190602001906200065d929190620006a6565b5060608201518160030190805190602001906200067c929190620006a6565b5060808201518160040190805190602001906200069b929190620006a6565b509050505050505050565b828054600181600116156101000203166002900490600052602060002090601f016020900481019282601f10620006e957805160ff19168380011785556200071a565b828001600101855582156200071a579182015b8281111562000719578251825591602001919060010190620006fc565b5b5090506200072991906200072d565b5090565b6200075291905b808211156200074e57600081600090555060010162000734565b5090565b90565b61208d80620007656000396000f3006080604052600436106100e6576000357c0100000000000000000000000000000000000000000000000000000000900463ffffffff16806306ead22e146100eb57806325a837711461038d57806329050928146103b85780632d9de4721461040357806355cbc38f1461043057806357870f35146104675780635eb4ba7a1461065f57806368433a3a146106a05780637865a1b6146106cb57806390ee20b014610810578063980323a314610a01578063b05aebd414610b50578063e7ae5d5514610d11578063f6eebb0414610d3c578063fbbf93a014610d87578063fefb21a414610f69575b600080fd5b3480156100f757600080fd5b5061011660048036038101908080359060200190929190505050610f94565b604051808a815260200180602001806020018060200180602001806020018973ffffffffffffffffffffffffffffffffffffffff1673ffffffffffffffffffffffffffffffffffffffff1681526020018881526020018715151515815260200186810386528e818151815260200191508051906020019080838360005b838110156101ae578082015181840152602081019050610193565b50505050905090810190601f1680156101db5780820380516001836020036101000a031916815260200191505b5086810385528d818151815260200191508051906020019080838360005b838110156102145780820151818401526020810190506101f9565b50505050905090810190601f1680156102415780820380516001836020036101000a031916815260200191505b5086810384528c818151815260200191508051906020019080838360005b8381101561027a57808201518184015260208101905061025f565b50505050905090810190601f1680156102a75780820380516001836020036101000a031916815260200191505b5086810383528b818151815260200191508051906020019080838360005b838110156102e05780820151818401526020810190506102c5565b50505050905090810190601f16801561030d5780820380516001836020036101000a031916815260200191505b5086810382528a818151815260200191508051906020019080838360005b8381101561034657808201518184015260208101905061032b565b50505050905090810190601f1680156103735780820380516001836020036101000a031916815260200191505b509e50505050505050505050505050505060405180910390f35b34801561039957600080fd5b506103a2611307565b6040518082815260200191505060405180910390f35b3480156103c457600080fd5b506103ed600480360381019080803590602001909291908035906020019092919050505061130d565b6040518082815260200191505060405180910390f35b34801561040f57600080fd5b5061042e60048036038101908080359060200190929190505050611342565b005b34801561043c57600080fd5b506104656004803603810190808035906020019092919080359060200190929190505050611373565b005b34801561047357600080fd5b50610492600480360381019080803590602001909291905050506113b4565b604051808781526020018060200180602001806020018681526020018060200185810385528a818151815260200191508051906020019080838360005b838110156104ea5780820151818401526020810190506104cf565b50505050905090810190601f1680156105175780820380516001836020036101000a031916815260200191505b50858103845289818151815260200191508051906020019080838360005b83811015610550578082015181840152602081019050610535565b50505050905090810190601f16801561057d5780820380516001836020036101000a031916815260200191505b50858103835288818151815260200191508051906020019080838360005b838110156105b657808201518184015260208101905061059b565b50505050905090810190601f1680156105e35780820380516001836020036101000a031916815260200191505b50858103825286818151815260200191508051906020019080838360005b8381101561061c578082015181840152602081019050610601565b50505050905090810190601f1680156106495780820380516001836020036101000a031916815260200191505b509a505050505050505050505060405180910390f35b34801561066b57600080fd5b5061068a60048036038101908080359060200190929190505050611650565b6040518082815260200191505060405180910390f35b3480156106ac57600080fd5b506106b5611670565b6040518082815260200191505060405180910390f35b3480156106d757600080fd5b5061080e60048036038101908080359060200190929190803590602001908201803590602001908080601f0160208091040260200160405190810160405280939291908181526020018383808284378201915050505050509192919290803590602001908201803590602001908080601f0160208091040260200160405190810160405280939291908181526020018383808284378201915050505050509192919290803590602001908201803590602001908080601f0160208091040260200160405190810160405280939291908181526020018383808284378201915050505050509192919290803590602001908201803590602001908080601f0160208091040260200160405190810160405280939291908181526020018383808284378201915050505050509192919290505050611676565b005b34801561081c57600080fd5b5061083b6004803603810190808035906020019092919050505061174d565b6040518086815260200180602001806020018060200180602001858103855289818151815260200191508051906020019080838360005b8381101561088d578082015181840152602081019050610872565b50505050905090810190601f1680156108ba5780820380516001836020036101000a031916815260200191505b50858103845288818151815260200191508051906020019080838360005b838110156108f35780820151818401526020810190506108d8565b50505050905090810190601f1680156109205780820380516001836020036101000a031916815260200191505b50858103835287818151815260200191508051906020019080838360005b8381101561095957808201518184015260208101905061093e565b50505050905090810190601f1680156109865780820380516001836020036101000a031916815260200191505b50858103825286818151815260200191508051906020019080838360005b838110156109bf5780820151818401526020810190506109a4565b50505050905090810190601f1680156109ec5780820380516001836020036101000a031916815260200191505b50995050505050505050505060405180910390f35b348015610a0d57600080fd5b50610b4e60048036038101908080359060200190929190803590602001908201803590602001908080601f0160208091040260200160405190810160405280939291908181526020018383808284378201915050505050509192919290803590602001908201803590602001908080601f0160208091040260200160405190810160405280939291908181526020018383808284378201915050505050509192919290803590602001908201803590602001908080601f016020809104026020016040519081016040528093929190818152602001838380828437820191505050505050919291929080359060200190929190803590602001908201803590602001908080601f01602080910402602001604051908101604052809392919081815260200183838082843782019150505050505091929192905050506119e3565b005b348015610b5c57600080fd5b50610d0f60048036038101908080359060200190929190803590602001908201803590602001908080601f0160208091040260200160405190810160405280939291908181526020018383808284378201915050505050509192919290803590602001908201803590602001908080601f0160208091040260200160405190810160405280939291908181526020018383808284378201915050505050509192919290803590602001908201803590602001908080601f0160208091040260200160405190810160405280939291908181526020018383808284378201915050505050509192919290803590602001908201803590602001908080601f0160208091040260200160405190810160405280939291908181526020018383808284378201915050505050509192919290803590602001908201803590602001908080601f0160208091040260200160405190810160405280939291908181526020018383808284378201915050505050509192919290803573ffffffffffffffffffffffffffffffffffffffff16906020019092919080359060200190929190803515159060200190929190505050611acb565b005b348015610d1d57600080fd5b50610d26611c65565b6040518082815260200191505060405180910390f35b348015610d4857600080fd5b50610d716004803603810190808035906020019092919080359060200190929190505050611c6b565b6040518082815260200191505060405180910390f35b348015610d9357600080fd5b50610d9c611c9b565b604051808781526020018060200180602001806020018681526020018060200185810385528a818151815260200191508051906020019080838360005b83811015610df4578082015181840152602081019050610dd9565b50505050905090810190601f168015610e215780820380516001836020036101000a031916815260200191505b50858103845289818151815260200191508051906020019080838360005b83811015610e5a578082015181840152602081019050610e3f565b50505050905090810190601f168015610e875780820380516001836020036101000a031916815260200191505b50858103835288818151815260200191508051906020019080838360005b83811015610ec0578082015181840152602081019050610ea5565b50505050905090810190601f168015610eed5780820380516001836020036101000a031916815260200191505b50858103825286818151815260200191508051906020019080838360005b83811015610f26578082015181840152602081019050610f0b565b50505050905090810190601f168015610f535780820380516001836020036101000a031916815260200191505b509a505050505050505050505060405180910390f35b348015610f7557600080fd5b50610f7e611fb6565b6040518082815260200191505060405180910390f35b6000602052806000526040600020600091509050806000015490806001018054600181600116156101000203166002900480601f0160208091040260200160405190810160405280929190818152602001828054600181600116156101000203166002900480156110465780601f1061101b57610100808354040283529160200191611046565b820191906000526020600020905b81548152906001019060200180831161102957829003601f168201915b505050505090806002018054600181600116156101000203166002900480601f0160208091040260200160405190810160405280929190818152602001828054600181600116156101000203166002900480156110e45780601f106110b9576101008083540402835291602001916110e4565b820191906000526020600020905b8154815290600101906020018083116110c757829003601f168201915b505050505090806003018054600181600116156101000203166002900480601f0160208091040260200160405190810160405280929190818152602001828054600181600116156101000203166002900480156111825780601f1061115757610100808354040283529160200191611182565b820191906000526020600020905b81548152906001019060200180831161116557829003601f168201915b505050505090806004018054600181600116156101000203166002900480601f0160208091040260200160405190810160405280929190818152602001828054600181600116156101000203166002900480156112205780601f106111f557610100808354040283529160200191611220565b820191906000526020600020905b81548152906001019060200180831161120357829003601f168201915b505050505090806005018054600181600116156101000203166002900480601f0160208091040260200160405190810160405280929190818152602001828054600181600116156101000203166002900480156112be5780601f10611293576101008083540402835291602001916112be565b820191906000526020600020905b8154815290600101906020018083116112a157829003601f168201915b5050505050908060060160009054906101000a900473ffffffffffffffffffffffffffffffffffffffff16908060070154908060080160009054906101000a900460ff16905089565b60045481565b6000600560008481526020019081526020016000208281548110151561132f57fe5b9060005260206000200154905092915050565b600160008083815260200190815260200160002060080160006101000a81548160ff02191690831515021790555050565b600560008381526020019081526020016000208190806001815401808255809150509060018203906000526020600020016000909192909190915055505050565b6003602052806000526040600020600091509050806000015490806001018054600181600116156101000203166002900480601f0160208091040260200160405190810160405280929190818152602001828054600181600116156101000203166002900480156114665780601f1061143b57610100808354040283529160200191611466565b820191906000526020600020905b81548152906001019060200180831161144957829003601f168201915b505050505090806002018054600181600116156101000203166002900480601f0160208091040260200160405190810160405280929190818152602001828054600181600116156101000203166002900480156115045780601f106114d957610100808354040283529160200191611504565b820191906000526020600020905b8154815290600101906020018083116114e757829003601f168201915b505050505090806003018054600181600116156101000203166002900480601f0160208091040260200160405190810160405280929190818152602001828054600181600116156101000203166002900480156115a25780601f10611577576101008083540402835291602001916115a2565b820191906000526020600020905b81548152906001019060200180831161158557829003601f168201915b505050505090806004015490806005018054600181600116156101000203166002900480601f0160208091040260200160405190810160405280929190818152602001828054600181600116156101000203166002900480156116465780601f1061161b57610100808354040283529160200191611646565b820191906000526020600020905b81548152906001019060200180831161162957829003601f168201915b5050505050905086565b600060056000838152602001908152602001600020805490509050919050565b60015481565b60066000815480929190600101919050555060a060405190810160405280868152602001858152602001848152602001838152602001828152506007600060065481526020019081526020016000206000820151816000015560208201518160010190805190602001906116eb929190611fbc565b506040820151816002019080519060200190611708929190611fbc565b506060820151816003019080519060200190611725929190611fbc565b506080820151816004019080519060200190611742929190611fbc565b509050505050505050565b6007602052806000526040600020600091509050806000015490806001018054600181600116156101000203166002900480601f0160208091040260200160405190810160405280929190818152602001828054600181600116156101000203166002900480156117ff5780601f106117d4576101008083540402835291602001916117ff565b820191906000526020600020905b8154815290600101906020018083116117e257829003601f168201915b505050505090806002018054600181600116156101000203166002900480601f01602080910402602001604051908101604052809291908181526020018280546001816001161561010002031660029004801561189d5780601f106118725761010080835404028352916020019161189d565b820191906000526020600020905b81548152906001019060200180831161188057829003601f168201915b505050505090806003018054600181600116156101000203166002900480601f01602080910402602001604051908101604052809291908181526020018280546001816001161561010002031660029004801561193b5780601f106119105761010080835404028352916020019161193b565b820191906000526020600020905b81548152906001019060200180831161191e57829003601f168201915b505050505090806004018054600181600116156101000203166002900480601f0160208091040260200160405190810160405280929190818152602001828054600181600116156101000203166002900480156119d95780601f106119ae576101008083540402835291602001916119d9565b820191906000526020600020905b8154815290600101906020018083116119bc57829003601f168201915b5050505050905085565b60026000815480929190600101919050555060c06040519081016040528087815260200186815260200185815260200184815260200183815260200182815250600360006002548152602001908152602001600020600082015181600001556020820151816001019080519060200190611a5e929190611fbc565b506040820151816002019080519060200190611a7b929190611fbc565b506060820151816003019080519060200190611a98929190611fbc565b506080820151816004015560a0820151816005019080519060200190611abf929190611fbc565b50905050505050505050565b600160008154809291906001019190505550610120604051908101604052808a81526020018981526020018881526020018781526020018681526020018581526020018473ffffffffffffffffffffffffffffffffffffffff1681526020018381526020018215158152506000806001548152602001908152602001600020600082015181600001556020820151816001019080519060200190611b70929190611fbc565b506040820151816002019080519060200190611b8d929190611fbc565b506060820151816003019080519060200190611baa929190611fbc565b506080820151816004019080519060200190611bc7929190611fbc565b5060a0820151816005019080519060200190611be4929190611fbc565b5060c08201518160060160006101000a81548173ffffffffffffffffffffffffffffffffffffffff021916908373ffffffffffffffffffffffffffffffffffffffff16021790555060e082015181600701556101008201518160080160006101000a81548160ff021916908315150217905550905050505050505050505050565b60025481565b600560205281600052604060002081815481101515611c8657fe5b90600052602060002001600091509150505481565b60006060806060600060606003600060018152602001908152602001600020600001546003600060018152602001908152602001600020600101600360006001815260200190815260200160002060020160036000600181526020019081526020016000206003016003600060018152602001908152602001600020600401546003600060018152602001908152602001600020600501848054600181600116156101000203166002900480601f016020809104026020016040519081016040528092919081815260200182805460018160011615610100020316600290048015611dc75780601f10611d9c57610100808354040283529160200191611dc7565b820191906000526020600020905b815481529060010190602001808311611daa57829003601f168201915b50505050509450838054600181600116156101000203166002900480601f016020809104026020016040519081016040528092919081815260200182805460018160011615610100020316600290048015611e635780601f10611e3857610100808354040283529160200191611e63565b820191906000526020600020905b815481529060010190602001808311611e4657829003601f168201915b50505050509350828054600181600116156101000203166002900480601f016020809104026020016040519081016040528092919081815260200182805460018160011615610100020316600290048015611eff5780601f10611ed457610100808354040283529160200191611eff565b820191906000526020600020905b815481529060010190602001808311611ee257829003601f168201915b50505050509250808054600181600116156101000203166002900480601f016020809104026020016040519081016040528092919081815260200182805460018160011615610100020316600290048015611f9b5780601f10611f7057610100808354040283529160200191611f9b565b820191906000526020600020905b815481529060010190602001808311611f7e57829003601f168201915b50505050509050955095509550955095509550909192939495565b60065481565b828054600181600116156101000203166002900490600052602060002090601f016020900481019282601f10611ffd57805160ff191683800117855561202b565b8280016001018555821561202b579182015b8281111561202a57825182559160200191906001019061200f565b5b509050612038919061203c565b5090565b61205e91905b8082111561205a576000816000905550600101612042565b5090565b905600a165627a7a723058202d855b2e02c96a4096fbb25941ebd9dbd319f77a15a2fb1e45b0d04c03553b360029",
  "source": "pragma solidity ^0.4.19;\r\n\r\n/// TYPE 1- STUDENT , 2 - Recruiter 3 - institute\r\n\r\n\r\ncontract IDMS{\r\n\tstruct studentProfile{\r\n\t\t//string username;\r\n\t\tuint Type;\r\n\t\tstring name;\r\n\t\tstring password;\r\n\t\tstring dob;\r\n\t\tstring email;\r\n\t\tstring phone;\r\n\t\taddress institute;\r\n\t\tuint marks;\r\n\r\n\t\t/* verification info */\r\n\t\tbool isVerified;\r\n\t}\r\n\r\n\t/*student address to their account*/\r\n\r\n\t/*mapping(address => studentProfile) public students;*/\r\n\tmapping(uint => studentProfile) public students;\r\n\r\n\tuint public studentsCount;\r\n\r\n\tconstructor() public {\r\n\t\t\r\n\t\taddStudent(0,\"vinayak\",\"abcdefgh\",\"1-1-2000\",\"abc@xyz.com\",\"1234567890\",0x0,100,false);\r\n\t\taddRecruiter(1,\"my\",\"code\",\"Hekko\",9192929299,\"xyz@abc.com\");\r\n\t\taddInstitute(2,\"vjti\",\"abcdefgh\",\"1234567890\",\"mumbai\");\r\n\t}\r\n\r\n\tfunction addStudent(uint Type,string _name, string _password, string _dob, string _email, string _phone,\r\n\t\t\t address _institute, uint _marks, bool _isVerified) public {\r\n\t\tstudentsCount++;\r\n\t\tstudents[studentsCount/*msg.sender*/]=\r\n\t\t\tstudentProfile(Type,_name,  _password, _dob, _email, _phone, _institute, _marks, _isVerified);\r\n\t}\r\n\r\n\tfunction setVerified(uint _id) public{\r\n\t\t/*some checking or manually calling this function to set the value below as true */\r\n\t\tstudents[_id/*msg.sender*/].isVerified=true;\r\n\t}\r\n\r\n\t//----------------------------------------------------------------------------------------------------------------------------\r\n\tstruct Recruit {\r\n\t\tuint Type;\r\n\t\tstring username;\r\n\t\tstring password;\r\n\t\tstring OrganisationName;\r\n\t\tuint256 Contact;\r\n\t\tstring OrganisationMail;\r\n\t}\r\n\r\n\t//address RecruiterAddress;\r\n\t\r\n\tuint public RecruiterCount;\r\n\tmapping(/*RecruiterAddress*/uint=>Recruit) public RecruiterId;\r\n\t\r\n\t//uint public recruitersStudentsCount;\r\n\t//mapping(uint /*recruiters (adddress)*/ => studentProfile\t) recruitersStudents;\r\n\r\n\tfunction addRecruiter(uint Type,string username,string password,string _name,uint256 _contact,string _organisationname) public{\r\n\t\tRecruiterCount++;\r\n\t\tRecruiterId[/*msg.sender*/RecruiterCount] = Recruit(Type,username,password,_name,_contact,_organisationname);\r\n\t}\r\n\r\n\tfunction getDetails() public view returns(uint,string,string,string,uint256,string){\r\n\t\treturn(RecruiterId[1].Type,RecruiterId[1].username,RecruiterId[1].password,RecruiterId[1].OrganisationName,RecruiterId[1].Contact,RecruiterId[1].OrganisationMail);\r\n\t}\r\n\r\n\tuint public recruitersStudentsCount;\r\n\tmapping(uint/*recruiter address*/ => uint[] /*student address*/) public recruitersStudents;\r\n\r\n\tfunction getRecruitersStudents(uint _rid, uint _itr) public view returns(uint/*student address*/){\r\n\t\treturn recruitersStudents[_rid][_itr];\r\n\t}\r\n\r\n\tfunction setRecruiterStudents(uint _rid, uint _sid) public {\r\n\t\trecruitersStudents[_rid].push(_sid);\r\n\t}\r\n\r\n\tfunction getRecruitersStudentsCount (uint _rid) public view returns(uint) {\r\n\t\treturn recruitersStudents[_rid].length;\r\n\t}\r\n\t\r\n\r\n\t// function getRecruitersStudentsCount(uint _rId)public view returns(uint){\r\n\t// \treturn recruitersStudents[_rId].length;\r\n\t// }\r\n\r\n\t// function getRecruitersStudents(uint _rId, uint _i) public view \r\n\t// returns(uint , string , string , string , string , string ,address , uint ,bool ) {\r\n\t// \tstudentProfile s=recruitersStudents[_rId ][_i];\r\n\t\t\r\n\t// \t//return (s[0],s[1],s[2],s[3],s[4],s[5],s[6],s[7],s[8]);\r\n\t// \t\t\t.Type,\r\n\t// \t\t\trecruitersStudents[_rId ][_i].name,\r\n\t// \t\t\trecruitersStudents[_rId ][_i].password,\r\n\t// \t\t\trecruitersStudents[_rId ][_i].dob,\r\n\t// \t\t\trecruitersStudents[_rId ][_i].email,\r\n\t// \t\t\trecruitersStudents[_rId ][_i].phone,\r\n\t// \t\t\trecruitersStudents[_rId ][_i].institute,\r\n\t// \t\t\trecruitersStudents[_rId ][_i].marks,\r\n\t// \t\t\trecruitersStudents[_rId ][_i].isVerified\r\n\t\t\t\t\r\n\t// \t\t);\r\n\t// }\r\n\r\n\t// function setRecruiterStudents(uint _rId, uint _sId){\r\n\t// \trecruitersStudents[_rId].push(students[_sId/*msg.sender*/]);\r\n\r\n\t// }\r\n\r\n\t//----------------------------------------------------------------------------------------------------------------------------\r\n\t\t\r\n\r\n\r\n\tstruct InstituteStr{\r\n\t\tuint Type;\r\n\t\tstring instituteName;\r\n\t\tstring password;\r\n\t\tstring phone; \r\n\t\tstring addressInstitute;\r\n\t}\r\n\r\n\tuint public instituteCount;\r\n\tmapping(/*institute Address (address)*/uint=>InstituteStr) public institutes;\r\n\r\n\t\r\n\tfunction addInstitute(uint Type,string _instituteName, string _password, string phone, string _addressInstitute) public {\r\n\t\tinstituteCount++;\r\n\t\tinstitutes[/*msg.sender*/instituteCount] \r\n\t\t\t= InstituteStr(Type,_instituteName, _password, phone, _addressInstitute );\t\r\n\t}\r\n}",
  "sourcePath": "C:\\Users\\Ameya\\Documents\\BlockChain\\BCbackup\\GBH2k18\\contracts\\IDMS.sol",
  "compiler": {
    "name": "solc",
    "version": "0.4.24+commit.e67f0147.Emscripten.clang"
  },
  "schemaVersion": "2.0.1",
  "updatedAt": "2018-12-21T15:20:12.544Z"
}