{
  "contractName": "IDMS",
  "abi": [
    {
      "constant": true,
      "inputs": [
        {
          "name": "",
          "type": "uint256"
        }
      ],
      "name": "students",
      "outputs": [
        {
          "name": "Type",
          "type": "uint256"
        },
        {
          "name": "name",
          "type": "string"
        },
        {
          "name": "dob",
          "type": "string"
        },
        {
          "name": "email",
          "type": "string"
        },
        {
          "name": "phone",
          "type": "string"
        },
        {
          "name": "marks",
          "type": "uint256"
        },
        {
          "name": "isVerified",
          "type": "bool"
        }
      ],
      "payable": false,
      "stateMutability": "view",
      "type": "function"
    },
    {
      "constant": true,
      "inputs": [
        {
          "name": "",
          "type": "uint256"
        }
      ],
      "name": "Users",
      "outputs": [
        {
          "name": "",
          "type": "uint256"
        }
      ],
      "payable": false,
      "stateMutability": "view",
      "type": "function"
    },
    {
      "constant": true,
      "inputs": [],
      "name": "recruitersStudentsCount",
      "outputs": [
        {
          "name": "",
          "type": "uint256"
        }
      ],
      "payable": false,
      "stateMutability": "view",
      "type": "function"
    },
    {
      "constant": true,
      "inputs": [
        {
          "name": "",
          "type": "uint256"
        }
      ],
      "name": "RecruiterToAccount",
      "outputs": [
        {
          "name": "",
          "type": "address"
        }
      ],
      "payable": false,
      "stateMutability": "view",
      "type": "function"
    },
    {
      "constant": true,
      "inputs": [
        {
          "name": "",
          "type": "uint256"
        }
      ],
      "name": "RecruiterId",
      "outputs": [
        {
          "name": "Type",
          "type": "uint256"
        },
        {
          "name": "username",
          "type": "string"
        },
        {
          "name": "password",
          "type": "string"
        },
        {
          "name": "OrganisationName",
          "type": "string"
        },
        {
          "name": "Contact",
          "type": "uint256"
        },
        {
          "name": "OrganisationMail",
          "type": "string"
        }
      ],
      "payable": false,
      "stateMutability": "view",
      "type": "function"
    },
    {
      "constant": true,
      "inputs": [],
      "name": "studentsCount",
      "outputs": [
        {
          "name": "",
          "type": "uint256"
        }
      ],
      "payable": false,
      "stateMutability": "view",
      "type": "function"
    },
    {
      "constant": true,
      "inputs": [
        {
          "name": "",
          "type": "uint256"
        }
      ],
      "name": "institutes",
      "outputs": [
        {
          "name": "Type",
          "type": "uint256"
        },
        {
          "name": "instituteName",
          "type": "string"
        },
        {
          "name": "password",
          "type": "string"
        },
        {
          "name": "phone",
          "type": "string"
        },
        {
          "name": "addressInstitute",
          "type": "string"
        }
      ],
      "payable": false,
      "stateMutability": "view",
      "type": "function"
    },
    {
      "constant": true,
      "inputs": [],
      "name": "RecruiterCount",
      "outputs": [
        {
          "name": "",
          "type": "uint256"
        }
      ],
      "payable": false,
      "stateMutability": "view",
      "type": "function"
    },
    {
      "constant": true,
      "inputs": [
        {
          "name": "",
          "type": "uint256"
        },
        {
          "name": "",
          "type": "uint256"
        }
      ],
      "name": "recruitersStudents",
      "outputs": [
        {
          "name": "",
          "type": "uint256"
        }
      ],
      "payable": false,
      "stateMutability": "view",
      "type": "function"
    },
    {
      "constant": true,
      "inputs": [],
      "name": "instituteCount",
      "outputs": [
        {
          "name": "",
          "type": "uint256"
        }
      ],
      "payable": false,
      "stateMutability": "view",
      "type": "function"
    },
    {
      "inputs": [],
      "payable": false,
      "stateMutability": "nonpayable",
      "type": "constructor"
    },
    {
      "constant": false,
      "inputs": [
        {
          "name": "_t",
          "type": "uint256"
        }
      ],
      "name": "SetUsers",
      "outputs": [],
      "payable": false,
      "stateMutability": "nonpayable",
      "type": "function"
    },
    {
      "constant": false,
      "inputs": [
        {
          "name": "addr",
          "type": "uint256"
        }
      ],
      "name": "GetUsers",
      "outputs": [
        {
          "name": "",
          "type": "uint256"
        }
      ],
      "payable": false,
      "stateMutability": "nonpayable",
      "type": "function"
    },
    {
      "constant": false,
      "inputs": [
        {
          "name": "Type",
          "type": "uint256"
        },
        {
          "name": "_name",
          "type": "string"
        },
        {
          "name": "_dob",
          "type": "string"
        },
        {
          "name": "_email",
          "type": "string"
        },
        {
          "name": "_phone",
          "type": "string"
        },
        {
          "name": "_marks",
          "type": "uint256"
        },
        {
          "name": "_isVerified",
          "type": "bool"
        }
      ],
      "name": "addStudent",
      "outputs": [],
      "payable": false,
      "stateMutability": "nonpayable",
      "type": "function"
    },
    {
      "constant": true,
      "inputs": [
        {
          "name": "i",
          "type": "uint256"
        }
      ],
      "name": "getStudent",
      "outputs": [
        {
          "name": "",
          "type": "uint256"
        },
        {
          "name": "",
          "type": "string"
        },
        {
          "name": "",
          "type": "string"
        },
        {
          "name": "",
          "type": "string"
        },
        {
          "name": "",
          "type": "string"
        },
        {
          "name": "",
          "type": "uint256"
        },
        {
          "name": "",
          "type": "bool"
        }
      ],
      "payable": false,
      "stateMutability": "view",
      "type": "function"
    },
    {
      "constant": false,
      "inputs": [
        {
          "name": "_id",
          "type": "uint256"
        }
      ],
      "name": "setVerified",
      "outputs": [],
      "payable": false,
      "stateMutability": "nonpayable",
      "type": "function"
    },
    {
      "constant": false,
      "inputs": [
        {
          "name": "Type",
          "type": "uint256"
        },
        {
          "name": "username",
          "type": "string"
        },
        {
          "name": "password",
          "type": "string"
        },
        {
          "name": "_name",
          "type": "string"
        },
        {
          "name": "_contact",
          "type": "uint256"
        },
        {
          "name": "_organisationname",
          "type": "string"
        }
      ],
      "name": "addRecruiter",
      "outputs": [],
      "payable": false,
      "stateMutability": "nonpayable",
      "type": "function"
    },
    {
      "constant": true,
      "inputs": [
        {
          "name": "i",
          "type": "uint256"
        }
      ],
      "name": "getDetails",
      "outputs": [
        {
          "name": "",
          "type": "uint256"
        },
        {
          "name": "",
          "type": "string"
        },
        {
          "name": "",
          "type": "string"
        },
        {
          "name": "",
          "type": "string"
        },
        {
          "name": "",
          "type": "uint256"
        },
        {
          "name": "",
          "type": "string"
        }
      ],
      "payable": false,
      "stateMutability": "view",
      "type": "function"
    },
    {
      "constant": true,
      "inputs": [
        {
          "name": "_rid",
          "type": "uint256"
        },
        {
          "name": "_itr",
          "type": "uint256"
        }
      ],
      "name": "getRecruitersStudents",
      "outputs": [
        {
          "name": "",
          "type": "uint256"
        }
      ],
      "payable": false,
      "stateMutability": "view",
      "type": "function"
    },
    {
      "constant": false,
      "inputs": [
        {
          "name": "_rid",
          "type": "uint256"
        },
        {
          "name": "_sid",
          "type": "uint256"
        }
      ],
      "name": "setRecruiterStudents",
      "outputs": [],
      "payable": false,
      "stateMutability": "nonpayable",
      "type": "function"
    },
    {
      "constant": true,
      "inputs": [
        {
          "name": "_rid",
          "type": "uint256"
        }
      ],
      "name": "getRecruitersStudentsCount",
      "outputs": [
        {
          "name": "",
          "type": "uint256"
        }
      ],
      "payable": false,
      "stateMutability": "view",
      "type": "function"
    },
    {
      "constant": false,
      "inputs": [
        {
          "name": "Type",
          "type": "uint256"
        },
        {
          "name": "_instituteName",
          "type": "string"
        },
        {
          "name": "_password",
          "type": "string"
        },
        {
          "name": "phone",
          "type": "string"
        },
        {
          "name": "_addressInstitute",
          "type": "string"
        }
      ],
      "name": "addInstitute",
      "outputs": [],
      "payable": false,
      "stateMutability": "nonpayable",
      "type": "function"
    },
    {
      "constant": false,
      "inputs": [
        {
          "name": "sid",
          "type": "uint256"
        }
      ],
      "name": "SetStudentVerification",
      "outputs": [],
      "payable": false,
      "stateMutability": "nonpayable",
      "type": "function"
    }
  ],
  "bytecode": "0x60806040523480156200001157600080fd5b506200010960006040805190810160405280600781526020017f76696e6179616b000000000000000000000000000000000000000000000000008152506040805190810160405280600881526020017f312d312d323030300000000000000000000000000000000000000000000000008152506040805190810160405280600b81526020017f6162634078797a2e636f6d0000000000000000000000000000000000000000008152506040805190810160405280600a81526020017f313233343536373839300000000000000000000000000000000000000000000081525060646000620002fb640100000000026401000000009004565b6200020260016040805190810160405280600281526020017f6d790000000000000000000000000000000000000000000000000000000000008152506040805190810160405280600481526020017f636f6465000000000000000000000000000000000000000000000000000000008152506040805190810160405280600581526020017f48656b6b6f000000000000000000000000000000000000000000000000000000815250640223f0f8136040805190810160405280600b81526020017f78797a406162632e636f6d00000000000000000000000000000000000000000081525062000468640100000000026401000000009004565b620002f560026040805190810160405280600481526020017f766a7469000000000000000000000000000000000000000000000000000000008152506040805190810160405280600881526020017f61626364656667680000000000000000000000000000000000000000000000008152506040805190810160405280600a81526020017f31323334353637383930000000000000000000000000000000000000000000008152506040805190810160405280600681526020017f6d756d6261690000000000000000000000000000000000000000000000000000815250620005ac640100000000026401000000009004565b6200073a565b60046000815480929190600101919050555060e060405190810160405280888152602001878152602001868152602001858152602001848152602001838152602001821515815250600360006004548152602001908152602001600020600082015181600001556020820151816001019080519060200190620003809291906200068b565b5060408201518160020190805190602001906200039f9291906200068b565b506060820151816003019080519060200190620003be9291906200068b565b506080820151816004019080519060200190620003dd9291906200068b565b5060a0820151816005015560c08201518160060160006101000a81548160ff0219169083151502179055509050503360016000600454815260200190815260200160002060006101000a81548173ffffffffffffffffffffffffffffffffffffffff021916908373ffffffffffffffffffffffffffffffffffffffff16021790555050505050505050565b60056000815480929190600101919050555060c06040519081016040528087815260200186815260200185815260200184815260200183815260200182815250600660006005548152602001908152602001600020600082015181600001556020820151816001019080519060200190620004e59291906200068b565b506040820151816002019080519060200190620005049291906200068b565b506060820151816003019080519060200190620005239291906200068b565b506080820151816004015560a08201518160050190805190602001906200054c9291906200068b565b509050503360076000600554815260200190815260200160002060006101000a81548173ffffffffffffffffffffffffffffffffffffffff021916908373ffffffffffffffffffffffffffffffffffffffff160217905550505050505050565b600a6000815480929190600101919050555060a06040519081016040528086815260200185815260200184815260200183815260200182815250600b6000600a548152602001908152602001600020600082015181600001556020820151816001019080519060200190620006239291906200068b565b506040820151816002019080519060200190620006429291906200068b565b506060820151816003019080519060200190620006619291906200068b565b506080820151816004019080519060200190620006809291906200068b565b509050505050505050565b828054600181600116156101000203166002900490600052602060002090601f016020900481019282601f10620006ce57805160ff1916838001178555620006ff565b82800160010185558215620006ff579182015b82811115620006fe578251825591602001919060010190620006e1565b5b5090506200070e919062000712565b5090565b6200073791905b808211156200073357600081600090555060010162000719565b5090565b90565b612688806200074a6000396000f300608060405260043610610128576000357c0100000000000000000000000000000000000000000000000000000000900463ffffffff16806306ead22e1461012d5780631e98fd1c1461033057806325a8377114610371578063290509281461039c5780632d9de472146103e75780633b430f24146104145780633d025bfc1461048157806355cbc38f146104ae57806357870f35146104e55780635eb4ba7a146106dd578063642f91631461071e57806368433a3a146109215780637865a1b61461094c57806390ee20b014610a91578063980323a314610c82578063a695ba2314610dd1578063b93a89f714610f2c578063dcf0de7314611124578063e7ae5d5514611165578063ebbb886f14611190578063f6eebb04146111bd578063fefb21a414611208575b600080fd5b34801561013957600080fd5b5061015860048036038101908080359060200190929190505050611233565b60405180888152602001806020018060200180602001806020018781526020018615151515815260200185810385528b818151815260200191508051906020019080838360005b838110156101ba57808201518184015260208101905061019f565b50505050905090810190601f1680156101e75780820380516001836020036101000a031916815260200191505b5085810384528a818151815260200191508051906020019080838360005b83811015610220578082015181840152602081019050610205565b50505050905090810190601f16801561024d5780820380516001836020036101000a031916815260200191505b50858103835289818151815260200191508051906020019080838360005b8381101561028657808201518184015260208101905061026b565b50505050905090810190601f1680156102b35780820380516001836020036101000a031916815260200191505b50858103825288818151815260200191508051906020019080838360005b838110156102ec5780820151818401526020810190506102d1565b50505050905090810190601f1680156103195780820380516001836020036101000a031916815260200191505b509b50505050505050505050505060405180910390f35b34801561033c57600080fd5b5061035b600480360381019080803590602001909291905050506114e2565b6040518082815260200191505060405180910390f35b34801561037d57600080fd5b506103866114fa565b6040518082815260200191505060405180910390f35b3480156103a857600080fd5b506103d16004803603810190808035906020019092919080359060200190929190505050611500565b6040518082815260200191505060405180910390f35b3480156103f357600080fd5b5061041260048036038101908080359060200190929190505050611535565b005b34801561042057600080fd5b5061043f60048036038101908080359060200190929190505050611567565b604051808273ffffffffffffffffffffffffffffffffffffffff1673ffffffffffffffffffffffffffffffffffffffff16815260200191505060405180910390f35b34801561048d57600080fd5b506104ac6004803603810190808035906020019092919050505061159a565b005b3480156104ba57600080fd5b506104e360048036038101908080359060200190929190803590602001909291905050506115cc565b005b3480156104f157600080fd5b506105106004803603810190808035906020019092919050505061160d565b604051808781526020018060200180602001806020018681526020018060200185810385528a818151815260200191508051906020019080838360005b8381101561056857808201518184015260208101905061054d565b50505050905090810190601f1680156105955780820380516001836020036101000a031916815260200191505b50858103845289818151815260200191508051906020019080838360005b838110156105ce5780820151818401526020810190506105b3565b50505050905090810190601f1680156105fb5780820380516001836020036101000a031916815260200191505b50858103835288818151815260200191508051906020019080838360005b83811015610634578082015181840152602081019050610619565b50505050905090810190601f1680156106615780820380516001836020036101000a031916815260200191505b50858103825286818151815260200191508051906020019080838360005b8381101561069a57808201518184015260208101905061067f565b50505050905090810190601f1680156106c75780820380516001836020036101000a031916815260200191505b509a505050505050505050505060405180910390f35b3480156106e957600080fd5b50610708600480360381019080803590602001909291905050506118a9565b6040518082815260200191505060405180910390f35b34801561072a57600080fd5b50610749600480360381019080803590602001909291905050506118c9565b60405180888152602001806020018060200180602001806020018781526020018615151515815260200185810385528b818151815260200191508051906020019080838360005b838110156107ab578082015181840152602081019050610790565b50505050905090810190601f1680156107d85780820380516001836020036101000a031916815260200191505b5085810384528a818151815260200191508051906020019080838360005b838110156108115780820151818401526020810190506107f6565b50505050905090810190601f16801561083e5780820380516001836020036101000a031916815260200191505b50858103835289818151815260200191508051906020019080838360005b8381101561087757808201518184015260208101905061085c565b50505050905090810190601f1680156108a45780820380516001836020036101000a031916815260200191505b50858103825288818151815260200191508051906020019080838360005b838110156108dd5780820151818401526020810190506108c2565b50505050905090810190601f16801561090a5780820380516001836020036101000a031916815260200191505b509b50505050505050505050505060405180910390f35b34801561092d57600080fd5b50610936611c07565b6040518082815260200191505060405180910390f35b34801561095857600080fd5b50610a8f60048036038101908080359060200190929190803590602001908201803590602001908080601f0160208091040260200160405190810160405280939291908181526020018383808284378201915050505050509192919290803590602001908201803590602001908080601f0160208091040260200160405190810160405280939291908181526020018383808284378201915050505050509192919290803590602001908201803590602001908080601f0160208091040260200160405190810160405280939291908181526020018383808284378201915050505050509192919290803590602001908201803590602001908080601f0160208091040260200160405190810160405280939291908181526020018383808284378201915050505050509192919290505050611c0d565b005b348015610a9d57600080fd5b50610abc60048036038101908080359060200190929190505050611ce4565b6040518086815260200180602001806020018060200180602001858103855289818151815260200191508051906020019080838360005b83811015610b0e578082015181840152602081019050610af3565b50505050905090810190601f168015610b3b5780820380516001836020036101000a031916815260200191505b50858103845288818151815260200191508051906020019080838360005b83811015610b74578082015181840152602081019050610b59565b50505050905090810190601f168015610ba15780820380516001836020036101000a031916815260200191505b50858103835287818151815260200191508051906020019080838360005b83811015610bda578082015181840152602081019050610bbf565b50505050905090810190601f168015610c075780820380516001836020036101000a031916815260200191505b50858103825286818151815260200191508051906020019080838360005b83811015610c40578082015181840152602081019050610c25565b50505050905090810190601f168015610c6d5780820380516001836020036101000a031916815260200191505b50995050505050505050505060405180910390f35b348015610c8e57600080fd5b50610dcf60048036038101908080359060200190929190803590602001908201803590602001908080601f0160208091040260200160405190810160405280939291908181526020018383808284378201915050505050509192919290803590602001908201803590602001908080601f0160208091040260200160405190810160405280939291908181526020018383808284378201915050505050509192919290803590602001908201803590602001908080601f016020809104026020016040519081016040528093929190818152602001838380828437820191505050505050919291929080359060200190929190803590602001908201803590602001908080601f0160208091040260200160405190810160405280939291908181526020018383808284378201915050505050509192919290505050611f7a565b005b348015610ddd57600080fd5b50610f2a60048036038101908080359060200190929190803590602001908201803590602001908080601f0160208091040260200160405190810160405280939291908181526020018383808284378201915050505050509192919290803590602001908201803590602001908080601f0160208091040260200160405190810160405280939291908181526020018383808284378201915050505050509192919290803590602001908201803590602001908080601f0160208091040260200160405190810160405280939291908181526020018383808284378201915050505050509192919290803590602001908201803590602001908080601f0160208091040260200160405190810160405280939291908181526020018383808284378201915050505050509192919290803590602001909291908035151590602001909291905050506120b6565b005b348015610f3857600080fd5b50610f576004803603810190808035906020019092919050505061221b565b604051808781526020018060200180602001806020018681526020018060200185810385528a818151815260200191508051906020019080838360005b83811015610faf578082015181840152602081019050610f94565b50505050905090810190601f168015610fdc5780820380516001836020036101000a031916815260200191505b50858103845289818151815260200191508051906020019080838360005b83811015611015578082015181840152602081019050610ffa565b50505050905090810190601f1680156110425780820380516001836020036101000a031916815260200191505b50858103835288818151815260200191508051906020019080838360005b8381101561107b578082015181840152602081019050611060565b50505050905090810190601f1680156110a85780820380516001836020036101000a031916815260200191505b50858103825286818151815260200191508051906020019080838360005b838110156110e15780820151818401526020810190506110c6565b50505050905090810190601f16801561110e5780820380516001836020036101000a031916815260200191505b509a505050505050505050505060405180910390f35b34801561113057600080fd5b5061114f60048036038101908080359060200190929190505050612531565b6040518082815260200191505060405180910390f35b34801561117157600080fd5b5061117a61254d565b6040518082815260200191505060405180910390f35b34801561119c57600080fd5b506111bb60048036038101908080359060200190929190505050612553565b005b3480156111c957600080fd5b506111f26004803603810190808035906020019092919080359060200190929190505050612581565b6040518082815260200191505060405180910390f35b34801561121457600080fd5b5061121d6125b1565b6040518082815260200191505060405180910390f35b6003602052806000526040600020600091509050806000015490806001018054600181600116156101000203166002900480601f0160208091040260200160405190810160405280929190818152602001828054600181600116156101000203166002900480156112e55780601f106112ba576101008083540402835291602001916112e5565b820191906000526020600020905b8154815290600101906020018083116112c857829003601f168201915b505050505090806002018054600181600116156101000203166002900480601f0160208091040260200160405190810160405280929190818152602001828054600181600116156101000203166002900480156113835780601f1061135857610100808354040283529160200191611383565b820191906000526020600020905b81548152906001019060200180831161136657829003601f168201915b505050505090806003018054600181600116156101000203166002900480601f0160208091040260200160405190810160405280929190818152602001828054600181600116156101000203166002900480156114215780601f106113f657610100808354040283529160200191611421565b820191906000526020600020905b81548152906001019060200180831161140457829003601f168201915b505050505090806004018054600181600116156101000203166002900480601f0160208091040260200160405190810160405280929190818152602001828054600181600116156101000203166002900480156114bf5780601f10611494576101008083540402835291602001916114bf565b820191906000526020600020905b8154815290600101906020018083116114a257829003601f168201915b5050505050908060050154908060060160009054906101000a900460ff16905087565b60006020528060005260406000206000915090505481565b60085481565b6000600960008481526020019081526020016000208281548110151561152257fe5b9060005260206000200154905092915050565b60016003600083815260200190815260200160002060060160006101000a81548160ff02191690831515021790555050565b60076020528060005260406000206000915054906101000a900473ffffffffffffffffffffffffffffffffffffffff1681565b60016003600083815260200190815260200160002060060160006101000a81548160ff02191690831515021790555050565b600960008381526020019081526020016000208190806001815401808255809150509060018203906000526020600020016000909192909190915055505050565b6006602052806000526040600020600091509050806000015490806001018054600181600116156101000203166002900480601f0160208091040260200160405190810160405280929190818152602001828054600181600116156101000203166002900480156116bf5780601f10611694576101008083540402835291602001916116bf565b820191906000526020600020905b8154815290600101906020018083116116a257829003601f168201915b505050505090806002018054600181600116156101000203166002900480601f01602080910402602001604051908101604052809291908181526020018280546001816001161561010002031660029004801561175d5780601f106117325761010080835404028352916020019161175d565b820191906000526020600020905b81548152906001019060200180831161174057829003601f168201915b505050505090806003018054600181600116156101000203166002900480601f0160208091040260200160405190810160405280929190818152602001828054600181600116156101000203166002900480156117fb5780601f106117d0576101008083540402835291602001916117fb565b820191906000526020600020905b8154815290600101906020018083116117de57829003601f168201915b505050505090806004015490806005018054600181600116156101000203166002900480601f01602080910402602001604051908101604052809291908181526020018280546001816001161561010002031660029004801561189f5780601f106118745761010080835404028352916020019161189f565b820191906000526020600020905b81548152906001019060200180831161188257829003601f168201915b5050505050905086565b600060096000838152602001908152602001600020805490509050919050565b60006060806060806000806003600089815260200190815260200160002060000154600360008a8152602001908152602001600020600101600360008b8152602001908152602001600020600201600360008c8152602001908152602001600020600301600360008d8152602001908152602001600020600401600360008e815260200190815260200160002060050154600360008f815260200190815260200160002060060160009054906101000a900460ff16858054600181600116156101000203166002900480601f016020809104026020016040519081016040528092919081815260200182805460018160011615610100020316600290048015611a135780601f106119e857610100808354040283529160200191611a13565b820191906000526020600020905b8154815290600101906020018083116119f657829003601f168201915b50505050509550848054600181600116156101000203166002900480601f016020809104026020016040519081016040528092919081815260200182805460018160011615610100020316600290048015611aaf5780601f10611a8457610100808354040283529160200191611aaf565b820191906000526020600020905b815481529060010190602001808311611a9257829003601f168201915b50505050509450838054600181600116156101000203166002900480601f016020809104026020016040519081016040528092919081815260200182805460018160011615610100020316600290048015611b4b5780601f10611b2057610100808354040283529160200191611b4b565b820191906000526020600020905b815481529060010190602001808311611b2e57829003601f168201915b50505050509350828054600181600116156101000203166002900480601f016020809104026020016040519081016040528092919081815260200182805460018160011615610100020316600290048015611be75780601f10611bbc57610100808354040283529160200191611be7565b820191906000526020600020905b815481529060010190602001808311611bca57829003601f168201915b505050505092509650965096509650965096509650919395979092949650565b60045481565b600a6000815480929190600101919050555060a06040519081016040528086815260200185815260200184815260200183815260200182815250600b6000600a548152602001908152602001600020600082015181600001556020820151816001019080519060200190611c829291906125b7565b506040820151816002019080519060200190611c9f9291906125b7565b506060820151816003019080519060200190611cbc9291906125b7565b506080820151816004019080519060200190611cd99291906125b7565b509050505050505050565b600b602052806000526040600020600091509050806000015490806001018054600181600116156101000203166002900480601f016020809104026020016040519081016040528092919081815260200182805460018160011615610100020316600290048015611d965780601f10611d6b57610100808354040283529160200191611d96565b820191906000526020600020905b815481529060010190602001808311611d7957829003601f168201915b505050505090806002018054600181600116156101000203166002900480601f016020809104026020016040519081016040528092919081815260200182805460018160011615610100020316600290048015611e345780601f10611e0957610100808354040283529160200191611e34565b820191906000526020600020905b815481529060010190602001808311611e1757829003601f168201915b505050505090806003018054600181600116156101000203166002900480601f016020809104026020016040519081016040528092919081815260200182805460018160011615610100020316600290048015611ed25780601f10611ea757610100808354040283529160200191611ed2565b820191906000526020600020905b815481529060010190602001808311611eb557829003601f168201915b505050505090806004018054600181600116156101000203166002900480601f016020809104026020016040519081016040528092919081815260200182805460018160011615610100020316600290048015611f705780601f10611f4557610100808354040283529160200191611f70565b820191906000526020600020905b815481529060010190602001808311611f5357829003601f168201915b5050505050905085565b60056000815480929190600101919050555060c06040519081016040528087815260200186815260200185815260200184815260200183815260200182815250600660006005548152602001908152602001600020600082015181600001556020820151816001019080519060200190611ff59291906125b7565b5060408201518160020190805190602001906120129291906125b7565b50606082015181600301908051906020019061202f9291906125b7565b506080820151816004015560a08201518160050190805190602001906120569291906125b7565b509050503360076000600554815260200190815260200160002060006101000a81548173ffffffffffffffffffffffffffffffffffffffff021916908373ffffffffffffffffffffffffffffffffffffffff160217905550505050505050565b60046000815480929190600101919050555060e0604051908101604052808881526020018781526020018681526020018581526020018481526020018381526020018215158152506003600060045481526020019081526020016000206000820151816000015560208201518160010190805190602001906121399291906125b7565b5060408201518160020190805190602001906121569291906125b7565b5060608201518160030190805190602001906121739291906125b7565b5060808201518160040190805190602001906121909291906125b7565b5060a0820151816005015560c08201518160060160006101000a81548160ff0219169083151502179055509050503360016000600454815260200190815260200160002060006101000a81548173ffffffffffffffffffffffffffffffffffffffff021916908373ffffffffffffffffffffffffffffffffffffffff16021790555050505050505050565b6000606080606060006060600660008881526020019081526020016000206000015460066000898152602001908152602001600020600101600660008a8152602001908152602001600020600201600660008b8152602001908152602001600020600301600660008c815260200190815260200160002060040154600660008d8152602001908152602001600020600501848054600181600116156101000203166002900480601f0160208091040260200160405190810160405280929190818152602001828054600181600116156101000203166002900480156123415780601f1061231657610100808354040283529160200191612341565b820191906000526020600020905b81548152906001019060200180831161232457829003601f168201915b50505050509450838054600181600116156101000203166002900480601f0160208091040260200160405190810160405280929190818152602001828054600181600116156101000203166002900480156123dd5780601f106123b2576101008083540402835291602001916123dd565b820191906000526020600020905b8154815290600101906020018083116123c057829003601f168201915b50505050509350828054600181600116156101000203166002900480601f0160208091040260200160405190810160405280929190818152602001828054600181600116156101000203166002900480156124795780601f1061244e57610100808354040283529160200191612479565b820191906000526020600020905b81548152906001019060200180831161245c57829003601f168201915b50505050509250808054600181600116156101000203166002900480601f0160208091040260200160405190810160405280929190818152602001828054600181600116156101000203166002900480156125155780601f106124ea57610100808354040283529160200191612515565b820191906000526020600020905b8154815290600101906020018083116124f857829003601f168201915b5050505050905095509550955095509550955091939550919395565b6000806000838152602001908152602001600020549050919050565b60055481565b6002600081548092919060010191905055508060008060025481526020019081526020016000208190555050565b60096020528160005260406000208181548110151561259c57fe5b90600052602060002001600091509150505481565b600a5481565b828054600181600116156101000203166002900490600052602060002090601f016020900481019282601f106125f857805160ff1916838001178555612626565b82800160010185558215612626579182015b8281111561262557825182559160200191906001019061260a565b5b5090506126339190612637565b5090565b61265991905b8082111561265557600081600090555060010161263d565b5090565b905600a165627a7a723058209904217000703716bdd644be4132498e50202a17cdb33f69604b590b1798fcb20029",
  "source": "pragma solidity ^0.4.19;\r\n\r\n/// TYPE 1- STUDENT , 2 - Recruiter 3 - institute\r\n\r\n\r\ncontract IDMS{\r\n\tstruct studentProfile{\r\n\t\t//string username;\r\n\t\tuint Type;\r\n\t\tstring name;\r\n\t\t// string password;\r\n\t\tstring dob;\r\n\t\tstring email;\r\n\t\tstring phone;\r\n\t\tuint marks;\r\n\r\n\t\t/* verification info */\r\n\t\tbool isVerified;\r\n\t}\r\n\r\n\t/*student address to their account*/\r\n\r\n\t/*mapping(address => studentProfile) public students;*/\r\n\r\n\r\n\tmapping( /*address*/uint =>uint) public Users;\r\n\tmapping (uint => address) StudenttoAccount;\r\n\t\r\n\tuint UsersCount;\r\n\r\n\r\n\tmapping(uint => studentProfile) public students;\r\n\tuint public studentsCount;\r\n\r\n\r\n\tfunction SetUsers(uint _t) public {\r\n\t\tUsersCount++;\r\n\t\tUsers[/*msg.sender*/UsersCount] = _t;\r\n\t}\r\n\r\n\r\n\tfunction GetUsers(uint/*address*/ addr) returns (/*address*/uint){\r\n\t\treturn(Users[addr]);\r\n\t}\r\n\r\n\r\n\r\n\r\n\tconstructor() public {\r\n\t\t\r\n\t\taddStudent(0,\"vinayak\",\"1-1-2000\",\"abc@xyz.com\",\"1234567890\",100,false);\r\n\t\taddRecruiter(1,\"my\",\"code\",\"Hekko\",9192929299,\"xyz@abc.com\");\r\n\t\taddInstitute(2,\"vjti\",\"abcdefgh\",\"1234567890\",\"mumbai\");\r\n\t}\r\n\r\n\tfunction addStudent(uint Type,string _name, string _dob, string _email, string _phone, uint _marks, bool _isVerified) public {\r\n\t\t\tstudentsCount++;\r\n\t\t\tstudents[studentsCount/*msg.sender*/]=studentProfile(Type,_name, _dob, _email, _phone, _marks, _isVerified);\r\n\t\t\tStudenttoAccount[studentsCount]=msg.sender;\r\n\t}\r\n\r\n\tfunction getStudent (uint i)public view returns(uint,string,string,string,string,uint,bool) {\r\n\t\treturn(students[i].Type,students[i].name,students[i].dob,students[i].email,students[i].phone,students[i].marks,students[i].isVerified);\t\r\n\t}\r\n\t\r\n\r\n\tfunction setVerified(uint _id) public{\r\n\t\t/*some checking or manually calling this function to set the value below as true */\r\n\t\tstudents[_id/*msg.sender*/].isVerified=true;\r\n\t}\r\n\r\n\t//----------------------------------------------------------------------------------------------------------------------------\r\n\tstruct Recruit {\r\n\t\tuint Type;\r\n\t\tstring username;\r\n\t\tstring password;\r\n\t\tstring OrganisationName;\r\n\t\tuint256 Contact;\r\n\t\tstring OrganisationMail;\r\n\t}\r\n\r\n\r\n\t//address RecruiterAddress;\r\n\t\r\n\r\n\tuint public RecruiterCount;\r\n\tmapping(/*RecruiterAddress*/uint=>Recruit) public RecruiterId;\r\n\tmapping(uint => address) public RecruiterToAccount;\r\n\t//uint public recruitersStudentsCount;\r\n\t//mapping(uint /*recruiters (adddress)*/ => studentProfile\t) recruitersStudents;\r\n\r\n\tfunction addRecruiter(uint Type,string username,string password,string _name,uint256 _contact,string _organisationname) public{\r\n\t\tRecruiterCount++;\r\n\t\tRecruiterId[/*msg.sender*/RecruiterCount] = Recruit(Type,username,password,_name,_contact,_organisationname);\r\n\t\tRecruiterToAccount[RecruiterCount] = msg.sender;\r\n\t}\r\n\r\n\tfunction getDetails(uint i) public view returns(uint,string,string,string,uint256,string){\r\n\t\treturn(RecruiterId[i].Type,RecruiterId[i].username,RecruiterId[i].password,RecruiterId[i].OrganisationName,RecruiterId[i].Contact,RecruiterId[i].OrganisationMail);\r\n\t}\r\n\r\n\tuint public recruitersStudentsCount;\r\n\tmapping(uint/*recruiter address*/ => uint[] /*student address*/) public recruitersStudents;\r\n\r\n\tfunction getRecruitersStudents(uint _rid, uint _itr) public view returns(uint/*student address*/){\r\n\t\treturn recruitersStudents[_rid][_itr];\r\n\t}\r\n\r\n\tfunction setRecruiterStudents(uint _rid, uint _sid) public {\r\n\t\trecruitersStudents[_rid].push(_sid);\r\n\t}\r\n\r\n\tfunction getRecruitersStudentsCount (uint _rid) public view returns(uint) {\r\n\t\treturn recruitersStudents[_rid].length;\r\n\t}\r\n\t\r\n\r\n\t// function getRecruitersStudentsCount(uint _rId)public view returns(uint){\r\n\t// \treturn recruitersStudents[_rId].length;\r\n\t// }\r\n\r\n\t// function getRecruitersStudents(uint _rId, uint _i) public view \r\n\t// returns(uint , string , string , string , string , string ,address , uint ,bool ) {\r\n\t// \tstudentProfile s=recruitersStudents[_rId ][_i];\r\n\t\t\r\n\t// \t//return (s[0],s[1],s[2],s[3],s[4],s[5],s[6],s[7],s[8]);\r\n\t// \t\t\t.Type,\r\n\t// \t\t\trecruitersStudents[_rId ][_i].name,\r\n\t// \t\t\trecruitersStudents[_rId ][_i].password,\r\n\t// \t\t\trecruitersStudents[_rId ][_i].dob,\r\n\t// \t\t\trecruitersStudents[_rId ][_i].email,\r\n\t// \t\t\trecruitersStudents[_rId ][_i].phone,\r\n\t// \t\t\trecruitersStudents[_rId ][_i].institute,\r\n\t// \t\t\trecruitersStudents[_rId ][_i].marks,\r\n\t// \t\t\trecruitersStudents[_rId ][_i].isVerified\r\n\t\t\t\t\r\n\t// \t\t);\r\n\t// }\r\n\r\n\t// function setRecruiterStudents(uint _rId, uint _sId){\r\n\t// \trecruitersStudents[_rId].push(students[_sId/*msg.sender*/]);\r\n\r\n\t// }\r\n\r\n\t//----------------------------------------------------------------------------------------------------------------------------\r\n\t\t\r\n\r\n\r\n\tstruct InstituteStr{\r\n\t\tuint Type;\r\n\t\tstring instituteName;\r\n\t\tstring password;\r\n\t\tstring phone; \r\n\t\tstring addressInstitute;\r\n\t}\r\n\r\n\tuint public instituteCount;\r\n\tmapping(/*institute Address (address)*/uint=>InstituteStr) public institutes;\r\n\r\n\t\r\n\tfunction addInstitute(uint Type,string _instituteName, string _password, string phone, string _addressInstitute) public {\r\n\t\tinstituteCount++;\r\n\t\tinstitutes[/*msg.sender*/instituteCount] \r\n\t\t\t= InstituteStr(Type,_instituteName, _password, phone, _addressInstitute );\t\r\n\t}\r\n\r\n\tfunction SetStudentVerification(/*address*/uint sid) public {\r\n\t\tstudents[sid].isVerified=true;\t\r\n\t\t\t/*IDMS.deployed().then(function(i){app = i;}\r\n\r\n\r\n\r\n\t\t\t);*/\r\n\t}\r\n\r\n}",
  "sourcePath": "C:\\Users\\Vinayak\\Desktop\\GBH2018\\GBH2k18\\contracts\\IDMS.sol",
  "compiler": {
    "name": "solc",
    "version": "0.4.24+commit.e67f0147.Emscripten.clang"
  },
  "schemaVersion": "2.0.1",
  "updatedAt": "2018-12-21T22:23:51.328Z"
}