{
  "contractName": "Institute",
  "abi": [
    {
      "constant": true,
      "inputs": [
        {
          "name": "",
          "type": "uint256"
        }
      ],
      "name": "institutes",
      "outputs": [
        {
          "name": "instituteName",
          "type": "string"
        },
        {
          "name": "password",
          "type": "string"
        },
        {
          "name": "phone",
          "type": "string"
        },
        {
          "name": "addressInstitute",
          "type": "string"
        }
      ],
      "payable": false,
      "stateMutability": "view",
      "type": "function"
    },
    {
      "constant": true,
      "inputs": [],
      "name": "instituteCount",
      "outputs": [
        {
          "name": "",
          "type": "uint256"
        }
      ],
      "payable": false,
      "stateMutability": "view",
      "type": "function"
    },
    {
      "inputs": [],
      "payable": false,
      "stateMutability": "nonpayable",
      "type": "constructor"
    },
    {
      "constant": false,
      "inputs": [
        {
          "name": "_instituteName",
          "type": "string"
        },
        {
          "name": "_password",
          "type": "string"
        },
        {
          "name": "phone",
          "type": "string"
        },
        {
          "name": "_addressInstitute",
          "type": "string"
        }
      ],
      "name": "addInstitute",
      "outputs": [],
      "payable": false,
      "stateMutability": "nonpayable",
      "type": "function"
    }
  ],
  "bytecode": "0x608060405234801561001057600080fd5b506101006040805190810160405280600481526020017f766a7469000000000000000000000000000000000000000000000000000000008152506040805190810160405280600881526020017f61626364656667680000000000000000000000000000000000000000000000008152506040805190810160405280600a81526020017f31323334353637383930000000000000000000000000000000000000000000008152506040805190810160405280600681526020017f6d756d6261690000000000000000000000000000000000000000000000000000815250610105640100000000026401000000009004565b61026e565b600080815480929190600101919050555060806040519081016040528085815260200184815260200183815260200182815250600160008054815260200190815260200160002060008201518160000190805190602001906101689291906101c9565b5060208201518160010190805190602001906101859291906101c9565b5060408201518160020190805190602001906101a29291906101c9565b5060608201518160030190805190602001906101bf9291906101c9565b5090505050505050565b828054600181600116156101000203166002900490600052602060002090601f016020900481019282601f1061020a57805160ff1916838001178555610238565b82800160010185558215610238579182015b8281111561023757825182559160200191906001019061021c565b5b5090506102459190610249565b5090565b61026b91905b8082111561026757600081600090555060010161024f565b5090565b90565b6107d78061027d6000396000f300608060405260043610610057576000357c0100000000000000000000000000000000000000000000000000000000900463ffffffff16806371282b1f1461005c57806390ee20b014610197578063fefb21a414610381575b600080fd5b34801561006857600080fd5b50610195600480360381019080803590602001908201803590602001908080601f0160208091040260200160405190810160405280939291908181526020018383808284378201915050505050509192919290803590602001908201803590602001908080601f0160208091040260200160405190810160405280939291908181526020018383808284378201915050505050509192919290803590602001908201803590602001908080601f0160208091040260200160405190810160405280939291908181526020018383808284378201915050505050509192919290803590602001908201803590602001908080601f01602080910402602001604051908101604052809392919081815260200183838082843782019150505050505091929192905050506103ac565b005b3480156101a357600080fd5b506101c260048036038101908080359060200190929190505050610470565b6040518080602001806020018060200180602001858103855289818151815260200191508051906020019080838360005b8381101561020e5780820151818401526020810190506101f3565b50505050905090810190601f16801561023b5780820380516001836020036101000a031916815260200191505b50858103845288818151815260200191508051906020019080838360005b83811015610274578082015181840152602081019050610259565b50505050905090810190601f1680156102a15780820380516001836020036101000a031916815260200191505b50858103835287818151815260200191508051906020019080838360005b838110156102da5780820151818401526020810190506102bf565b50505050905090810190601f1680156103075780820380516001836020036101000a031916815260200191505b50858103825286818151815260200191508051906020019080838360005b83811015610340578082015181840152602081019050610325565b50505050905090810190601f16801561036d5780820380516001836020036101000a031916815260200191505b509850505050505050505060405180910390f35b34801561038d57600080fd5b50610396610700565b6040518082815260200191505060405180910390f35b6000808154809291906001019190505550608060405190810160405280858152602001848152602001838152602001828152506001600080548152602001908152602001600020600082015181600001908051906020019061040f929190610706565b50602082015181600101908051906020019061042c929190610706565b506040820151816002019080519060200190610449929190610706565b506060820151816003019080519060200190610466929190610706565b5090505050505050565b6001602052806000526040600020600091509050806000018054600181600116156101000203166002900480601f01602080910402602001604051908101604052809291908181526020018280546001816001161561010002031660029004801561051c5780601f106104f15761010080835404028352916020019161051c565b820191906000526020600020905b8154815290600101906020018083116104ff57829003601f168201915b505050505090806001018054600181600116156101000203166002900480601f0160208091040260200160405190810160405280929190818152602001828054600181600116156101000203166002900480156105ba5780601f1061058f576101008083540402835291602001916105ba565b820191906000526020600020905b81548152906001019060200180831161059d57829003601f168201915b505050505090806002018054600181600116156101000203166002900480601f0160208091040260200160405190810160405280929190818152602001828054600181600116156101000203166002900480156106585780601f1061062d57610100808354040283529160200191610658565b820191906000526020600020905b81548152906001019060200180831161063b57829003601f168201915b505050505090806003018054600181600116156101000203166002900480601f0160208091040260200160405190810160405280929190818152602001828054600181600116156101000203166002900480156106f65780601f106106cb576101008083540402835291602001916106f6565b820191906000526020600020905b8154815290600101906020018083116106d957829003601f168201915b5050505050905084565b60005481565b828054600181600116156101000203166002900490600052602060002090601f016020900481019282601f1061074757805160ff1916838001178555610775565b82800160010185558215610775579182015b82811115610774578251825591602001919060010190610759565b5b5090506107829190610786565b5090565b6107a891905b808211156107a457600081600090555060010161078c565b5090565b905600a165627a7a72305820d29829c49105735e15198c5148573c806a1f328b63426bd65f6e2c92f55bd6e60029",
  "source": "pragma solidity ^0.4.19;\r\ncontract Student {\r\n\r\n\t/*getter and setter methods are yet to be added as required later*/\r\n\tstruct studentProfile{\r\n\t\t//string username;\r\n\t\tstring name;\r\n\t\tstring password;\r\n\t\tuint age;\r\n\t\tstring dob;\r\n\t\tstring email;\r\n\t\tstring phone;\r\n\t\taddress institute;\r\n\t\tuint marks;\r\n\r\n\t\t/* verification info */\r\n\t\tbool isVerified;\r\n\t}\r\n\r\n\t/*student address to their account*/\r\n\r\n\t/*mapping(address => studentProfile) public students;*/\r\n\tmapping(uint => studentProfile) public students;\r\n\r\n\tuint public studentsCount;\r\n\r\n\tconstructor() public {\r\n\t\tstudentsCount=0;\r\n\t\taddStudent(\"vinayak\",\"abcdefgh\",12,\"1-1-2000\",\"abc@xyz.com\",\"1234567890\",0x0,100,false);\r\n\t}\r\n\r\n\tfunction addStudent(string _name, string _password, uint _age, string _dob, string _email, string _phone,\r\n\t\t\t address _institute, uint _marks, bool _isVerified) public {\r\n\t\tstudentsCount++;\r\n\t\tstudents[studentsCount/*msg.sender*/]=\r\n\t\t\tstudentProfile(_name,  _password,  _age, _dob, _email, _phone, _institute, _marks, _isVerified);\r\n\t}\r\n\r\n\tfunction setVerified(uint _id){\r\n\t\t/*some checking or manually calling this function to set the value below as true */\r\n\t\tstudents[_id/*msg.sender*/].isVerified=true;\r\n\t}\r\n\r\n}\r\n\r\ncontract Recruiter {\r\n\r\n\tstruct Recruit {\r\n\t\tstring username;\r\n\t\tstring password;\r\n\t\tstring OrganisationName;\r\n\t\tuint256 Contact;\r\n\t\tstring OrganisationMail;\r\n\t}\r\n\r\n\t//address RecruiterAddress;\r\n\t\r\n\tuint public RecruiterCount;\r\n\tmapping(/*RecruiterAddress*/uint=>Recruit) public RecruiterId;\r\n\t\r\n\tfunction Recruiter () {\r\n\t\taddRecruiter(\"my\",\"code\",\"Hekko\",9192929299,\"xyz@abc.com\");\r\n\t}\r\n\r\n\tfunction addRecruiter(string username,string password,string _name,uint256 _contact,string _organisationname) public{\r\n\t\tRecruiterCount++;\r\n\t\tRecruiterId[/*msg.sender*/RecruiterCount] = Recruit(username,password,_name,_contact,_organisationname);\r\n\t}\r\n\r\n\tfunction getDetails() public view returns(string,string,string,uint256,string){\r\n\t\treturn(RecruiterId[1].username,RecruiterId[1].password,RecruiterId[1].OrganisationName,RecruiterId[1].Contact,RecruiterId[1].OrganisationMail);\r\n\t}\r\n}\r\n\r\ncontract Institute{\r\n\r\n\tstruct InstituteStr{\r\n\t\tstring instituteName;\r\n\t\tstring password;\r\n\t\tstring phone;\r\n\t\tstring addressInstitute;\r\n\t}\r\n\r\n\tuint public instituteCount;\r\n\tmapping(/*institute Address (address)*/uint=>InstituteStr) public institutes;\r\n\r\n\tconstructor() public{\r\n\t\taddInstitute(\"vjti\",\"abcdefgh\",\"1234567890\",\"mumbai\");\r\n\t}\r\n\r\n\tfunction addInstitute(string _instituteName, string _password, string phone, string _addressInstitute) public {\r\n\t\tinstituteCount++;\r\n\t\tinstitutes[/*msg.sender*/instituteCount] \r\n\t\t\t= InstituteStr(_instituteName, _password, phone, _addressInstitute );\t\r\n\t}\r\n}",
  "sourcePath": "C:\\Users\\Vinayak\\Documents\\blockchainProject\\BCHackathon\\GBH2k18\\contracts\\IDMS.sol",
  "compiler": {
    "name": "solc",
    "version": "0.4.24+commit.e67f0147.Emscripten.clang"
  },
  "schemaVersion": "2.0.1",
  "updatedAt": "2018-12-21T09:45:34.256Z"
}