{
  "contractName": "Recruiter",
  "abi": [
    {
      "constant": true,
      "inputs": [
        {
          "name": "",
          "type": "uint256"
        }
      ],
      "name": "RecruiterId",
      "outputs": [
        {
          "name": "username",
          "type": "string"
        },
        {
          "name": "password",
          "type": "string"
        },
        {
          "name": "OrganisationName",
          "type": "string"
        },
        {
          "name": "Contact",
          "type": "uint256"
        },
        {
          "name": "OrganisationMail",
          "type": "string"
        }
      ],
      "payable": false,
      "stateMutability": "view",
      "type": "function"
    },
    {
      "constant": true,
      "inputs": [],
      "name": "RecruiterCount",
      "outputs": [
        {
          "name": "",
          "type": "uint256"
        }
      ],
      "payable": false,
      "stateMutability": "view",
      "type": "function"
    },
    {
      "inputs": [],
      "payable": false,
      "stateMutability": "nonpayable",
      "type": "constructor"
    },
    {
      "constant": false,
      "inputs": [
        {
          "name": "username",
          "type": "string"
        },
        {
          "name": "password",
          "type": "string"
        },
        {
          "name": "_name",
          "type": "string"
        },
        {
          "name": "_contact",
          "type": "uint256"
        },
        {
          "name": "_organisationname",
          "type": "string"
        }
      ],
      "name": "addRecruiter",
      "outputs": [],
      "payable": false,
      "stateMutability": "nonpayable",
      "type": "function"
    },
    {
      "constant": true,
      "inputs": [],
      "name": "getDetails",
      "outputs": [
        {
          "name": "",
          "type": "string"
        },
        {
          "name": "",
          "type": "string"
        },
        {
          "name": "",
          "type": "string"
        },
        {
          "name": "",
          "type": "uint256"
        },
        {
          "name": "",
          "type": "string"
        }
      ],
      "payable": false,
      "stateMutability": "view",
      "type": "function"
    }
  ],
  "bytecode": "0x60806040523480156200001157600080fd5b50620001096040805190810160405280600281526020017f6d790000000000000000000000000000000000000000000000000000000000008152506040805190810160405280600481526020017f636f6465000000000000000000000000000000000000000000000000000000008152506040805190810160405280600581526020017f48656b6b6f000000000000000000000000000000000000000000000000000000815250640223f0f8136040805190810160405280600b81526020017f78797a406162632e636f6d0000000000000000000000000000000000000000008152506200010f640100000000026401000000009004565b6200029b565b600080815480929190600101919050555060a06040519081016040528086815260200185815260200184815260200183815260200182815250600160008054815260200190815260200160002060008201518160000190805190602001906200017a929190620001ec565b50602082015181600101908051906020019062000199929190620001ec565b506040820151816002019080519060200190620001b8929190620001ec565b50606082015181600301556080820151816004019080519060200190620001e1929190620001ec565b509050505050505050565b828054600181600116156101000203166002900490600052602060002090601f016020900481019282601f106200022f57805160ff191683800117855562000260565b8280016001018555821562000260579182015b828111156200025f57825182559160200191906001019062000242565b5b5090506200026f919062000273565b5090565b6200029891905b80821115620002945760008160009055506001016200027a565b5090565b90565b610ce380620002ab6000396000f300608060405260043610610062576000357c0100000000000000000000000000000000000000000000000000000000900463ffffffff16806332efe5f31461006757806357870f35146101ac578063e7ae5d551461039d578063fbbf93a0146103c8575b600080fd5b34801561007357600080fd5b506101aa600480360381019080803590602001908201803590602001908080601f0160208091040260200160405190810160405280939291908181526020018383808284378201915050505050509192919290803590602001908201803590602001908080601f0160208091040260200160405190810160405280939291908181526020018383808284378201915050505050509192919290803590602001908201803590602001908080601f016020809104026020016040519081016040528093929190818152602001838380828437820191505050505050919291929080359060200190929190803590602001908201803590602001908080601f01602080910402602001604051908101604052809392919081815260200183838082843782019150505050505091929192905050506105a3565b005b3480156101b857600080fd5b506101d760048036038101908080359060200190929190505050610678565b604051808060200180602001806020018681526020018060200185810385528a818151815260200191508051906020019080838360005b8381101561022957808201518184015260208101905061020e565b50505050905090810190601f1680156102565780820380516001836020036101000a031916815260200191505b50858103845289818151815260200191508051906020019080838360005b8381101561028f578082015181840152602081019050610274565b50505050905090810190601f1680156102bc5780820380516001836020036101000a031916815260200191505b50858103835288818151815260200191508051906020019080838360005b838110156102f55780820151818401526020810190506102da565b50505050905090810190601f1680156103225780820380516001836020036101000a031916815260200191505b50858103825286818151815260200191508051906020019080838360005b8381101561035b578082015181840152602081019050610340565b50505050905090810190601f1680156103885780820380516001836020036101000a031916815260200191505b50995050505050505050505060405180910390f35b3480156103a957600080fd5b506103b261090e565b6040518082815260200191505060405180910390f35b3480156103d457600080fd5b506103dd610914565b604051808060200180602001806020018681526020018060200185810385528a818151815260200191508051906020019080838360005b8381101561042f578082015181840152602081019050610414565b50505050905090810190601f16801561045c5780820380516001836020036101000a031916815260200191505b50858103845289818151815260200191508051906020019080838360005b8381101561049557808201518184015260208101905061047a565b50505050905090810190601f1680156104c25780820380516001836020036101000a031916815260200191505b50858103835288818151815260200191508051906020019080838360005b838110156104fb5780820151818401526020810190506104e0565b50505050905090810190601f1680156105285780820380516001836020036101000a031916815260200191505b50858103825286818151815260200191508051906020019080838360005b83811015610561578082015181840152602081019050610546565b50505050905090810190601f16801561058e5780820380516001836020036101000a031916815260200191505b50995050505050505050505060405180910390f35b600080815480929190600101919050555060a060405190810160405280868152602001858152602001848152602001838152602001828152506001600080548152602001908152602001600020600082015181600001908051906020019061060c929190610c12565b506020820151816001019080519060200190610629929190610c12565b506040820151816002019080519060200190610646929190610c12565b5060608201518160030155608082015181600401908051906020019061066d929190610c12565b509050505050505050565b6001602052806000526040600020600091509050806000018054600181600116156101000203166002900480601f0160208091040260200160405190810160405280929190818152602001828054600181600116156101000203166002900480156107245780601f106106f957610100808354040283529160200191610724565b820191906000526020600020905b81548152906001019060200180831161070757829003601f168201915b505050505090806001018054600181600116156101000203166002900480601f0160208091040260200160405190810160405280929190818152602001828054600181600116156101000203166002900480156107c25780601f10610797576101008083540402835291602001916107c2565b820191906000526020600020905b8154815290600101906020018083116107a557829003601f168201915b505050505090806002018054600181600116156101000203166002900480601f0160208091040260200160405190810160405280929190818152602001828054600181600116156101000203166002900480156108605780601f1061083557610100808354040283529160200191610860565b820191906000526020600020905b81548152906001019060200180831161084357829003601f168201915b505050505090806003015490806004018054600181600116156101000203166002900480601f0160208091040260200160405190810160405280929190818152602001828054600181600116156101000203166002900480156109045780601f106108d957610100808354040283529160200191610904565b820191906000526020600020905b8154815290600101906020018083116108e757829003601f168201915b5050505050905085565b60005481565b6060806060600060606001600060018152602001908152602001600020600001600160006001815260200190815260200160002060010160016000600181526020019081526020016000206002016001600060018152602001908152602001600020600301546001600060018152602001908152602001600020600401848054600181600116156101000203166002900480601f016020809104026020016040519081016040528092919081815260200182805460018160011615610100020316600290048015610a265780601f106109fb57610100808354040283529160200191610a26565b820191906000526020600020905b815481529060010190602001808311610a0957829003601f168201915b50505050509450838054600181600116156101000203166002900480601f016020809104026020016040519081016040528092919081815260200182805460018160011615610100020316600290048015610ac25780601f10610a9757610100808354040283529160200191610ac2565b820191906000526020600020905b815481529060010190602001808311610aa557829003601f168201915b50505050509350828054600181600116156101000203166002900480601f016020809104026020016040519081016040528092919081815260200182805460018160011615610100020316600290048015610b5e5780601f10610b3357610100808354040283529160200191610b5e565b820191906000526020600020905b815481529060010190602001808311610b4157829003601f168201915b50505050509250808054600181600116156101000203166002900480601f016020809104026020016040519081016040528092919081815260200182805460018160011615610100020316600290048015610bfa5780601f10610bcf57610100808354040283529160200191610bfa565b820191906000526020600020905b815481529060010190602001808311610bdd57829003601f168201915b50505050509050945094509450945094509091929394565b828054600181600116156101000203166002900490600052602060002090601f016020900481019282601f10610c5357805160ff1916838001178555610c81565b82800160010185558215610c81579182015b82811115610c80578251825591602001919060010190610c65565b5b509050610c8e9190610c92565b5090565b610cb491905b80821115610cb0576000816000905550600101610c98565b5090565b905600a165627a7a7230582008c7b4474f1d3395bcdd806eafa9f108b1b1fb33cf71afc8f206714148e7c1810029",
  "source": "pragma solidity ^0.4.19;\r\ncontract Student {\r\n\r\n\t/*getter and setter methods are yet to be added as required later*/\r\n\tstruct studentProfile{\r\n\t\t//string username;\r\n\t\tstring name;\r\n\t\tstring password;\r\n\t\tuint age;\r\n\t\tstring dob;\r\n\t\tstring email;\r\n\t\tstring phone;\r\n\t\taddress institute;\r\n\t\tuint marks;\r\n\r\n\t\t/* verification info */\r\n\t\tbool isVerified;\r\n\t}\r\n\r\n\t/*student address to their account*/\r\n\r\n\t/*mapping(address => studentProfile) public students;*/\r\n\tmapping(uint => studentProfile) public students;\r\n\r\n\tuint public studentsCount;\r\n\r\n\tconstructor() public {\r\n\t\tstudentsCount=0;\r\n\t\taddStudent(\"vinayak\",\"abcdefgh\",12,\"1-1-2000\",\"abc@xyz.com\",\"1234567890\",0x0,100,false);\r\n\t}\r\n\r\n\tfunction addStudent(string _name, string _password, uint _age, string _dob, string _email, string _phone,\r\n\t\t\t address _institute, uint _marks, bool _isVerified) public {\r\n\t\tstudentsCount++;\r\n\t\tstudents[studentsCount/*msg.sender*/]=\r\n\t\t\tstudentProfile(_name,  _password,  _age, _dob, _email, _phone, _institute, _marks, _isVerified);\r\n\t}\r\n\r\n\tfunction setVerified(uint _id){\r\n\t\t/*some checking or manually calling this function to set the value below as true */\r\n\t\tstudents[_id/*msg.sender*/].isVerified=true;\r\n\t}\r\n\r\n}\r\n\r\ncontract Recruiter {\r\n\r\n\tstruct Recruit {\r\n\t\tstring username;\r\n\t\tstring password;\r\n\t\tstring OrganisationName;\r\n\t\tuint256 Contact;\r\n\t\tstring OrganisationMail;\r\n\t}\r\n\r\n\t//address RecruiterAddress;\r\n\t\r\n\tuint public RecruiterCount;\r\n\tmapping(/*RecruiterAddress*/uint=>Recruit) public RecruiterId;\r\n\t\r\n\tfunction Recruiter () {\r\n\t\taddRecruiter(\"my\",\"code\",\"Hekko\",9192929299,\"xyz@abc.com\");\r\n\t}\r\n\r\n\tfunction addRecruiter(string username,string password,string _name,uint256 _contact,string _organisationname) public{\r\n\t\tRecruiterCount++;\r\n\t\tRecruiterId[/*msg.sender*/RecruiterCount] = Recruit(username,password,_name,_contact,_organisationname);\r\n\t}\r\n\r\n\tfunction getDetails() public view returns(string,string,string,uint256,string){\r\n\t\treturn(RecruiterId[1].username,RecruiterId[1].password,RecruiterId[1].OrganisationName,RecruiterId[1].Contact,RecruiterId[1].OrganisationMail);\r\n\t}\r\n}",
  "sourcePath": "C:\\Users\\Ameya\\Documents\\BlockChain\\BC Hackathon\\GBH2k18\\contracts\\IDMS.sol",
  "compiler": {
    "name": "solc",
    "version": "0.4.24+commit.e67f0147.Emscripten.clang"
  },
  "schemaVersion": "2.0.1",
  "updatedAt": "2018-12-21T09:36:05.837Z"
}