{
  "contractName": "Student",
  "abi": [
    {
      "constant": true,
      "inputs": [
        {
          "name": "",
          "type": "uint256"
        }
      ],
      "name": "students",
      "outputs": [
        {
          "name": "name",
          "type": "string"
        },
        {
          "name": "age",
          "type": "uint256"
        },
        {
          "name": "dob",
          "type": "string"
        },
        {
          "name": "email",
          "type": "string"
        },
        {
          "name": "phone",
          "type": "string"
        },
        {
          "name": "institute",
          "type": "address"
        },
        {
          "name": "marks",
          "type": "uint256"
        },
        {
          "name": "isVerified",
          "type": "bool"
        }
      ],
      "payable": false,
      "stateMutability": "view",
      "type": "function"
    },
    {
      "constant": true,
      "inputs": [],
      "name": "studentsCount",
      "outputs": [
        {
          "name": "",
          "type": "uint256"
        }
      ],
      "payable": false,
      "stateMutability": "view",
      "type": "function"
    },
    {
      "inputs": [],
      "payable": false,
      "stateMutability": "nonpayable",
      "type": "constructor"
    },
    {
      "constant": false,
      "inputs": [
        {
          "name": "_name",
          "type": "string"
        },
        {
          "name": "_age",
          "type": "uint256"
        },
        {
          "name": "_dob",
          "type": "string"
        },
        {
          "name": "_email",
          "type": "string"
        },
        {
          "name": "_phone",
          "type": "string"
        },
        {
          "name": "_institute",
          "type": "address"
        },
        {
          "name": "_marks",
          "type": "uint256"
        },
        {
          "name": "_isVerified",
          "type": "bool"
        }
      ],
      "name": "addStudent",
      "outputs": [],
      "payable": false,
      "stateMutability": "nonpayable",
      "type": "function"
    },
    {
      "constant": false,
      "inputs": [
        {
          "name": "_id",
          "type": "uint256"
        }
      ],
      "name": "setVerified",
      "outputs": [],
      "payable": false,
      "stateMutability": "nonpayable",
      "type": "function"
    }
  ],
  "bytecode": "0x608060405234801561001057600080fd5b5060006001819055506101106040805190810160405280600781526020017f76696e6179616b00000000000000000000000000000000000000000000000000815250600c6040805190810160405280600881526020017f312d312d323030300000000000000000000000000000000000000000000000008152506040805190810160405280600b81526020017f6162634078797a2e636f6d0000000000000000000000000000000000000000008152506040805190810160405280600a81526020017f3132333435363738393000000000000000000000000000000000000000000000815250600060646000610115640100000000026401000000009004565b61032f565b600160008154809291906001019190505550610100604051908101604052808981526020018881526020018781526020018681526020018581526020018473ffffffffffffffffffffffffffffffffffffffff168152602001838152602001821515815250600080600154815260200190815260200160002060008201518160000190805190602001906101aa92919061028a565b506020820151816001015560408201518160020190805190602001906101d192919061028a565b5060608201518160030190805190602001906101ee92919061028a565b50608082015181600401908051906020019061020b92919061028a565b5060a08201518160050160006101000a81548173ffffffffffffffffffffffffffffffffffffffff021916908373ffffffffffffffffffffffffffffffffffffffff16021790555060c0820151816006015560e08201518160070160006101000a81548160ff0219169083151502179055509050505050505050505050565b828054600181600116156101000203166002900490600052602060002090601f016020900481019282601f106102cb57805160ff19168380011785556102f9565b828001600101855582156102f9579182015b828111156102f85782518255916020019190600101906102dd565b5b509050610306919061030a565b5090565b61032c91905b80821115610328576000816000905550600101610310565b5090565b90565b6109c28061033e6000396000f300608060405260043610610062576000357c0100000000000000000000000000000000000000000000000000000000900463ffffffff16806306ead22e146100675780632d9de4721461029d5780636327f3a5146102ca57806368433a3a14610445575b600080fd5b34801561007357600080fd5b5061009260048036038101908080359060200190929190505050610470565b60405180806020018981526020018060200180602001806020018873ffffffffffffffffffffffffffffffffffffffff1673ffffffffffffffffffffffffffffffffffffffff1681526020018781526020018615151515815260200185810385528d818151815260200191508051906020019080838360005b8381101561012657808201518184015260208101905061010b565b50505050905090810190601f1680156101535780820380516001836020036101000a031916815260200191505b5085810384528b818151815260200191508051906020019080838360005b8381101561018c578082015181840152602081019050610171565b50505050905090810190601f1680156101b95780820380516001836020036101000a031916815260200191505b5085810383528a818151815260200191508051906020019080838360005b838110156101f25780820151818401526020810190506101d7565b50505050905090810190601f16801561021f5780820380516001836020036101000a031916815260200191505b50858103825289818151815260200191508051906020019080838360005b8381101561025857808201518184015260208101905061023d565b50505050905090810190601f1680156102855780820380516001836020036101000a031916815260200191505b509c5050505050505050505050505060405180910390f35b3480156102a957600080fd5b506102c860048036038101908080359060200190929190505050610745565b005b3480156102d657600080fd5b50610443600480360381019080803590602001908201803590602001908080601f016020809104026020016040519081016040528093929190818152602001838380828437820191505050505050919291929080359060200190929190803590602001908201803590602001908080601f0160208091040260200160405190810160405280939291908181526020018383808284378201915050505050509192919290803590602001908201803590602001908080601f0160208091040260200160405190810160405280939291908181526020018383808284378201915050505050509192919290803590602001908201803590602001908080601f0160208091040260200160405190810160405280939291908181526020018383808284378201915050505050509192919290803573ffffffffffffffffffffffffffffffffffffffff16906020019092919080359060200190929190803515159060200190929190505050610776565b005b34801561045157600080fd5b5061045a6108eb565b6040518082815260200191505060405180910390f35b6000602052806000526040600020600091509050806000018054600181600116156101000203166002900480601f01602080910402602001604051908101604052809291908181526020018280546001816001161561010002031660029004801561051c5780601f106104f15761010080835404028352916020019161051c565b820191906000526020600020905b8154815290600101906020018083116104ff57829003601f168201915b505050505090806001015490806002018054600181600116156101000203166002900480601f0160208091040260200160405190810160405280929190818152602001828054600181600116156101000203166002900480156105c05780601f10610595576101008083540402835291602001916105c0565b820191906000526020600020905b8154815290600101906020018083116105a357829003601f168201915b505050505090806003018054600181600116156101000203166002900480601f01602080910402602001604051908101604052809291908181526020018280546001816001161561010002031660029004801561065e5780601f106106335761010080835404028352916020019161065e565b820191906000526020600020905b81548152906001019060200180831161064157829003601f168201915b505050505090806004018054600181600116156101000203166002900480601f0160208091040260200160405190810160405280929190818152602001828054600181600116156101000203166002900480156106fc5780601f106106d1576101008083540402835291602001916106fc565b820191906000526020600020905b8154815290600101906020018083116106df57829003601f168201915b5050505050908060050160009054906101000a900473ffffffffffffffffffffffffffffffffffffffff16908060060154908060070160009054906101000a900460ff16905088565b600160008083815260200190815260200160002060070160006101000a81548160ff02191690831515021790555050565b600160008154809291906001019190505550610100604051908101604052808981526020018881526020018781526020018681526020018581526020018473ffffffffffffffffffffffffffffffffffffffff1681526020018381526020018215158152506000806001548152602001908152602001600020600082015181600001908051906020019061080b9291906108f1565b506020820151816001015560408201518160020190805190602001906108329291906108f1565b50606082015181600301908051906020019061084f9291906108f1565b50608082015181600401908051906020019061086c9291906108f1565b5060a08201518160050160006101000a81548173ffffffffffffffffffffffffffffffffffffffff021916908373ffffffffffffffffffffffffffffffffffffffff16021790555060c0820151816006015560e08201518160070160006101000a81548160ff0219169083151502179055509050505050505050505050565b60015481565b828054600181600116156101000203166002900490600052602060002090601f016020900481019282601f1061093257805160ff1916838001178555610960565b82800160010185558215610960579182015b8281111561095f578251825591602001919060010190610944565b5b50905061096d9190610971565b5090565b61099391905b8082111561098f576000816000905550600101610977565b5090565b905600a165627a7a723058209d165207d455f869ffedf9579cf9c385f73c986d99037e76ceed2a9da56ce9670029",
  "source": "pragma solidity ^0.4.19;\r\ncontract Student {\r\n\r\n\t/*getter and setter methods are yet to be added as required later*/\r\n\tstruct studentProfile{\r\n\t\tstring name;\r\n\t\tuint age;\r\n\t\tstring dob;\r\n\t\tstring email;\r\n\t\tstring phone;\r\n\t\taddress institute;\r\n\t\tuint marks;\r\n\r\n\t\t/* verification info */\r\n\t\tbool isVerified;\r\n\t}\r\n\r\n\t/*student address to their account*/\r\n\r\n\t/*mapping(address => studentProfile) public students;*/\r\n\tmapping(uint => studentProfile) public students;\r\n\r\n\tuint public studentsCount;\r\n\r\n\tconstructor() public {\r\n\t\tstudentsCount=0;\r\n\t\taddStudent(\"vinayak\",12,\"1-1-2000\",\"abc@xyz.com\",\"1234567890\",0x0,100,false);\r\n\t}\r\n\r\n\tfunction addStudent(string _name, uint _age, string _dob, string _email, string _phone,\r\n\t\t\t address _institute, uint _marks, bool _isVerified) public {\r\n\t\tstudentsCount++;\r\n\t\tstudents[studentsCount/*msg.sender*/]=\r\n\t\t\tstudentProfile(_name, _age, _dob, _email, _phone, _institute, _marks, _isVerified);\r\n\t}\r\n\r\n\tfunction setVerified(uint _id){\r\n\t\t/*some checking or manually calling this function to set the value below as true */\r\n\t\tstudents[_id/*msg.sender*/].isVerified=true;\r\n\t}\r\n\r\n}",
  "sourcePath": "C:\\Users\\Vinayak\\Documents\\blockchainProject\\BCHackathon\\GBH2k18\\contracts\\IDMS.sol",
  "compiler": {
    "name": "solc",
    "version": "0.4.24+commit.e67f0147.Emscripten.clang"
  },
  "schemaVersion": "2.0.1",
  "updatedAt": "2018-12-21T07:29:28.973Z"
}