{
  "contractName": "Student",
  "abi": [
    {
      "constant": true,
      "inputs": [
        {
          "name": "",
          "type": "uint256"
        }
      ],
      "name": "students",
      "outputs": [
        {
          "name": "name",
          "type": "string"
        },
        {
          "name": "password",
          "type": "string"
        },
        {
          "name": "age",
          "type": "uint256"
        },
        {
          "name": "dob",
          "type": "string"
        },
        {
          "name": "email",
          "type": "string"
        },
        {
          "name": "phone",
          "type": "string"
        },
        {
          "name": "institute",
          "type": "address"
        },
        {
          "name": "marks",
          "type": "uint256"
        },
        {
          "name": "isVerified",
          "type": "bool"
        }
      ],
      "payable": false,
      "stateMutability": "view",
      "type": "function"
    },
    {
      "constant": true,
      "inputs": [],
      "name": "studentsCount",
      "outputs": [
        {
          "name": "",
          "type": "uint256"
        }
      ],
      "payable": false,
      "stateMutability": "view",
      "type": "function"
    },
    {
      "inputs": [],
      "payable": false,
      "stateMutability": "nonpayable",
      "type": "constructor"
    },
    {
      "constant": false,
      "inputs": [
        {
          "name": "_name",
          "type": "string"
        },
        {
          "name": "_password",
          "type": "string"
        },
        {
          "name": "_age",
          "type": "uint256"
        },
        {
          "name": "_dob",
          "type": "string"
        },
        {
          "name": "_email",
          "type": "string"
        },
        {
          "name": "_phone",
          "type": "string"
        },
        {
          "name": "_institute",
          "type": "address"
        },
        {
          "name": "_marks",
          "type": "uint256"
        },
        {
          "name": "_isVerified",
          "type": "bool"
        }
      ],
      "name": "addStudent",
      "outputs": [],
      "payable": false,
      "stateMutability": "nonpayable",
      "type": "function"
    },
    {
      "constant": false,
      "inputs": [
        {
          "name": "_id",
          "type": "uint256"
        }
      ],
      "name": "setVerified",
      "outputs": [],
      "payable": false,
      "stateMutability": "nonpayable",
      "type": "function"
    }
  ],
  "bytecode": "0x60806040523480156200001157600080fd5b506000600181905550620001496040805190810160405280600781526020017f76696e6179616b000000000000000000000000000000000000000000000000008152506040805190810160405280600881526020017f6162636465666768000000000000000000000000000000000000000000000000815250600c6040805190810160405280600881526020017f312d312d323030300000000000000000000000000000000000000000000000008152506040805190810160405280600b81526020017f6162634078797a2e636f6d0000000000000000000000000000000000000000008152506040805190810160405280600a81526020017f31323334353637383930000000000000000000000000000000000000000000008152506000606460006200014f640100000000026401000000009004565b620003a2565b600160008154809291906001019190505550610120604051908101604052808a81526020018981526020018881526020018781526020018681526020018581526020018473ffffffffffffffffffffffffffffffffffffffff16815260200183815260200182151581525060008060015481526020019081526020016000206000820151816000019080519060200190620001ec929190620002f3565b5060208201518160010190805190602001906200020b929190620002f3565b5060408201518160020155606082015181600301908051906020019062000234929190620002f3565b50608082015181600401908051906020019062000253929190620002f3565b5060a082015181600501908051906020019062000272929190620002f3565b5060c08201518160060160006101000a81548173ffffffffffffffffffffffffffffffffffffffff021916908373ffffffffffffffffffffffffffffffffffffffff16021790555060e082015181600701556101008201518160080160006101000a81548160ff021916908315150217905550905050505050505050505050565b828054600181600116156101000203166002900490600052602060002090601f016020900481019282601f106200033657805160ff191683800117855562000367565b8280016001018555821562000367579182015b828111156200036657825182559160200191906001019062000349565b5b5090506200037691906200037a565b5090565b6200039f91905b808211156200039b57600081600090555060010162000381565b5090565b90565b610b3780620003b26000396000f300608060405260043610610062576000357c0100000000000000000000000000000000000000000000000000000000900463ffffffff16806306ead22e146100675780632d9de4721461030957806368433a3a14610336578063c17edf8214610361575b600080fd5b34801561007357600080fd5b5061009260048036038101908080359060200190929190505050610522565b6040518080602001806020018a81526020018060200180602001806020018973ffffffffffffffffffffffffffffffffffffffff1673ffffffffffffffffffffffffffffffffffffffff1681526020018881526020018715151515815260200186810386528f818151815260200191508051906020019080838360005b8381101561012a57808201518184015260208101905061010f565b50505050905090810190601f1680156101575780820380516001836020036101000a031916815260200191505b5086810385528e818151815260200191508051906020019080838360005b83811015610190578082015181840152602081019050610175565b50505050905090810190601f1680156101bd5780820380516001836020036101000a031916815260200191505b5086810384528c818151815260200191508051906020019080838360005b838110156101f65780820151818401526020810190506101db565b50505050905090810190601f1680156102235780820380516001836020036101000a031916815260200191505b5086810383528b818151815260200191508051906020019080838360005b8381101561025c578082015181840152602081019050610241565b50505050905090810190601f1680156102895780820380516001836020036101000a031916815260200191505b5086810382528a818151815260200191508051906020019080838360005b838110156102c25780820151818401526020810190506102a7565b50505050905090810190601f1680156102ef5780820380516001836020036101000a031916815260200191505b509e50505050505050505050505050505060405180910390f35b34801561031557600080fd5b5061033460048036038101908080359060200190929190505050610895565b005b34801561034257600080fd5b5061034b6108c6565b6040518082815260200191505060405180910390f35b34801561036d57600080fd5b50610520600480360381019080803590602001908201803590602001908080601f0160208091040260200160405190810160405280939291908181526020018383808284378201915050505050509192919290803590602001908201803590602001908080601f016020809104026020016040519081016040528093929190818152602001838380828437820191505050505050919291929080359060200190929190803590602001908201803590602001908080601f0160208091040260200160405190810160405280939291908181526020018383808284378201915050505050509192919290803590602001908201803590602001908080601f0160208091040260200160405190810160405280939291908181526020018383808284378201915050505050509192919290803590602001908201803590602001908080601f0160208091040260200160405190810160405280939291908181526020018383808284378201915050505050509192919290803573ffffffffffffffffffffffffffffffffffffffff169060200190929190803590602001909291908035151590602001909291905050506108cc565b005b6000602052806000526040600020600091509050806000018054600181600116156101000203166002900480601f0160208091040260200160405190810160405280929190818152602001828054600181600116156101000203166002900480156105ce5780601f106105a3576101008083540402835291602001916105ce565b820191906000526020600020905b8154815290600101906020018083116105b157829003601f168201915b505050505090806001018054600181600116156101000203166002900480601f01602080910402602001604051908101604052809291908181526020018280546001816001161561010002031660029004801561066c5780601f106106415761010080835404028352916020019161066c565b820191906000526020600020905b81548152906001019060200180831161064f57829003601f168201915b505050505090806002015490806003018054600181600116156101000203166002900480601f0160208091040260200160405190810160405280929190818152602001828054600181600116156101000203166002900480156107105780601f106106e557610100808354040283529160200191610710565b820191906000526020600020905b8154815290600101906020018083116106f357829003601f168201915b505050505090806004018054600181600116156101000203166002900480601f0160208091040260200160405190810160405280929190818152602001828054600181600116156101000203166002900480156107ae5780601f10610783576101008083540402835291602001916107ae565b820191906000526020600020905b81548152906001019060200180831161079157829003601f168201915b505050505090806005018054600181600116156101000203166002900480601f01602080910402602001604051908101604052809291908181526020018280546001816001161561010002031660029004801561084c5780601f106108215761010080835404028352916020019161084c565b820191906000526020600020905b81548152906001019060200180831161082f57829003601f168201915b5050505050908060060160009054906101000a900473ffffffffffffffffffffffffffffffffffffffff16908060070154908060080160009054906101000a900460ff16905089565b600160008083815260200190815260200160002060080160006101000a81548160ff02191690831515021790555050565b60015481565b600160008154809291906001019190505550610120604051908101604052808a81526020018981526020018881526020018781526020018681526020018581526020018473ffffffffffffffffffffffffffffffffffffffff16815260200183815260200182151581525060008060015481526020019081526020016000206000820151816000019080519060200190610967929190610a66565b506020820151816001019080519060200190610984929190610a66565b506040820151816002015560608201518160030190805190602001906109ab929190610a66565b5060808201518160040190805190602001906109c8929190610a66565b5060a08201518160050190805190602001906109e5929190610a66565b5060c08201518160060160006101000a81548173ffffffffffffffffffffffffffffffffffffffff021916908373ffffffffffffffffffffffffffffffffffffffff16021790555060e082015181600701556101008201518160080160006101000a81548160ff021916908315150217905550905050505050505050505050565b828054600181600116156101000203166002900490600052602060002090601f016020900481019282601f10610aa757805160ff1916838001178555610ad5565b82800160010185558215610ad5579182015b82811115610ad4578251825591602001919060010190610ab9565b5b509050610ae29190610ae6565b5090565b610b0891905b80821115610b04576000816000905550600101610aec565b5090565b905600a165627a7a7230582041a51649de19d01aa42caae0aff2be8608d082800990b3315e4f8261efb1439d0029",
  "source": "pragma solidity ^0.4.19;\r\ncontract Student {\r\n\r\n\t/*getter and setter methods are yet to be added as required later*/\r\n\tstruct studentProfile{\r\n\t\t//string username;\r\n\t\tstring name;\r\n\t\tstring password;\r\n\t\tuint age;\r\n\t\tstring dob;\r\n\t\tstring email;\r\n\t\tstring phone;\r\n\t\taddress institute;\r\n\t\tuint marks;\r\n\r\n\t\t/* verification info */\r\n\t\tbool isVerified;\r\n\t}\r\n\r\n\t/*student address to their account*/\r\n\r\n\t/*mapping(address => studentProfile) public students;*/\r\n\tmapping(uint => studentProfile) public students;\r\n\r\n\tuint public studentsCount;\r\n\r\n\tconstructor() public {\r\n\t\tstudentsCount=0;\r\n\t\taddStudent(\"vinayak\",\"abcdefgh\",12,\"1-1-2000\",\"abc@xyz.com\",\"1234567890\",0x0,100,false);\r\n\t}\r\n\r\n\tfunction addStudent(string _name, string _password, uint _age, string _dob, string _email, string _phone,\r\n\t\t\t address _institute, uint _marks, bool _isVerified) public {\r\n\t\tstudentsCount++;\r\n\t\tstudents[studentsCount/*msg.sender*/]=\r\n\t\t\tstudentProfile(_name,  _password,  _age, _dob, _email, _phone, _institute, _marks, _isVerified);\r\n\t}\r\n\r\n\tfunction setVerified(uint _id){\r\n\t\t/*some checking or manually calling this function to set the value below as true */\r\n\t\tstudents[_id/*msg.sender*/].isVerified=true;\r\n\t}\r\n\r\n}\r\n\r\ncontract Recruiter {\r\n\r\n\tstruct Recruit {\r\n\t\tstring username;\r\n\t\tstring password;\r\n\t\tstring OrganisationName;\r\n\t\tuint256 Contact;\r\n\t\tstring OrganisationMail;\r\n\t}\r\n\r\n\t//address RecruiterAddress;\r\n\t\r\n\tuint public RecruiterCount;\r\n\tmapping(/*RecruiterAddress*/uint=>Recruit) public RecruiterId;\r\n\t\r\n\tfunction Recruiter () {\r\n\t\taddRecruiter(\"my\",\"code\",\"Hekko\",9192929299,\"xyz@abc.com\");\r\n\t}\r\n\r\n\tfunction addRecruiter(string username,string password,string _name,uint256 _contact,string _organisationname) public{\r\n\t\tRecruiterCount++;\r\n\t\tRecruiterId[/*msg.sender*/RecruiterCount] = Recruit(username,password,_name,_contact,_organisationname);\r\n\t}\r\n\r\n\tfunction getDetails() public view returns(string,string,string,uint256,string){\r\n\t\treturn(RecruiterId[1].username,RecruiterId[1].password,RecruiterId[1].OrganisationName,RecruiterId[1].Contact,RecruiterId[1].OrganisationMail);\r\n\t}\r\n}",
  "sourcePath": "C:\\Users\\Ameya\\Documents\\BlockChain\\BC Hackathon\\GBH2k18\\contracts\\IDMS.sol",
  "compiler": {
    "name": "solc",
    "version": "0.4.24+commit.e67f0147.Emscripten.clang"
  },
  "schemaVersion": "2.0.1",
  "updatedAt": "2018-12-21T09:36:05.832Z"
}